{
  "abi": [
    {
      "type": "constructor",
      "inputs": [
        {
          "name": "_feeRecipient",
          "type": "address",
          "internalType": "address"
        }
      ],
      "stateMutability": "nonpayable"
    },
    {
      "type": "receive",
      "stateMutability": "payable"
    },
    {
      "type": "function",
      "name": "ADMIN_ROLE",
      "inputs": [],
      "outputs": [
        {
          "name": "",
          "type": "bytes32",
          "internalType": "bytes32"
        }
      ],
      "stateMutability": "view"
    },
    {
      "type": "function",
      "name": "ARBITRATOR_ROLE",
      "inputs": [],
      "outputs": [
        {
          "name": "",
          "type": "bytes32",
          "internalType": "bytes32"
        }
      ],
      "stateMutability": "view"
    },
    {
      "type": "function",
      "name": "BASIS_POINTS",
      "inputs": [],
      "outputs": [
        {
          "name": "",
          "type": "uint256",
          "internalType": "uint256"
        }
      ],
      "stateMutability": "view"
    },
    {
      "type": "function",
      "name": "DEFAULT_ADMIN_ROLE",
      "inputs": [],
      "outputs": [
        {
          "name": "",
          "type": "bytes32",
          "internalType": "bytes32"
        }
      ],
      "stateMutability": "view"
    },
    {
      "type": "function",
      "name": "approveEscrow",
      "inputs": [
        {
          "name": "_escrowId",
          "type": "uint256",
          "internalType": "uint256"
        }
      ],
      "outputs": [],
      "stateMutability": "nonpayable"
    },
    {
      "type": "function",
      "name": "autoRelease",
      "inputs": [
        {
          "name": "_escrowId",
          "type": "uint256",
          "internalType": "uint256"
        }
      ],
      "outputs": [],
      "stateMutability": "nonpayable"
    },
    {
      "type": "function",
      "name": "batchCreateEscrows",
      "inputs": [
        {
          "name": "_sellers",
          "type": "address[]",
          "internalType": "address[]"
        },
        {
          "name": "_amounts",
          "type": "uint256[]",
          "internalType": "uint256[]"
        },
        {
          "name": "_disputeWindows",
          "type": "uint256[]",
          "internalType": "uint256[]"
        },
        {
          "name": "_metadatas",
          "type": "string[]",
          "internalType": "string[]"
        }
      ],
      "outputs": [
        {
          "name": "escrowIds",
          "type": "uint256[]",
          "internalType": "uint256[]"
        }
      ],
      "stateMutability": "payable"
    },
    {
      "type": "function",
      "name": "calculateUserFee",
      "inputs": [
        {
          "name": "_user",
          "type": "address",
          "internalType": "address"
        },
        {
          "name": "_amount",
          "type": "uint256",
          "internalType": "uint256"
        }
      ],
      "outputs": [
        {
          "name": "fee",
          "type": "uint256",
          "internalType": "uint256"
        }
      ],
      "stateMutability": "view"
    },
    {
      "type": "function",
      "name": "cancelEscrow",
      "inputs": [
        {
          "name": "_escrowId",
          "type": "uint256",
          "internalType": "uint256"
        }
      ],
      "outputs": [],
      "stateMutability": "nonpayable"
    },
    {
      "type": "function",
      "name": "confirmDelivery",
      "inputs": [
        {
          "name": "_escrowId",
          "type": "uint256",
          "internalType": "uint256"
        }
      ],
      "outputs": [],
      "stateMutability": "nonpayable"
    },
    {
      "type": "function",
      "name": "createEscrow",
      "inputs": [
        {
          "name": "_seller",
          "type": "address",
          "internalType": "address"
        },
        {
          "name": "_amount",
          "type": "uint256",
          "internalType": "uint256"
        },
        {
          "name": "_disputeWindow",
          "type": "uint256",
          "internalType": "uint256"
        },
        {
          "name": "_metadata",
          "type": "string",
          "internalType": "string"
        }
      ],
      "outputs": [
        {
          "name": "escrowId",
          "type": "uint256",
          "internalType": "uint256"
        }
      ],
      "stateMutability": "payable"
    },
    {
      "type": "function",
      "name": "createEscrowWithTemplate",
      "inputs": [
        {
          "name": "_seller",
          "type": "address",
          "internalType": "address"
        },
        {
          "name": "_amount",
          "type": "uint256",
          "internalType": "uint256"
        },
        {
          "name": "_disputeWindow",
          "type": "uint256",
          "internalType": "uint256"
        },
        {
          "name": "_metadata",
          "type": "string",
          "internalType": "string"
        },
        {
          "name": "_templateId",
          "type": "string",
          "internalType": "string"
        },
        {
          "name": "_approvers",
          "type": "address[]",
          "internalType": "address[]"
        }
      ],
      "outputs": [
        {
          "name": "escrowId",
          "type": "uint256",
          "internalType": "uint256"
        }
      ],
      "stateMutability": "payable"
    },
    {
      "type": "function",
      "name": "defaultApprovalsRequired",
      "inputs": [],
      "outputs": [
        {
          "name": "",
          "type": "uint256",
          "internalType": "uint256"
        }
      ],
      "stateMutability": "view"
    },
    {
      "type": "function",
      "name": "defaultDisputeWindow",
      "inputs": [],
      "outputs": [
        {
          "name": "",
          "type": "uint256",
          "internalType": "uint256"
        }
      ],
      "stateMutability": "view"
    },
    {
      "type": "function",
      "name": "disputeReasons",
      "inputs": [
        {
          "name": "",
          "type": "uint256",
          "internalType": "uint256"
        }
      ],
      "outputs": [
        {
          "name": "",
          "type": "string",
          "internalType": "string"
        }
      ],
      "stateMutability": "view"
    },
    {
      "type": "function",
      "name": "escrows",
      "inputs": [
        {
          "name": "",
          "type": "uint256",
          "internalType": "uint256"
        }
      ],
      "outputs": [
        {
          "name": "buyer",
          "type": "address",
          "internalType": "address"
        },
        {
          "name": "seller",
          "type": "address",
          "internalType": "address"
        },
        {
          "name": "amount",
          "type": "uint256",
          "internalType": "uint256"
        },
        {
          "name": "fee",
          "type": "uint256",
          "internalType": "uint256"
        },
        {
          "name": "status",
          "type": "uint8",
          "internalType": "enum EscrowCore.Status"
        },
        {
          "name": "createdAt",
          "type": "uint256",
          "internalType": "uint256"
        },
        {
          "name": "fundedAt",
          "type": "uint256",
          "internalType": "uint256"
        },
        {
          "name": "disputeWindow",
          "type": "uint256",
          "internalType": "uint256"
        },
        {
          "name": "feeCollected",
          "type": "bool",
          "internalType": "bool"
        },
        {
          "name": "metadata",
          "type": "string",
          "internalType": "string"
        },
        {
          "name": "chainId",
          "type": "uint256",
          "internalType": "uint256"
        },
        {
          "name": "approvalsRequired",
          "type": "uint256",
          "internalType": "uint256"
        },
        {
          "name": "approvalCount",
          "type": "uint256",
          "internalType": "uint256"
        }
      ],
      "stateMutability": "view"
    },
    {
      "type": "function",
      "name": "feeRecipient",
      "inputs": [],
      "outputs": [
        {
          "name": "",
          "type": "address",
          "internalType": "address"
        }
      ],
      "stateMutability": "view"
    },
    {
      "type": "function",
      "name": "fundEscrow",
      "inputs": [
        {
          "name": "_escrowId",
          "type": "uint256",
          "internalType": "uint256"
        }
      ],
      "outputs": [],
      "stateMutability": "payable"
    },
    {
      "type": "function",
      "name": "getActiveEscrows",
      "inputs": [
        {
          "name": "offset",
          "type": "uint256",
          "internalType": "uint256"
        },
        {
          "name": "limit",
          "type": "uint256",
          "internalType": "uint256"
        }
      ],
      "outputs": [
        {
          "name": "escrowIds",
          "type": "uint256[]",
          "internalType": "uint256[]"
        },
        {
          "name": "count",
          "type": "uint256",
          "internalType": "uint256"
        }
      ],
      "stateMutability": "view"
    },
    {
      "type": "function",
      "name": "getAvailableFees",
      "inputs": [],
      "outputs": [
        {
          "name": "",
          "type": "uint256",
          "internalType": "uint256"
        }
      ],
      "stateMutability": "view"
    },
    {
      "type": "function",
      "name": "getDisputeDetails",
      "inputs": [
        {
          "name": "_escrowId",
          "type": "uint256",
          "internalType": "uint256"
        }
      ],
      "outputs": [
        {
          "name": "disputeReason",
          "type": "string",
          "internalType": "string"
        },
        {
          "name": "resolution",
          "type": "string",
          "internalType": "string"
        }
      ],
      "stateMutability": "view"
    },
    {
      "type": "function",
      "name": "getDisputedEscrows",
      "inputs": [],
      "outputs": [
        {
          "name": "escrowIds",
          "type": "uint256[]",
          "internalType": "uint256[]"
        }
      ],
      "stateMutability": "view"
    },
    {
      "type": "function",
      "name": "getEscrowDetails",
      "inputs": [
        {
          "name": "_escrowId",
          "type": "uint256",
          "internalType": "uint256"
        }
      ],
      "outputs": [
        {
          "name": "buyer",
          "type": "address",
          "internalType": "address"
        },
        {
          "name": "seller",
          "type": "address",
          "internalType": "address"
        },
        {
          "name": "amount",
          "type": "uint256",
          "internalType": "uint256"
        },
        {
          "name": "fee",
          "type": "uint256",
          "internalType": "uint256"
        },
        {
          "name": "status",
          "type": "uint8",
          "internalType": "enum EscrowCore.Status"
        },
        {
          "name": "createdAt",
          "type": "uint256",
          "internalType": "uint256"
        },
        {
          "name": "fundedAt",
          "type": "uint256",
          "internalType": "uint256"
        },
        {
          "name": "disputeWindow",
          "type": "uint256",
          "internalType": "uint256"
        },
        {
          "name": "metadata",
          "type": "string",
          "internalType": "string"
        }
      ],
      "stateMutability": "view"
    },
    {
      "type": "function",
      "name": "getEscrowStats",
      "inputs": [],
      "outputs": [
        {
          "name": "totalEscrows",
          "type": "uint256",
          "internalType": "uint256"
        },
        {
          "name": "activeEscrows",
          "type": "uint256",
          "internalType": "uint256"
        },
        {
          "name": "completedEscrows",
          "type": "uint256",
          "internalType": "uint256"
        },
        {
          "name": "disputedEscrows",
          "type": "uint256",
          "internalType": "uint256"
        },
        {
          "name": "totalVolume",
          "type": "uint256",
          "internalType": "uint256"
        },
        {
          "name": "feesCollected",
          "type": "uint256",
          "internalType": "uint256"
        },
        {
          "name": "availableFees",
          "type": "uint256",
          "internalType": "uint256"
        }
      ],
      "stateMutability": "view"
    },
    {
      "type": "function",
      "name": "getRoleAdmin",
      "inputs": [
        {
          "name": "role",
          "type": "bytes32",
          "internalType": "bytes32"
        }
      ],
      "outputs": [
        {
          "name": "",
          "type": "bytes32",
          "internalType": "bytes32"
        }
      ],
      "stateMutability": "view"
    },
    {
      "type": "function",
      "name": "getUserEscrows",
      "inputs": [
        {
          "name": "_user",
          "type": "address",
          "internalType": "address"
        }
      ],
      "outputs": [
        {
          "name": "",
          "type": "uint256[]",
          "internalType": "uint256[]"
        }
      ],
      "stateMutability": "view"
    },
    {
      "type": "function",
      "name": "getUserFeePercentage",
      "inputs": [
        {
          "name": "_user",
          "type": "address",
          "internalType": "address"
        }
      ],
      "outputs": [
        {
          "name": "",
          "type": "uint256",
          "internalType": "uint256"
        }
      ],
      "stateMutability": "view"
    },
    {
      "type": "function",
      "name": "grantRole",
      "inputs": [
        {
          "name": "role",
          "type": "bytes32",
          "internalType": "bytes32"
        },
        {
          "name": "account",
          "type": "address",
          "internalType": "address"
        }
      ],
      "outputs": [],
      "stateMutability": "nonpayable"
    },
    {
      "type": "function",
      "name": "hasRole",
      "inputs": [
        {
          "name": "role",
          "type": "bytes32",
          "internalType": "bytes32"
        },
        {
          "name": "account",
          "type": "address",
          "internalType": "address"
        }
      ],
      "outputs": [
        {
          "name": "",
          "type": "bool",
          "internalType": "bool"
        }
      ],
      "stateMutability": "view"
    },
    {
      "type": "function",
      "name": "lastBatchOperation",
      "inputs": [
        {
          "name": "",
          "type": "address",
          "internalType": "address"
        }
      ],
      "outputs": [
        {
          "name": "",
          "type": "uint256",
          "internalType": "uint256"
        }
      ],
      "stateMutability": "view"
    },
    {
      "type": "function",
      "name": "markDelivered",
      "inputs": [
        {
          "name": "_escrowId",
          "type": "uint256",
          "internalType": "uint256"
        }
      ],
      "outputs": [],
      "stateMutability": "nonpayable"
    },
    {
      "type": "function",
      "name": "multiSigThreshold",
      "inputs": [],
      "outputs": [
        {
          "name": "",
          "type": "uint256",
          "internalType": "uint256"
        }
      ],
      "stateMutability": "view"
    },
    {
      "type": "function",
      "name": "nextEscrowId",
      "inputs": [],
      "outputs": [
        {
          "name": "",
          "type": "uint256",
          "internalType": "uint256"
        }
      ],
      "stateMutability": "view"
    },
    {
      "type": "function",
      "name": "pause",
      "inputs": [],
      "outputs": [],
      "stateMutability": "nonpayable"
    },
    {
      "type": "function",
      "name": "paused",
      "inputs": [],
      "outputs": [
        {
          "name": "",
          "type": "bool",
          "internalType": "bool"
        }
      ],
      "stateMutability": "view"
    },
    {
      "type": "function",
      "name": "raiseDispute",
      "inputs": [
        {
          "name": "_escrowId",
          "type": "uint256",
          "internalType": "uint256"
        },
        {
          "name": "_reason",
          "type": "string",
          "internalType": "string"
        }
      ],
      "outputs": [],
      "stateMutability": "nonpayable"
    },
    {
      "type": "function",
      "name": "renounceRole",
      "inputs": [
        {
          "name": "role",
          "type": "bytes32",
          "internalType": "bytes32"
        },
        {
          "name": "callerConfirmation",
          "type": "address",
          "internalType": "address"
        }
      ],
      "outputs": [],
      "stateMutability": "nonpayable"
    },
    {
      "type": "function",
      "name": "resolutionDetails",
      "inputs": [
        {
          "name": "",
          "type": "uint256",
          "internalType": "uint256"
        }
      ],
      "outputs": [
        {
          "name": "",
          "type": "string",
          "internalType": "string"
        }
      ],
      "stateMutability": "view"
    },
    {
      "type": "function",
      "name": "resolveDispute",
      "inputs": [
        {
          "name": "_escrowId",
          "type": "uint256",
          "internalType": "uint256"
        },
        {
          "name": "_refundToBuyer",
          "type": "bool",
          "internalType": "bool"
        },
        {
          "name": "_resolution",
          "type": "string",
          "internalType": "string"
        }
      ],
      "outputs": [],
      "stateMutability": "nonpayable"
    },
    {
      "type": "function",
      "name": "revokeRole",
      "inputs": [
        {
          "name": "role",
          "type": "bytes32",
          "internalType": "bytes32"
        },
        {
          "name": "account",
          "type": "address",
          "internalType": "address"
        }
      ],
      "outputs": [],
      "stateMutability": "nonpayable"
    },
    {
      "type": "function",
      "name": "setEscrowTemplate",
      "inputs": [
        {
          "name": "_templateId",
          "type": "string",
          "internalType": "string"
        },
        {
          "name": "_disputeWindow",
          "type": "uint256",
          "internalType": "uint256"
        },
        {
          "name": "_feePercentage",
          "type": "uint256",
          "internalType": "uint256"
        },
        {
          "name": "_requiresMultiSig",
          "type": "bool",
          "internalType": "bool"
        },
        {
          "name": "_approvalsRequired",
          "type": "uint256",
          "internalType": "uint256"
        }
      ],
      "outputs": [],
      "stateMutability": "nonpayable"
    },
    {
      "type": "function",
      "name": "setSubscriptionManager",
      "inputs": [
        {
          "name": "_subscriptionManager",
          "type": "address",
          "internalType": "address"
        }
      ],
      "outputs": [],
      "stateMutability": "nonpayable"
    },
    {
      "type": "function",
      "name": "subscriptionManager",
      "inputs": [],
      "outputs": [
        {
          "name": "",
          "type": "address",
          "internalType": "contract ISubscriptionManager"
        }
      ],
      "stateMutability": "view"
    },
    {
      "type": "function",
      "name": "supportsInterface",
      "inputs": [
        {
          "name": "interfaceId",
          "type": "bytes4",
          "internalType": "bytes4"
        }
      ],
      "outputs": [
        {
          "name": "",
          "type": "bool",
          "internalType": "bool"
        }
      ],
      "stateMutability": "view"
    },
    {
      "type": "function",
      "name": "templates",
      "inputs": [
        {
          "name": "",
          "type": "string",
          "internalType": "string"
        }
      ],
      "outputs": [
        {
          "name": "disputeWindow",
          "type": "uint256",
          "internalType": "uint256"
        },
        {
          "name": "feePercentage",
          "type": "uint256",
          "internalType": "uint256"
        },
        {
          "name": "requiresMultiSig",
          "type": "bool",
          "internalType": "bool"
        },
        {
          "name": "approvalsRequired",
          "type": "uint256",
          "internalType": "uint256"
        },
        {
          "name": "exists",
          "type": "bool",
          "internalType": "bool"
        }
      ],
      "stateMutability": "view"
    },
    {
      "type": "function",
      "name": "totalFeesCollected",
      "inputs": [],
      "outputs": [
        {
          "name": "",
          "type": "uint256",
          "internalType": "uint256"
        }
      ],
      "stateMutability": "view"
    },
    {
      "type": "function",
      "name": "unpause",
      "inputs": [],
      "outputs": [],
      "stateMutability": "nonpayable"
    },
    {
      "type": "function",
      "name": "updateDefaultDisputeWindow",
      "inputs": [
        {
          "name": "_newWindow",
          "type": "uint256",
          "internalType": "uint256"
        }
      ],
      "outputs": [],
      "stateMutability": "nonpayable"
    },
    {
      "type": "function",
      "name": "updateFeeRecipient",
      "inputs": [
        {
          "name": "_newRecipient",
          "type": "address",
          "internalType": "address"
        }
      ],
      "outputs": [],
      "stateMutability": "nonpayable"
    },
    {
      "type": "function",
      "name": "userActiveEscrowCount",
      "inputs": [
        {
          "name": "",
          "type": "address",
          "internalType": "address"
        }
      ],
      "outputs": [
        {
          "name": "",
          "type": "uint256",
          "internalType": "uint256"
        }
      ],
      "stateMutability": "view"
    },
    {
      "type": "function",
      "name": "userEscrows",
      "inputs": [
        {
          "name": "",
          "type": "address",
          "internalType": "address"
        },
        {
          "name": "",
          "type": "uint256",
          "internalType": "uint256"
        }
      ],
      "outputs": [
        {
          "name": "",
          "type": "uint256",
          "internalType": "uint256"
        }
      ],
      "stateMutability": "view"
    },
    {
      "type": "function",
      "name": "withdrawFees",
      "inputs": [],
      "outputs": [],
      "stateMutability": "nonpayable"
    },
    {
      "type": "event",
      "name": "DeliveryConfirmed",
      "inputs": [
        {
          "name": "escrowId",
          "type": "uint256",
          "indexed": true,
          "internalType": "uint256"
        },
        {
          "name": "buyer",
          "type": "address",
          "indexed": true,
          "internalType": "address"
        },
        {
          "name": "timestamp",
          "type": "uint256",
          "indexed": false,
          "internalType": "uint256"
        }
      ],
      "anonymous": false
    },
    {
      "type": "event",
      "name": "DeliveryMarked",
      "inputs": [
        {
          "name": "escrowId",
          "type": "uint256",
          "indexed": true,
          "internalType": "uint256"
        },
        {
          "name": "seller",
          "type": "address",
          "indexed": true,
          "internalType": "address"
        },
        {
          "name": "timestamp",
          "type": "uint256",
          "indexed": false,
          "internalType": "uint256"
        }
      ],
      "anonymous": false
    },
    {
      "type": "event",
      "name": "DisputeRaised",
      "inputs": [
        {
          "name": "escrowId",
          "type": "uint256",
          "indexed": true,
          "internalType": "uint256"
        },
        {
          "name": "disputer",
          "type": "address",
          "indexed": true,
          "internalType": "address"
        },
        {
          "name": "reason",
          "type": "string",
          "indexed": false,
          "internalType": "string"
        },
        {
          "name": "timestamp",
          "type": "uint256",
          "indexed": false,
          "internalType": "uint256"
        }
      ],
      "anonymous": false
    },
    {
      "type": "event",
      "name": "DisputeResolved",
      "inputs": [
        {
          "name": "escrowId",
          "type": "uint256",
          "indexed": true,
          "internalType": "uint256"
        },
        {
          "name": "arbitrator",
          "type": "address",
          "indexed": true,
          "internalType": "address"
        },
        {
          "name": "refunded",
          "type": "bool",
          "indexed": false,
          "internalType": "bool"
        },
        {
          "name": "resolution",
          "type": "string",
          "indexed": false,
          "internalType": "string"
        },
        {
          "name": "timestamp",
          "type": "uint256",
          "indexed": false,
          "internalType": "uint256"
        }
      ],
      "anonymous": false
    },
    {
      "type": "event",
      "name": "DisputeWindowUpdated",
      "inputs": [
        {
          "name": "oldWindow",
          "type": "uint256",
          "indexed": false,
          "internalType": "uint256"
        },
        {
          "name": "newWindow",
          "type": "uint256",
          "indexed": false,
          "internalType": "uint256"
        }
      ],
      "anonymous": false
    },
    {
      "type": "event",
      "name": "EscrowCancelled",
      "inputs": [
        {
          "name": "escrowId",
          "type": "uint256",
          "indexed": true,
          "internalType": "uint256"
        },
        {
          "name": "timestamp",
          "type": "uint256",
          "indexed": false,
          "internalType": "uint256"
        }
      ],
      "anonymous": false
    },
    {
      "type": "event",
      "name": "EscrowCompleted",
      "inputs": [
        {
          "name": "escrowId",
          "type": "uint256",
          "indexed": true,
          "internalType": "uint256"
        },
        {
          "name": "seller",
          "type": "address",
          "indexed": true,
          "internalType": "address"
        },
        {
          "name": "amount",
          "type": "uint256",
          "indexed": false,
          "internalType": "uint256"
        },
        {
          "name": "fee",
          "type": "uint256",
          "indexed": false,
          "internalType": "uint256"
        },
        {
          "name": "timestamp",
          "type": "uint256",
          "indexed": false,
          "internalType": "uint256"
        }
      ],
      "anonymous": false
    },
    {
      "type": "event",
      "name": "EscrowCreated",
      "inputs": [
        {
          "name": "escrowId",
          "type": "uint256",
          "indexed": true,
          "internalType": "uint256"
        },
        {
          "name": "buyer",
          "type": "address",
          "indexed": true,
          "internalType": "address"
        },
        {
          "name": "seller",
          "type": "address",
          "indexed": true,
          "internalType": "address"
        },
        {
          "name": "amount",
          "type": "uint256",
          "indexed": false,
          "internalType": "uint256"
        },
        {
          "name": "fee",
          "type": "uint256",
          "indexed": false,
          "internalType": "uint256"
        }
      ],
      "anonymous": false
    },
    {
      "type": "event",
      "name": "EscrowFunded",
      "inputs": [
        {
          "name": "escrowId",
          "type": "uint256",
          "indexed": true,
          "internalType": "uint256"
        },
        {
          "name": "buyer",
          "type": "address",
          "indexed": true,
          "internalType": "address"
        },
        {
          "name": "amount",
          "type": "uint256",
          "indexed": false,
          "internalType": "uint256"
        },
        {
          "name": "timestamp",
          "type": "uint256",
          "indexed": false,
          "internalType": "uint256"
        }
      ],
      "anonymous": false
    },
    {
      "type": "event",
      "name": "EscrowRefunded",
      "inputs": [
        {
          "name": "escrowId",
          "type": "uint256",
          "indexed": true,
          "internalType": "uint256"
        },
        {
          "name": "buyer",
          "type": "address",
          "indexed": true,
          "internalType": "address"
        },
        {
          "name": "amount",
          "type": "uint256",
          "indexed": false,
          "internalType": "uint256"
        },
        {
          "name": "timestamp",
          "type": "uint256",
          "indexed": false,
          "internalType": "uint256"
        }
      ],
      "anonymous": false
    },
    {
      "type": "event",
      "name": "FeeRecipientUpdated",
      "inputs": [
        {
          "name": "oldRecipient",
          "type": "address",
          "indexed": false,
          "internalType": "address"
        },
        {
          "name": "newRecipient",
          "type": "address",
          "indexed": false,
          "internalType": "address"
        }
      ],
      "anonymous": false
    },
    {
      "type": "event",
      "name": "FeeUpdated",
      "inputs": [
        {
          "name": "oldFee",
          "type": "uint256",
          "indexed": false,
          "internalType": "uint256"
        },
        {
          "name": "newFee",
          "type": "uint256",
          "indexed": false,
          "internalType": "uint256"
        }
      ],
      "anonymous": false
    },
    {
      "type": "event",
      "name": "Paused",
      "inputs": [
        {
          "name": "account",
          "type": "address",
          "indexed": false,
          "internalType": "address"
        }
      ],
      "anonymous": false
    },
    {
      "type": "event",
      "name": "RoleAdminChanged",
      "inputs": [
        {
          "name": "role",
          "type": "bytes32",
          "indexed": true,
          "internalType": "bytes32"
        },
        {
          "name": "previousAdminRole",
          "type": "bytes32",
          "indexed": true,
          "internalType": "bytes32"
        },
        {
          "name": "newAdminRole",
          "type": "bytes32",
          "indexed": true,
          "internalType": "bytes32"
        }
      ],
      "anonymous": false
    },
    {
      "type": "event",
      "name": "RoleGranted",
      "inputs": [
        {
          "name": "role",
          "type": "bytes32",
          "indexed": true,
          "internalType": "bytes32"
        },
        {
          "name": "account",
          "type": "address",
          "indexed": true,
          "internalType": "address"
        },
        {
          "name": "sender",
          "type": "address",
          "indexed": true,
          "internalType": "address"
        }
      ],
      "anonymous": false
    },
    {
      "type": "event",
      "name": "RoleRevoked",
      "inputs": [
        {
          "name": "role",
          "type": "bytes32",
          "indexed": true,
          "internalType": "bytes32"
        },
        {
          "name": "account",
          "type": "address",
          "indexed": true,
          "internalType": "address"
        },
        {
          "name": "sender",
          "type": "address",
          "indexed": true,
          "internalType": "address"
        }
      ],
      "anonymous": false
    },
    {
      "type": "event",
      "name": "Unpaused",
      "inputs": [
        {
          "name": "account",
          "type": "address",
          "indexed": false,
          "internalType": "address"
        }
      ],
      "anonymous": false
    },
    {
      "type": "error",
      "name": "AccessControlBadConfirmation",
      "inputs": []
    },
    {
      "type": "error",
      "name": "AccessControlUnauthorizedAccount",
      "inputs": [
        {
          "name": "account",
          "type": "address",
          "internalType": "address"
        },
        {
          "name": "neededRole",
          "type": "bytes32",
          "internalType": "bytes32"
        }
      ]
    },
    {
      "type": "error",
      "name": "EnforcedPause",
      "inputs": []
    },
    {
      "type": "error",
      "name": "EscrowNotFound",
      "inputs": []
    },
    {
      "type": "error",
      "name": "ExpectedPause",
      "inputs": []
    },
    {
      "type": "error",
      "name": "IncorrectPaymentAmount",
      "inputs": [
        {
          "name": "received",
          "type": "uint256",
          "internalType": "uint256"
        },
        {
          "name": "expected",
          "type": "uint256",
          "internalType": "uint256"
        }
      ]
    },
    {
      "type": "error",
      "name": "InvalidStatus",
      "inputs": [
        {
          "name": "current",
          "type": "uint8",
          "internalType": "enum EscrowCore.Status"
        },
        {
          "name": "expected",
          "type": "uint8",
          "internalType": "enum EscrowCore.Status"
        }
      ]
    },
    {
      "type": "error",
      "name": "ReentrancyGuardReentrantCall",
      "inputs": []
    },
    {
      "type": "error",
      "name": "TransferFailed",
      "inputs": []
    },
    {
      "type": "error",
      "name": "Unauthorized",
      "inputs": []
    }
  ],
  "bytecode": {
    "object": "0x6080346100f957601f613fbe38819003918201601f19168301916001600160401b038311848410176100fe578084926020946040528339810103126100f957516001600160a01b038116908190036100f9576001805562093a80600455678ac7230489e80000600855600260095580156100b45761007c33610114565b5061008633610192565b5061009033610232565b50600580546001600160a01b031916919091179055604051613cd090816102ce8239f35b60405162461bcd60e51b815260206004820152601560248201527f496e76616c69642066656520726563697069656e7400000000000000000000006044820152606490fd5b600080fd5b634e487b7160e01b600052604160045260246000fd5b6001600160a01b031660008181527fad3228b676f7d3cd4284a5443f17f1962b36e491b30a40b2405849e597ba5fb5602052604081205490919060ff1661018e57818052816020526040822081835260205260408220600160ff198254161790553391600080516020613f9e8339815191528180a4600190565b5090565b6001600160a01b031660008181527f7d7ffb7a348e1c6a02869081a26547b49160dd3df72d1d75a570eb9b698292ec60205260408120549091907fa49807205ce4d355092ef5a8a18f56e8913cf4a201fbe287825b095693c217759060ff1661022d57808352826020526040832082845260205260408320600160ff19825416179055600080516020613f9e833981519152339380a4600190565b505090565b6001600160a01b031660008181527f124a13b16867194fc8fe1b97be0d668b89ac2a8dd77d418cf4feefa89864a62660205260408120549091907f16ceee8289685dd2a02b9c8ae81d2df373176ce53519e6284e2a2950d6546ffa9060ff1661022d57808352826020526040832082845260205260408320600160ff19825416179055600080516020613f9e833981519152339380a460019056fe6080604052600436101561001b575b361561001957600080fd5b005b60003560e01c8063012f52ee14612fac57806301ffc9a714612f5657806303e8803314612df057806303fce7ef14612b905780630707950d14612ae65780630e681582146126a3578063248a9ca3146126745780632840662d146122655780632eb52425146122395780632f2ff15d146121fa578063344f8ead146121dc57806336568abe1461219557806339f5687e14611bd05780633f4ba83a14611b6657806340806f7c14611b4a578063459b860e14611a2157806346904840146119f8578063476343ee146119315780634937a943146119135780634badfeb2146118f55780635aef573c1461161d5780635c975abb146115fa5780635ccea85e1461156f57806360c6d8ae1461155157806361b895581461151157806367b792e6146114d7578063683f31d314610ec95780636f346d8c14610e8f57806375b238fc14610e545780637f944dd014610dfc5780638456cb5914610da2578063891b64f814610d7c57806389cb29dd14610d5e57806391d1485414610d115780639cea078714610cd6578063a1ae6ee614610c9c578063a217fddf14610c80578063acff2b0914610b78578063b22beeda14610ae5578063b996ec2a14610a29578063bf158fd214610a00578063c05b358514610981578063c9c31af5146108d8578063d547741f14610899578063d59553f3146107bd578063e018243614610657578063e1f1c4a71461063a578063ea89735d146105c4578063eb826a5f14610498578063f160d369146103e4578063f877eb7b146103a45763fd84cb970361000e573461039f57602036600319011261039f57600435610278613850565b610280613b84565b61028d60035482106133f9565b80600052600b6020526102ae60018060a01b03604060002054163314613587565b80600052600b60205260046040600020019081549160ff83166008811015610389576001811490811561037e575b50156103275760036103219360ff1916179055604051428152817f2f4a952729db32131cb3d658cc231127e0ce7e50f83508ece9a49c985f2384d060203393a361386e565b60018055005b60405162461bcd60e51b815260206004820152602960248201527f43616e6e6f7420636f6e6669726d2064656c697665727920696e2063757272656044820152686e742073746174757360b81b6064820152608490fd5b6002915014386102dc565b634e487b7160e01b600052602160045260246000fd5b600080fd5b3461039f57604036600319011261039f576103da6103c66024356004356135c9565b604051928392604084526040840190613397565b9060208301520390f35b3461039f57602036600319011261039f576103fd613284565b6104056137b0565b6001600160a01b03908116801561045f577faaebcf1bfa00580e41d966056b48521fa9f202645c86d4ddf28113e617c1b1d39160409160055491816001600160601b0360a01b8416176005558351921682526020820152a1005b60405162461bcd60e51b8152602060048201526011602482015270125b9d985b1a59081c9958da5c1a595b9d607a1b6044820152606490fd5b3461039f5760208060031936011261039f576004356104b5613850565b6104c260035482106133f9565b6000818152600b835260409020600101546001600160a01b031633036105885780600052600b825260ff6004604060002001541660088110156103895760010361054e5780600052600b82526004604060002001600260ff198254161790557f96d3617eedfa38bef0914b606c12b01c032b221400a07de823fe563575ef0381604051924284523393a3005b90600b9160005252604460ff6004604060002001541661057f6040519163f924664d60e01b835260048301906131cd565b60016024820152fd5b60405162461bcd60e51b815260048101839052601460248201527313db9b1e481cd95b1b195c8818d85b8818d85b1b60621b6044820152606490fd5b3461039f57602036600319011261039f576004356105e560035482106133f9565b600052600e6020526106286040600020600f60205261063661061461060e604060002093613128565b92613128565b6040519384936040855260408501906131fd565b9083820360208501526131fd565b0390f35b3461039f57600036600319011261039f5760206040516127108152f35b3461039f5760208060031936011261039f5760043590610675613850565b61068260035483106133f9565b81600052600b815260406000206106b060018060a01b0391828082541633149182156107ac575b505061353b565b82600052600b825260ff6004604060002001541660088110156103895761077257907fdc48a08bb890bd1b8e4261212a97a5e711e80830d96ba56b362f3ac5f427d51e9183600052600b82526001604060002060048101600660ff1982541617905582815416600052600d84526040600020805480610760575b5050015416600052600d8152604060002080548061074e575b5050604051428152a2005b610757906134b8565b90558380610743565b610769906134b8565b9055868061072a565b50600b9160005252604460ff600460406000200154166107a36040519163f924664d60e01b835260048301906131cd565b60006024820152fd5b6001919250015416331482866106a9565b3461039f57600036600319011261039f576003546000805b82811061085757506107e6906134f5565b60009160005b818110610809576040516020808252819061063690820186613397565b80600052600b60205260ff60046040600020015416600881101561038957600414610837575b6001016107ec565b9261084f818561084960019487613527565b5261343d565b93905061082f565b80600052600b60205260ff60046040600020015416600881101561038957600414610885575b6001016107d5565b9061089160019161343d565b91905061087d565b3461039f57604036600319011261039f576100196004356108b861329a565b908060005260006020526108d360016040600020015461382a565b613c25565b602036600319011261039f576004356108ef613850565b6108f7613b84565b61090460035482106133f9565b80600052600b60205261092560018060a01b03604060002054163314613587565b80600052600b60205260ff600460406000200154166008811015610389576109505761032190613b07565b600052600b602052604460ff600460406000200154166107a36040519163f924664d60e01b835260048301906131cd565b3461039f57602036600319011261039f5761099a613284565b6109a26137b0565b6001600160a01b031680156109c9576001600160601b0360a01b6007541617600755600080f35b60405162461bcd60e51b815260206004820152600f60248201526e496e76616c6964206164647265737360881b6044820152606490fd5b3461039f57600036600319011261039f576007546040516001600160a01b039091168152602090f35b3461039f57602036600319011261039f57600435610a4a60035482106133f9565b600052600b602052604060002060018060a01b039061063682825416926001830154169160028101549360038201549160ff6004820154166005820154610ac7600684015492610aa1600960078701549601613128565b966040519a8b9a610120988c5260208c015260408b015260608a015260808901906131cd565b60a087015260c086015260e0850152806101008501528301906131fd565b3461039f57602036600319011261039f576004356001600160401b03811161039f57610b2f6020610b1c60a093369060040161323d565b81604051938285809451938492016131da565b8101600a81520301902080549060018101549060ff60028201541660ff600460038401549301541692604051948552602085015215156040840152606083015215156080820152f35b3461039f57600036600319011261039f57600354600090818080805b848110610bce57509060e0949291600654924794604051968752602087015260408601526060850152608084015260a083015260c0820152f35b80600052600b602052604060002060ff6004820154166008811015978861038957600182148015610c72575b15610c3857610c089061343d565b975b61038957600603610c1f575b50600101610b94565b600191936002610c319201549061345f565b9290610c16565b9795866103895760078203610c5657610c509061343d565b95610c0a565b9550600060048203610c0a5793610c6c9061343d565b93610c0a565b506000985060028214610bfa565b3461039f57600036600319011261039f57602060405160008152f35b3461039f57604036600319011261039f576020612710610ccd610cc5610cc0613284565b613a35565b60243561344c565b04604051908152f35b3461039f57600036600319011261039f5760206040517f16ceee8289685dd2a02b9c8ae81d2df373176ce53519e6284e2a2950d6546ffa8152f35b3461039f57604036600319011261039f57610d2a61329a565b600435600052600060205260406000209060018060a01b0316600052602052602060ff604060002054166040519015158152f35b3461039f57600036600319011261039f576020600354604051908152f35b3461039f57602036600319011261039f576020610d9a610cc0613284565b604051908152f35b3461039f57600036600319011261039f57610dbb6137b0565b610dc3613850565b600160ff1960025416176002557f62e78cea01bee320cd4e420270b5ea74000d11b0c9f74754ebdbfc544b05a2586020604051338152a1005b3461039f57604036600319011261039f57610e15613284565b6001600160a01b03166000908152600c602052604090208054602435919082101561039f57602091610e46916133cb565b90546040519160031b1c8152f35b3461039f57600036600319011261039f5760206040517fa49807205ce4d355092ef5a8a18f56e8913cf4a201fbe287825b095693c217758152f35b3461039f57602036600319011261039f576001600160a01b03610eb0613284565b16600052600d6020526020604060002054604051908152f35b608036600319011261039f57610edd613284565b604435906064356001600160401b03811161039f57610f0090369060040161323d565b90610f09613850565b60405190610f16826130ec565b60008252604051610f26816130ec565b60008152610f32613850565b846001600160a01b03831615611499576001600160a01b0383163314611448576024351561140357610f6333613a35565b91805180151590816113d5575b50611347575b5050610f876127109160243561344c565b0491610f958360243561345f565b34611321575b5060035493610fa98561343d565b60039081556000868152600b6020526040902080546001600160a01b0319908116331782556001820180549091166001600160a01b038716179055602435600282015590810185905560048101805460ff19169055426005820155958015611318575b60078701558051906001600160401b0382116112295781906110316009890154613097565b601f81116112d8575b50602090601f83116001146112665760009261125b575b50508160011b916000199060031b1c19161760098601555b46600a86015560085460243510801590611251575b611151575b506020935033600052600c845261109e836040600020613483565b60018060a01b038116600052600c84526110bc836040600020613483565b33600052600d845260406000206110d3815461343d565b90556001600160a01b0381166000908152600d85526040902080546110f79061343d565b90556040519160243583528483015260018060a01b031690827f59e4b8728799382406714f1c57de5c893d2772f9a8bf9950c5afe4397e64865460403393a43461114357604051908152f35b61114c81613b07565b610d9a565b8051801561123f57600b86016001600160401b03821161122957600160401b821161122957805482825580831061120b575b506020830190600052602060002060005b8381106111ee575050505051600181116000146111e05760011c93600185018095116111ca57600c602095915b01555b84611083565b634e487b7160e01b600052601160045260246000fd5b50602093600c6001916111c1565b82516001600160a01b031681830155602090920191600101611194565b6112239082600052836020600020918201910161346c565b87611183565b634e487b7160e01b600052604160045260246000fd5b5050602093600c6009549101556111c4565b508051151561107e565b015190508780611051565b9250600988016000526020600020906000935b601f19841685106112bd576001945083601f198116106112a4575b505050811b016009860155611069565b015160001960f88460031b161c19169055878080611294565b81810151835560209485019460019093019290910190611279565b6113089060098a016000526020600020601f850160051c8101916020861061130e575b601f0160051c019061346c565b8861103a565b90915081906112fb565b5060045461100c565b348114610f9b575b604490604051906311ebdab360e21b82523460048301526024820152fd5b60206113609181604051938285809451938492016131da565b8101600a8152030190209060405191611378836130d1565b805492838152608060ff60046001850154948560208601528260028201541615156040860152600381015460608601520154161515910152806113cd575b50156113c3575b80610f76565b9450610f876113bd565b9250876113b6565b60ff91506004906020604051826113f0829483858a016131da565b8101600a81520301902001541688610f70565b60405162461bcd60e51b815260206004820152601d60248201527f416d6f756e74206d7573742062652067726561746572207468616e20300000006044820152606490fd5b60405162461bcd60e51b815260206004820152602360248201527f427579657220616e642073656c6c65722063616e6e6f74206265207468652073604482015262616d6560e81b6064820152608490fd5b60405162461bcd60e51b8152602060048201526016602482015275496e76616c69642073656c6c6572206164647265737360501b6044820152606490fd5b3461039f57602036600319011261039f576001600160a01b036114f8613284565b1660005260106020526020604060002054604051908152f35b3461039f57602036600319011261039f57600435600052600f60205261063661153d6040600020613128565b6040519182916020835260208301906131fd565b3461039f57600036600319011261039f576020600654604051908152f35b3461039f5760208060031936011261039f576001600160a01b03611591613284565b16600052600c8152604060002090604051808383829554938481520190600052836000209260005b858282106115e4575050506115d092500383613107565b610636604051928284938452830190613397565b85548452600195860195889550930192016115b9565b3461039f57600036600319011261039f57602060ff600254166040519015158152f35b3461039f57604036600319011261039f576004356001600160401b0360243581811161039f5761165190369060040161323d565b9161165a613850565b61166760035482106133f9565b80600052602092600b8452611695604060002060018060a01b038082541633149182156118e457505061353b565b81600052600b8452604060002060048101805460ff811692600884101561038957600193600181149081156118d9575b50156118965780600760066116df9301549101549061345f565b42116118515760049060ff191617905582600052600e85526040600020908251948511611229576117108254613097565b601f8111611821575b508590601f8611600114611797575093807f9d956e00a78b28b7f3b6b25c60a4729355093de02cac8715ceb237725c0f5820949560009161178c575b508160011b916000199060031b1c19161790555b61177e604051916040835260408301906131fd565b9342908201528033940390a3005b905083015187611755565b90601f1986168360005287600020926000905b89838310611809575050509186917f9d956e00a78b28b7f3b6b25c60a4729355093de02cac8715ceb237725c0f58209697600194106117f0575b5050811b019055611769565b85015160001960f88460031b161c1916905587806117e4565b878501518655948101949384019391909101906117aa565b61184b908360005287600020601f880160051c81019189891061130e57601f0160051c019061346c565b86611719565b60405162461bcd60e51b815260048101889052601a60248201527f446973707574652077696e646f772068617320657870697265640000000000006044820152606490fd5b6064886040519062461bcd60e51b825280600483015260248201527f43616e6e6f74206469737075746520696e2063757272656e74207374617475736044820152fd5b6002915014896116c5565b6001919250015416331486806106a9565b3461039f57600036600319011261039f576020600854604051908152f35b3461039f57600036600319011261039f576020600454604051908152f35b3461039f57600036600319011261039f5761194a6137b0565b611952613b84565b4780156119bd576005546000918291829182916001600160a01b03165af16119786134c5565b50156119845760018055005b60405162461bcd60e51b815260206004820152601160248201527015da5d1a191c985dd85b0819985a5b1959607a1b6044820152606490fd5b60405162461bcd60e51b81526020600482015260136024820152724e6f206665657320746f20776974686472617760681b6044820152606490fd5b3461039f57600036600319011261039f576005546040516001600160a01b039091168152602090f35b3461039f57602036600319011261039f57600435611a3d613850565b611a45613b84565b611a5260035482106133f9565b80600052600b602052604060002060ff60048201541660088110156103895760018114908115611b3f575b5015611aec578060076006611a979301549101549061345f565b421115611aa7576103219061386e565b60405162461bcd60e51b815260206004820152601e60248201527f446973707574652077696e646f7720686173206e6f74206578706972656400006044820152606490fd5b60405162461bcd60e51b815260206004820152602560248201527f43616e6e6f74206175746f2d72656c6561736520696e2063757272656e742073604482015264746174757360d81b6064820152608490fd5b600291501483611a7d565b3461039f57600036600319011261039f57602047604051908152f35b3461039f57600036600319011261039f57611b7f6137b0565b60025460ff811615611bbe5760ff19166002557f5db9ee0a495bf2e6ff9c91a7834c1ba4fdd244a5e8aa4e537bd38aeae4b073aa6020604051338152a1005b604051638dfc202b60e01b8152600490fd5b608036600319011261039f576004356001600160401b03811161039f57611bfb9036906004016132c7565b6024356001600160401b03811161039f57611c1a903690600401613337565b906044356001600160401b03811161039f57611c3a903690600401613337565b606435906001600160401b03821161039f573660238301121561039f578160040135611c65816132b0565b92611c736040519485613107565b8184526024602085019260051b8201019036821161039f5760248101925b8284106121665750505050611ca4613850565b825184518114908161215b575b81612150575b501561211257600a8351116120cd57611cd083516134f5565b906000926000935b8551851015611d2957611d21600191611d1b612710611d0a8b611d048b611cfe33613a35565b92613527565b5161344c565b04611d15898c613527565b5161345f565b9061345f565b940193611cd8565b86945085903403612088579291906000935b80518510156120605760035494611d518661343d565b600355612710611d6d611d6333613a35565b611d04848b613527565b6000888152600b6020526040902080546001600160a01b03191633178155979190046001600160a01b03611da18486613527565b511660018901906001600160601b0360a01b825416179055611dc3838a613527565b51600289015580600389015560048801600160ff19825416179055426005890155426006890155611df48387613527565b511561205857611e048387613527565b515b6007890155611e158386613527565b519788516001600160401b03811161122957611e346009830154613097565b601f8111612023575b50602099601f8211600114611fac576001969798999a8291600092611fa1575b5050600019600383901b1c191690861b1760098201555b600a4691015533600052600c80602052611e92836040600020613483565b848060a01b03611ea28588613527565b5116600052602052611eb8826040600020613483565b33600052600d806020526040600020611ed1815461343d565b9055848060a01b03611ee38588613527565b51166000526020526040600020611efa815461343d565b905581611f07848a613527565b52838060a01b03611f188487613527565b511690611f25848b613527565b51906040519182526020820152827f59e4b8728799382406714f1c57de5c893d2772f9a8bf9950c5afe4397e64865460403393a4611f638289613527565b51906040519182524260208301527fbc6351b0e2a6a3f646e25885e97f2d7aef98ed917cad825bbcbc26d30bd1f0fb60403393a30193929190611d3b565b015190508c80611e5d565b90996009830160005260206000209160005b601f198d16811061200b5750918b91600198999a9b9c938994601f19811610611ff2575b505050811b016009820155611e74565b015160001960f88460031b161c191690558c8080611fe2565b81830151845560019093019260209283019201611fbe565b61205290600984016000526020600020601f840160051c8101916020851061130e57601f0160051c019061346c565b8b611e3d565b600454611e06565b6106368433600052601060205242604060002055604051918291602083526020830190613397565b60405162461bcd60e51b815260206004820152601760248201527f496e636f727265637420746f74616c207061796d656e740000000000000000006044820152606490fd5b60405162461bcd60e51b815260206004820152601860248201527f4d617820313020657363726f77732070657220626174636800000000000000006044820152606490fd5b60405162461bcd60e51b8152602060048201526016602482015275082e4e4c2f240d8cadccee8d0e640dad2e6dac2e8c6d60531b6044820152606490fd5b905082511485611cb7565b825181149150611cb1565b83356001600160401b03811161039f5760209161218a83926024369187010161323d565b815201930192611c91565b3461039f57604036600319011261039f576121ae61329a565b336001600160a01b038216036121ca5761001990600435613c25565b60405163334bd91960e11b8152600490fd5b3461039f57600036600319011261039f576020600954604051908152f35b3461039f57604036600319011261039f5761001960043561221961329a565b9080600052600060205261223460016040600020015461382a565b613ba7565b3461039f57602036600319011261039f57600435600052600e60205261063661153d6040600020613128565b3461039f57606036600319011261039f5760248035801515916004359183810361039f576001600160401b039160443583811161039f576122aa90369060040161323d565b926122b3613850565b6122bb613b84565b6122c860035486106133f9565b3360009081527f124a13b16867194fc8fe1b97be0d668b89ac2a8dd77d418cf4feefa89864a62660209081526040909120549093907f16ceee8289685dd2a02b9c8ae81d2df373176ce53519e6284e2a2950d6546ffa9060ff1615612657575085600052600b845260ff6004604060002001541660088110156126425760040361260a5785600052600b8452604060002091600f855260406000209086519081116125f5576123778254613097565b601f81116125c5575b508086601f821160011461256157600091612556575b508160011b916000199060031b1c19161790555b156125105760048101600560ff1982541617905560018060a01b039081815416600052600d845260406000208054806124fe575b505081600182015416600052600d845260406000208054806124ec575b5050612410600282015460038301549061345f565b92600080808087878754165af16124256134c5565b50156124b05750927fcbaa929044d8cd35693529ba03a7800560ad8709121bf60076b0956a1e0d84d99492867fa6dc039ff751ad9725f7237e080b41d06166a7be987e9564cc289645ee7b7ede604060609561249d9854169381519081524286820152a35b60405196875286015260608501906131fd565b924260408201528033940390a360018055005b8460166064926040519262461bcd60e51b84526004840152820152751499599d5b99081d1c985b9cd9995c8819985a5b195960521b6044820152fd5b6124f5906134b8565b905587806123fb565b612507906134b8565b905587806123de565b600401805460ff19166007179055507fcbaa929044d8cd35693529ba03a7800560ad8709121bf60076b0956a1e0d84d99161249d916060906125518661386e565b61248a565b90508701518a612396565b60008481528881209250601f198416905b898b8383106125b0575050509083600194939210612597575b5050811b0190556123aa565b89015160001960f88460031b161c191690558a8061258b565b84015185556001909401939283019201612572565b6125ef908360005287600020601f840160051c81019189851061130e57601f0160051c019061346c565b89612380565b84634e487b7160e01b60005260416004526000fd5b604483600b868960005252600460ff8160406000200154169161263d6040519363f924664d60e01b8552838501906131cd565b820152fd5b83634e487b7160e01b60005260216004526000fd5b836044916040519163e2517d3f60e01b8352336004840152820152fd5b3461039f57602036600319011261039f5760043560005260006020526020600160406000200154604051908152f35b60c036600319011261039f576126b7613284565b604435906064356001600160401b03811161039f576126da90369060040161323d565b906084356001600160401b03811161039f576126fa90369060040161323d565b9060a4356001600160401b03811161039f5761271a9036906004016132c7565b91612723613850565b846001600160a01b03831615611499576001600160a01b038316331461144857602435156114035761275433613a35565b9180518015159081612ab8575b50612a2a575b50506127786127109160243561344c565b04916127868360243561345f565b34612a05575b506003549361279a8561343d565b60039081556000868152600b6020526040902080546001600160a01b0319908116331782556001820180549091166001600160a01b038716179055602435600282015590810185905560048101805460ff191690554260058201559580156129fc575b60078701558051906001600160401b0382116112295781906128226009890154613097565b601f81116129c7575b50602090601f83116001146129555760009261294a575b50508160011b916000199060031b1c19161760098601555b46600a86015560085460243510801590612940575b61288e57506020935033600052600c845261109e836040600020613483565b8051801561123f57600b86016001600160401b03821161122957600160401b8211611229578054828255808310612922575b506020830190600052602060002060005b838110612905575050505051600181116000146111e05760011c93600185018095116111ca57600c60209591015584611083565b82516001600160a01b0316818301556020909201916001016128d1565b61293a9082600052836020600020918201910161346c565b876128c0565b508051151561286f565b015190508780612842565b9250600988016000526020600020906000935b601f19841685106129ac576001945083601f19811610612993575b505050811b01600986015561285a565b015160001960f88460031b161c19169055878080612983565b81810151835560209485019460019093019290910190612968565b6129f69060098a016000526020600020601f850160051c8101916020861061130e57601f0160051c019061346c565b8861282b565b506004546127fd565b34811461278c57604490604051906311ebdab360e21b82523460048301526024820152fd5b6020612a439181604051938285809451938492016131da565b8101600a8152030190209060405191612a5b836130d1565b805492838152608060ff6004600185015494856020860152826002820154161515604086015260038101546060860152015416151591015280612ab0575b5015612aa6575b80612767565b9450612778612aa0565b925087612a99565b60ff9150600490602060405182612ad3829483858a016131da565b8101600a81520301902001541688612761565b3461039f57602036600319011261039f57600435612b026137b0565b6201518081101580612b83575b15612b4d5760407f96e0f610d197acd2144db3bb338fe8cdc5544b8b21a40a14334068ac60e2717291600454908060045582519182526020820152a1005b60405162461bcd60e51b815260206004820152600e60248201526d496e76616c69642077696e646f7760901b6044820152606490fd5b5062278d00811115612b0f565b3461039f5760208060031936011261039f5760043590612bae613850565b600390612bbe60035484106133f9565b82600052600b8152604060002091600c830191825415612db357600e8401913360005282825260ff60406000205416612d7b57600090600090600b8701908154925b838110612d44575b50505015612ccb575b15612c875733600052526040600020600160ff19825416179055600d820190612c3a825461343d565b8092555411159081612c57575b50612c4e57005b6100199061386e565b60ff9150600401541660088110156103895760018114908115612c7c575b5082612c47565b600291501482612c75565b6064906040519062461bcd60e51b82526004820152601a60248201527f4e6f7420616e20617574686f72697a656420617070726f7665720000000000006044820152fd5b508354336001600160a01b0391821614908115612d34575b5015612cf0576001612c11565b6064906040519062461bcd60e51b82526004820152601960248201527f4e6f7420617574686f72697a656420746f20617070726f7665000000000000006044820152fd5b9050600185015416331486612ce3565b612d4e81846133cb565b905490831b1c6001600160a01b03163314612d6b57600101612c00565b5050509050600190878080612c08565b60405162461bcd60e51b815260048101839052601060248201526f105b1c9958591e48185c1c1c9bdd995960821b6044820152606490fd5b6064906040519062461bcd60e51b8252600482015260166024820152754e6f742061206d756c74692d73696720657363726f7760501b6044820152fd5b3461039f5760a036600319011261039f576004356001600160401b03811161039f57612e2090369060040161323d565b6044356064359081151580920361039f57612e396137b0565b825115612f1a576103e88111612ee65761001992600491612eca60405194612e60866130d1565b6024358652602086019283526040860190815260608601926084358452612e9e602060808901966001885281604051938285809451938492016131da565b8101600a81520301902096518755516001870155511515600286019060ff801983541691151516179055565b51600384015551151591019060ff801983541691151516179055565b60405162461bcd60e51b815260206004820152600c60248201526b08ccaca40e8dede40d0d2ced60a31b6044820152606490fd5b60405162461bcd60e51b815260206004820152601460248201527315195b5c1b185d19481251081c995c5d5a5c995960621b6044820152606490fd5b3461039f57602036600319011261039f5760043563ffffffff60e01b811680910361039f57602090637965db0b60e01b8114908115612f9b575b506040519015158152f35b6301ffc9a760e01b14905082612f90565b3461039f57602036600319011261039f57600435600052600b6020526040600020600160a01b60019003808254169060018301541690600283015492600381015490600481015460ff169260058201549060068301546007840154600885015460ff16916009860161301d90613128565b94600a87015498600c88015497600d0154986040519c8d9c8d6101a09981526020015260408d015260608c015260808b01613057916131cd565b60a08a015260c089015260e08801521515610100870152806101208701528501613080916131fd565b926101408501526101608401526101808301520390f35b90600182811c921680156130c7575b60208310146130b157565b634e487b7160e01b600052602260045260246000fd5b91607f16916130a6565b60a081019081106001600160401b0382111761122957604052565b602081019081106001600160401b0382111761122957604052565b90601f801991011681019081106001600160401b0382111761122957604052565b9060405191826000825461313b81613097565b908184526020946001916001811690816000146131ab575060011461316c575b50505061316a92500383613107565b565b600090815285812095935091905b81831061319357505061316a935082010138808061315b565b8554888401850152948501948794509183019161317a565b9250505061316a94925060ff191682840152151560051b82010138808061315b565b9060088210156103895752565b60005b8381106131ed5750506000910152565b81810151838201526020016131dd565b90602091613216815180928185528580860191016131da565b601f01601f1916010190565b6001600160401b03811161122957601f01601f191660200190565b81601f8201121561039f5780359061325482613222565b926132626040519485613107565b8284526020838301011161039f57816000926020809301838601378301015290565b600435906001600160a01b038216820361039f57565b602435906001600160a01b038216820361039f57565b6001600160401b0381116112295760051b60200190565b9080601f8301121561039f5760209082356132e1816132b0565b936132ef6040519586613107565b81855260208086019260051b82010192831161039f57602001905b828210613318575050505090565b81356001600160a01b038116810361039f57815290830190830161330a565b9080601f8301121561039f576020908235613351816132b0565b9361335f6040519586613107565b81855260208086019260051b82010192831161039f57602001905b828210613388575050505090565b8135815290830190830161337a565b90815180825260208080930193019160005b8281106133b7575050505090565b8351855293810193928101926001016133a9565b80548210156133e35760005260206000200190600090565b634e487b7160e01b600052603260045260246000fd5b1561340057565b60405162461bcd60e51b8152602060048201526015602482015274115cd8dc9bddc8191bd95cc81b9bdd08195e1a5cdd605a1b6044820152606490fd5b60001981146111ca5760010190565b818102929181159184041417156111ca57565b919082018092116111ca57565b818110613477575050565b6000815560010161346c565b8054600160401b811015611229576134a0916001820181556133cb565b819291549060031b91821b91600019901b1916179055565b80156111ca576000190190565b3d156134f0573d906134d682613222565b916134e46040519384613107565b82523d6000602084013e565b606090565b906134ff826132b0565b61350c6040519182613107565b828152809261351d601f19916132b0565b0190602036910137565b80518210156133e35760209160051b010190565b1561354257565b60405162461bcd60e51b815260206004820152601c60248201527f4f6e6c7920657363726f7720706172746965732063616e2063616c6c000000006044820152606490fd5b1561358e57565b60405162461bcd60e51b815260206004820152601360248201527213db9b1e48189d5e595c8818d85b8818d85b1b606a1b6044820152606490fd5b600092600092600354935b8481106137065750846135e7828561345f565b111561370057508184038481116111ca57935b808310156136e25761360b856134f5565b9060009260009660005b878110806136d9575b156136ce5780600052600b8060205260ff604090806004836000200154169160089283811015610389576001149384156136a7575b5050505061366a575b6136659061343d565b613615565b9486811015613688575b6136806136659161343d565b95905061365c565b9761368061369e8288610849613665958a613527565b99915050613674565b60049293945085600052602052600020015416908110156103895760021438808080613653565b505093509350935050565b5081891061361e565b93509150506040516136f3816130ec565b6000815260003681379190565b936135fa565b80600052600b60209080825260ff6004906040818382600020015416936008948581101561379b57600114958615613760575b50505050505061374c575b6001016135d4565b9461375860019161343d565b959050613744565b600088815291905220820154169250908210156137865750600214388080808080613739565b602190634e487b7160e01b6000525260246000fd5b602185634e487b7160e01b6000525260246000fd5b3360009081527f7d7ffb7a348e1c6a02869081a26547b49160dd3df72d1d75a570eb9b698292ec60205260409020547fa49807205ce4d355092ef5a8a18f56e8913cf4a201fbe287825b095693c217759060ff161561380c5750565b6044906040519063e2517d3f60e01b82523360048301526024820152fd5b80600052600060205260406000203360005260205260ff604060002054161561380c5750565b60ff6002541661385c57565b60405163d93c066560e01b8152600490fd5b6000908082526020600b81526040808420916004830160ff1990600782825416179055600884019081549060ff82161580613a28575b6139aa575b5050506001830160018060a01b039081815416968080808060028a019b8c54905af16138d36134c5565b501561396d578286949286600393606098967f8e8ac7b23f8e5ccc2b733bb2e48037ab7aadc18ff88ba81ff61042ab6e1ee6929a54168152600d865281812080548061395b575b5050838354168152600d865220805480613949575b5050541697549301549082519384528301524290820152a3565b613952906134b8565b9055388061392f565b613964906134b8565b9055388061391a565b845162461bcd60e51b815260048101859052601660248201527514d95b1b195c881d1c985b9cd9995c8819985a5b195960521b6044820152606490fd5b6001911617905584808080600387016139c6815460065461345f565b6006556005549054906001600160a01b03165af16139e26134c5565b50156139f0573880806138a9565b606491519062461bcd60e51b825260048201526013602482015272119959481d1c985b9cd9995c8819985a5b1959606a1b6044820152fd5b50600386015415156138a4565b6007546001600160a01b0390811691908215613ab7576024602092604051948593849263d9e6e28760e01b84521660048301525afa908115613aab57600091613a7c575090565b90506020813d602011613aa3575b81613a9760209383613107565b8101031261039f575190565b3d9150613a8a565b6040513d6000823e3d90fd5b60405162461bcd60e51b815260206004820152602260248201527f537562736372697074696f6e4d616e61676572206e6f7420636f6e6669677572604482015261195960f21b6064820152608490fd5b80600052600b602052604060002090600282015491613b2a60038201548461345f565b803403611329575060408160047fbc6351b0e2a6a3f646e25885e97f2d7aef98ed917cad825bbcbc26d30bd1f0fb9301600160ff1982541617905542600682015560018060a01b03905416938151908152426020820152a3565b600260015414613b95576002600155565b604051633ee5aeb560e01b8152600490fd5b9060009180835282602052604083209160018060a01b03169182845260205260ff60408420541615600014613c2057808352826020526040832082845260205260408320600160ff198254161790557f2f8788117e7eff1d82e926ec794901d17c78024a50270940304540a733656f0d339380a4600190565b505090565b9060009180835282602052604083209160018060a01b03169182845260205260ff604084205416600014613c205780835282602052604083208284526020526040832060ff1981541690557ff6391f5c32d9c69d2a47ea670b442974b53935d1edc7fd64eb21e047a839171b339380a460019056fea2646970667358221220d74d352dad74e8065c11784be51d41188523f9e044f3e2d79e89a002d846d17264736f6c634300081900332f8788117e7eff1d82e926ec794901d17c78024a50270940304540a733656f0d",
    "linkReferences": {}
  },
  "methodIdentifiers": {
    "ADMIN_ROLE()": "75b238fc",
    "ARBITRATOR_ROLE()": "9cea0787",
    "BASIS_POINTS()": "e1f1c4a7",
    "DEFAULT_ADMIN_ROLE()": "a217fddf",
    "approveEscrow(uint256)": "03fce7ef",
    "autoRelease(uint256)": "459b860e",
    "batchCreateEscrows(address[],uint256[],uint256[],string[])": "39f5687e",
    "calculateUserFee(address,uint256)": "a1ae6ee6",
    "cancelEscrow(uint256)": "e0182436",
    "confirmDelivery(uint256)": "fd84cb97",
    "createEscrow(address,uint256,uint256,string)": "683f31d3",
    "createEscrowWithTemplate(address,uint256,uint256,string,string,address[])": "0e681582",
    "defaultApprovalsRequired()": "344f8ead",
    "defaultDisputeWindow()": "4937a943",
    "disputeReasons(uint256)": "2eb52425",
    "escrows(uint256)": "012f52ee",
    "feeRecipient()": "46904840",
    "fundEscrow(uint256)": "c9c31af5",
    "getActiveEscrows(uint256,uint256)": "f877eb7b",
    "getAvailableFees()": "40806f7c",
    "getDisputeDetails(uint256)": "ea89735d",
    "getDisputedEscrows()": "d59553f3",
    "getEscrowDetails(uint256)": "b996ec2a",
    "getEscrowStats()": "acff2b09",
    "getRoleAdmin(bytes32)": "248a9ca3",
    "getUserEscrows(address)": "5ccea85e",
    "getUserFeePercentage(address)": "891b64f8",
    "grantRole(bytes32,address)": "2f2ff15d",
    "hasRole(bytes32,address)": "91d14854",
    "lastBatchOperation(address)": "67b792e6",
    "markDelivered(uint256)": "eb826a5f",
    "multiSigThreshold()": "4badfeb2",
    "nextEscrowId()": "89cb29dd",
    "pause()": "8456cb59",
    "paused()": "5c975abb",
    "raiseDispute(uint256,string)": "5aef573c",
    "renounceRole(bytes32,address)": "36568abe",
    "resolutionDetails(uint256)": "61b89558",
    "resolveDispute(uint256,bool,string)": "2840662d",
    "revokeRole(bytes32,address)": "d547741f",
    "setEscrowTemplate(string,uint256,uint256,bool,uint256)": "03e88033",
    "setSubscriptionManager(address)": "c05b3585",
    "subscriptionManager()": "bf158fd2",
    "supportsInterface(bytes4)": "01ffc9a7",
    "templates(string)": "b22beeda",
    "totalFeesCollected()": "60c6d8ae",
    "unpause()": "3f4ba83a",
    "updateDefaultDisputeWindow(uint256)": "0707950d",
    "updateFeeRecipient(address)": "f160d369",
    "userActiveEscrowCount(address)": "6f346d8c",
    "userEscrows(address,uint256)": "7f944dd0",
    "withdrawFees()": "476343ee"
  },
  "id": 64
}