{
  "abi": [
    {
      "type": "constructor",
      "inputs": [],
      "stateMutability": "nonpayable"
    },
    {
      "type": "receive",
      "stateMutability": "payable"
    },
    {
      "type": "function",
      "name": "ADMIN_ROLE",
      "inputs": [],
      "outputs": [
        {
          "name": "",
          "type": "bytes32",
          "internalType": "bytes32"
        }
      ],
      "stateMutability": "view"
    },
    {
      "type": "function",
      "name": "ARBITRATOR_ROLE",
      "inputs": [],
      "outputs": [
        {
          "name": "",
          "type": "bytes32",
          "internalType": "bytes32"
        }
      ],
      "stateMutability": "view"
    },
    {
      "type": "function",
      "name": "DEFAULT_ADMIN_ROLE",
      "inputs": [],
      "outputs": [
        {
          "name": "",
          "type": "bytes32",
          "internalType": "bytes32"
        }
      ],
      "stateMutability": "view"
    },
    {
      "type": "function",
      "name": "UPGRADER_ROLE",
      "inputs": [],
      "outputs": [
        {
          "name": "",
          "type": "bytes32",
          "internalType": "bytes32"
        }
      ],
      "stateMutability": "view"
    },
    {
      "type": "function",
      "name": "UPGRADE_INTERFACE_VERSION",
      "inputs": [],
      "outputs": [
        {
          "name": "",
          "type": "string",
          "internalType": "string"
        }
      ],
      "stateMutability": "view"
    },
    {
      "type": "function",
      "name": "VERSION",
      "inputs": [],
      "outputs": [
        {
          "name": "",
          "type": "uint256",
          "internalType": "uint256"
        }
      ],
      "stateMutability": "view"
    },
    {
      "type": "function",
      "name": "VERSION_STRING",
      "inputs": [],
      "outputs": [
        {
          "name": "",
          "type": "string",
          "internalType": "string"
        }
      ],
      "stateMutability": "view"
    },
    {
      "type": "function",
      "name": "approveMilestone",
      "inputs": [
        {
          "name": "_escrowId",
          "type": "uint256",
          "internalType": "uint256"
        },
        {
          "name": "_milestoneIndex",
          "type": "uint256",
          "internalType": "uint256"
        },
        {
          "name": "_feedback",
          "type": "string",
          "internalType": "string"
        }
      ],
      "outputs": [],
      "stateMutability": "payable"
    },
    {
      "type": "function",
      "name": "autoReleaseMilestone",
      "inputs": [
        {
          "name": "_escrowId",
          "type": "uint256",
          "internalType": "uint256"
        },
        {
          "name": "_milestoneIndex",
          "type": "uint256",
          "internalType": "uint256"
        }
      ],
      "outputs": [],
      "stateMutability": "nonpayable"
    },
    {
      "type": "function",
      "name": "batchAutoReleaseMilestones",
      "inputs": [
        {
          "name": "_escrowId",
          "type": "uint256",
          "internalType": "uint256"
        },
        {
          "name": "_milestoneIndices",
          "type": "uint256[]",
          "internalType": "uint256[]"
        }
      ],
      "outputs": [],
      "stateMutability": "nonpayable"
    },
    {
      "type": "function",
      "name": "canAutoRelease",
      "inputs": [
        {
          "name": "_escrowId",
          "type": "uint256",
          "internalType": "uint256"
        },
        {
          "name": "_milestoneIndex",
          "type": "uint256",
          "internalType": "uint256"
        }
      ],
      "outputs": [
        {
          "name": "canRelease",
          "type": "bool",
          "internalType": "bool"
        },
        {
          "name": "timeRemaining",
          "type": "uint256",
          "internalType": "uint256"
        }
      ],
      "stateMutability": "view"
    },
    {
      "type": "function",
      "name": "configureAutoRelease",
      "inputs": [
        {
          "name": "_escrowId",
          "type": "uint256",
          "internalType": "uint256"
        },
        {
          "name": "_enabled",
          "type": "bool",
          "internalType": "bool"
        },
        {
          "name": "_window",
          "type": "uint256",
          "internalType": "uint256"
        }
      ],
      "outputs": [],
      "stateMutability": "nonpayable"
    },
    {
      "type": "function",
      "name": "createMilestones",
      "inputs": [
        {
          "name": "_escrowId",
          "type": "uint256",
          "internalType": "uint256"
        },
        {
          "name": "_titles",
          "type": "string[]",
          "internalType": "string[]"
        },
        {
          "name": "_descriptions",
          "type": "string[]",
          "internalType": "string[]"
        },
        {
          "name": "_amounts",
          "type": "uint256[]",
          "internalType": "uint256[]"
        },
        {
          "name": "_dueDates",
          "type": "uint256[]",
          "internalType": "uint256[]"
        }
      ],
      "outputs": [],
      "stateMutability": "payable"
    },
    {
      "type": "function",
      "name": "defaultAutoReleaseWindow",
      "inputs": [],
      "outputs": [
        {
          "name": "",
          "type": "uint256",
          "internalType": "uint256"
        }
      ],
      "stateMutability": "view"
    },
    {
      "type": "function",
      "name": "disputeMilestone",
      "inputs": [
        {
          "name": "_escrowId",
          "type": "uint256",
          "internalType": "uint256"
        },
        {
          "name": "_milestoneIndex",
          "type": "uint256",
          "internalType": "uint256"
        },
        {
          "name": "_reason",
          "type": "string",
          "internalType": "string"
        }
      ],
      "outputs": [],
      "stateMutability": "nonpayable"
    },
    {
      "type": "function",
      "name": "emergencyPauseMilestone",
      "inputs": [
        {
          "name": "_escrowId",
          "type": "uint256",
          "internalType": "uint256"
        },
        {
          "name": "_milestoneIndex",
          "type": "uint256",
          "internalType": "uint256"
        },
        {
          "name": "_reason",
          "type": "string",
          "internalType": "string"
        }
      ],
      "outputs": [],
      "stateMutability": "nonpayable"
    },
    {
      "type": "function",
      "name": "emergencyStopAutoReleases",
      "inputs": [],
      "outputs": [],
      "stateMutability": "nonpayable"
    },
    {
      "type": "function",
      "name": "emergencyWithdrawMilestone",
      "inputs": [
        {
          "name": "_escrowId",
          "type": "uint256",
          "internalType": "uint256"
        },
        {
          "name": "_milestoneIndex",
          "type": "uint256",
          "internalType": "uint256"
        },
        {
          "name": "_recipient",
          "type": "address",
          "internalType": "address"
        },
        {
          "name": "_reason",
          "type": "string",
          "internalType": "string"
        }
      ],
      "outputs": [],
      "stateMutability": "nonpayable"
    },
    {
      "type": "function",
      "name": "escrowAutoReleaseEnabled",
      "inputs": [
        {
          "name": "",
          "type": "uint256",
          "internalType": "uint256"
        }
      ],
      "outputs": [
        {
          "name": "",
          "type": "bool",
          "internalType": "bool"
        }
      ],
      "stateMutability": "view"
    },
    {
      "type": "function",
      "name": "escrowCompletedMilestones",
      "inputs": [
        {
          "name": "",
          "type": "uint256",
          "internalType": "uint256"
        }
      ],
      "outputs": [
        {
          "name": "",
          "type": "uint256",
          "internalType": "uint256"
        }
      ],
      "stateMutability": "view"
    },
    {
      "type": "function",
      "name": "escrowCore",
      "inputs": [],
      "outputs": [
        {
          "name": "",
          "type": "address",
          "internalType": "contract EscrowCore"
        }
      ],
      "stateMutability": "view"
    },
    {
      "type": "function",
      "name": "escrowMilestoneCount",
      "inputs": [
        {
          "name": "",
          "type": "uint256",
          "internalType": "uint256"
        }
      ],
      "outputs": [
        {
          "name": "",
          "type": "uint256",
          "internalType": "uint256"
        }
      ],
      "stateMutability": "view"
    },
    {
      "type": "function",
      "name": "forceResolveMilestone",
      "inputs": [
        {
          "name": "_escrowId",
          "type": "uint256",
          "internalType": "uint256"
        },
        {
          "name": "_milestoneIndex",
          "type": "uint256",
          "internalType": "uint256"
        },
        {
          "name": "_resolution",
          "type": "uint8",
          "internalType": "uint8"
        },
        {
          "name": "_splitPercentage",
          "type": "uint256",
          "internalType": "uint256"
        },
        {
          "name": "_reason",
          "type": "string",
          "internalType": "string"
        }
      ],
      "outputs": [],
      "stateMutability": "nonpayable"
    },
    {
      "type": "function",
      "name": "getAutoReleaseEligibleMilestones",
      "inputs": [
        {
          "name": "_escrowId",
          "type": "uint256",
          "internalType": "uint256"
        }
      ],
      "outputs": [
        {
          "name": "eligibleIndices",
          "type": "uint256[]",
          "internalType": "uint256[]"
        }
      ],
      "stateMutability": "view"
    },
    {
      "type": "function",
      "name": "getMilestone",
      "inputs": [
        {
          "name": "_escrowId",
          "type": "uint256",
          "internalType": "uint256"
        },
        {
          "name": "_milestoneIndex",
          "type": "uint256",
          "internalType": "uint256"
        }
      ],
      "outputs": [
        {
          "name": "",
          "type": "tuple",
          "internalType": "struct MilestoneEscrow.Milestone",
          "components": [
            {
              "name": "escrowId",
              "type": "uint256",
              "internalType": "uint256"
            },
            {
              "name": "title",
              "type": "string",
              "internalType": "string"
            },
            {
              "name": "description",
              "type": "string",
              "internalType": "string"
            },
            {
              "name": "amount",
              "type": "uint256",
              "internalType": "uint256"
            },
            {
              "name": "dueDate",
              "type": "uint256",
              "internalType": "uint256"
            },
            {
              "name": "status",
              "type": "uint8",
              "internalType": "enum MilestoneEscrow.MilestoneStatus"
            },
            {
              "name": "submittedAt",
              "type": "uint256",
              "internalType": "uint256"
            },
            {
              "name": "approvedAt",
              "type": "uint256",
              "internalType": "uint256"
            },
            {
              "name": "submissionUrl",
              "type": "string",
              "internalType": "string"
            },
            {
              "name": "feedback",
              "type": "string",
              "internalType": "string"
            },
            {
              "name": "revisionCount",
              "type": "uint256",
              "internalType": "uint256"
            },
            {
              "name": "fundsReleased",
              "type": "bool",
              "internalType": "bool"
            },
            {
              "name": "autoReleaseTime",
              "type": "uint256",
              "internalType": "uint256"
            },
            {
              "name": "autoReleaseEnabled",
              "type": "bool",
              "internalType": "bool"
            },
            {
              "name": "assignedTo",
              "type": "address",
              "internalType": "address"
            },
            {
              "name": "priority",
              "type": "uint256",
              "internalType": "uint256"
            },
            {
              "name": "approvalsRequired",
              "type": "uint256",
              "internalType": "uint256"
            },
            {
              "name": "approvalCount",
              "type": "uint256",
              "internalType": "uint256"
            }
          ]
        }
      ],
      "stateMutability": "view"
    },
    {
      "type": "function",
      "name": "getMilestoneProgress",
      "inputs": [
        {
          "name": "_escrowId",
          "type": "uint256",
          "internalType": "uint256"
        }
      ],
      "outputs": [
        {
          "name": "total",
          "type": "uint256",
          "internalType": "uint256"
        },
        {
          "name": "completed",
          "type": "uint256",
          "internalType": "uint256"
        },
        {
          "name": "inProgress",
          "type": "uint256",
          "internalType": "uint256"
        },
        {
          "name": "disputed",
          "type": "uint256",
          "internalType": "uint256"
        }
      ],
      "stateMutability": "view"
    },
    {
      "type": "function",
      "name": "getMilestones",
      "inputs": [
        {
          "name": "_escrowId",
          "type": "uint256",
          "internalType": "uint256"
        }
      ],
      "outputs": [
        {
          "name": "",
          "type": "tuple[]",
          "internalType": "struct MilestoneEscrow.Milestone[]",
          "components": [
            {
              "name": "escrowId",
              "type": "uint256",
              "internalType": "uint256"
            },
            {
              "name": "title",
              "type": "string",
              "internalType": "string"
            },
            {
              "name": "description",
              "type": "string",
              "internalType": "string"
            },
            {
              "name": "amount",
              "type": "uint256",
              "internalType": "uint256"
            },
            {
              "name": "dueDate",
              "type": "uint256",
              "internalType": "uint256"
            },
            {
              "name": "status",
              "type": "uint8",
              "internalType": "enum MilestoneEscrow.MilestoneStatus"
            },
            {
              "name": "submittedAt",
              "type": "uint256",
              "internalType": "uint256"
            },
            {
              "name": "approvedAt",
              "type": "uint256",
              "internalType": "uint256"
            },
            {
              "name": "submissionUrl",
              "type": "string",
              "internalType": "string"
            },
            {
              "name": "feedback",
              "type": "string",
              "internalType": "string"
            },
            {
              "name": "revisionCount",
              "type": "uint256",
              "internalType": "uint256"
            },
            {
              "name": "fundsReleased",
              "type": "bool",
              "internalType": "bool"
            },
            {
              "name": "autoReleaseTime",
              "type": "uint256",
              "internalType": "uint256"
            },
            {
              "name": "autoReleaseEnabled",
              "type": "bool",
              "internalType": "bool"
            },
            {
              "name": "assignedTo",
              "type": "address",
              "internalType": "address"
            },
            {
              "name": "priority",
              "type": "uint256",
              "internalType": "uint256"
            },
            {
              "name": "approvalsRequired",
              "type": "uint256",
              "internalType": "uint256"
            },
            {
              "name": "approvalCount",
              "type": "uint256",
              "internalType": "uint256"
            }
          ]
        }
      ],
      "stateMutability": "view"
    },
    {
      "type": "function",
      "name": "getRoleAdmin",
      "inputs": [
        {
          "name": "role",
          "type": "bytes32",
          "internalType": "bytes32"
        }
      ],
      "outputs": [
        {
          "name": "",
          "type": "bytes32",
          "internalType": "bytes32"
        }
      ],
      "stateMutability": "view"
    },
    {
      "type": "function",
      "name": "getVersion",
      "inputs": [],
      "outputs": [
        {
          "name": "",
          "type": "string",
          "internalType": "string"
        }
      ],
      "stateMutability": "pure"
    },
    {
      "type": "function",
      "name": "grantRole",
      "inputs": [
        {
          "name": "role",
          "type": "bytes32",
          "internalType": "bytes32"
        },
        {
          "name": "account",
          "type": "address",
          "internalType": "address"
        }
      ],
      "outputs": [],
      "stateMutability": "nonpayable"
    },
    {
      "type": "function",
      "name": "hasRole",
      "inputs": [
        {
          "name": "role",
          "type": "bytes32",
          "internalType": "bytes32"
        },
        {
          "name": "account",
          "type": "address",
          "internalType": "address"
        }
      ],
      "outputs": [
        {
          "name": "",
          "type": "bool",
          "internalType": "bool"
        }
      ],
      "stateMutability": "view"
    },
    {
      "type": "function",
      "name": "initialize",
      "inputs": [
        {
          "name": "_escrowCore",
          "type": "address",
          "internalType": "address"
        },
        {
          "name": "_admin",
          "type": "address",
          "internalType": "address"
        }
      ],
      "outputs": [],
      "stateMutability": "nonpayable"
    },
    {
      "type": "function",
      "name": "milestoneApprovals",
      "inputs": [
        {
          "name": "",
          "type": "uint256",
          "internalType": "uint256"
        },
        {
          "name": "",
          "type": "uint256",
          "internalType": "uint256"
        },
        {
          "name": "",
          "type": "address",
          "internalType": "address"
        }
      ],
      "outputs": [
        {
          "name": "",
          "type": "bool",
          "internalType": "bool"
        }
      ],
      "stateMutability": "view"
    },
    {
      "type": "function",
      "name": "milestoneTips",
      "inputs": [
        {
          "name": "",
          "type": "uint256",
          "internalType": "uint256"
        },
        {
          "name": "",
          "type": "uint256",
          "internalType": "uint256"
        }
      ],
      "outputs": [
        {
          "name": "",
          "type": "uint256",
          "internalType": "uint256"
        }
      ],
      "stateMutability": "view"
    },
    {
      "type": "function",
      "name": "milestones",
      "inputs": [
        {
          "name": "",
          "type": "uint256",
          "internalType": "uint256"
        },
        {
          "name": "",
          "type": "uint256",
          "internalType": "uint256"
        }
      ],
      "outputs": [
        {
          "name": "escrowId",
          "type": "uint256",
          "internalType": "uint256"
        },
        {
          "name": "title",
          "type": "string",
          "internalType": "string"
        },
        {
          "name": "description",
          "type": "string",
          "internalType": "string"
        },
        {
          "name": "amount",
          "type": "uint256",
          "internalType": "uint256"
        },
        {
          "name": "dueDate",
          "type": "uint256",
          "internalType": "uint256"
        },
        {
          "name": "status",
          "type": "uint8",
          "internalType": "enum MilestoneEscrow.MilestoneStatus"
        },
        {
          "name": "submittedAt",
          "type": "uint256",
          "internalType": "uint256"
        },
        {
          "name": "approvedAt",
          "type": "uint256",
          "internalType": "uint256"
        },
        {
          "name": "submissionUrl",
          "type": "string",
          "internalType": "string"
        },
        {
          "name": "feedback",
          "type": "string",
          "internalType": "string"
        },
        {
          "name": "revisionCount",
          "type": "uint256",
          "internalType": "uint256"
        },
        {
          "name": "fundsReleased",
          "type": "bool",
          "internalType": "bool"
        },
        {
          "name": "autoReleaseTime",
          "type": "uint256",
          "internalType": "uint256"
        },
        {
          "name": "autoReleaseEnabled",
          "type": "bool",
          "internalType": "bool"
        },
        {
          "name": "assignedTo",
          "type": "address",
          "internalType": "address"
        },
        {
          "name": "priority",
          "type": "uint256",
          "internalType": "uint256"
        },
        {
          "name": "approvalsRequired",
          "type": "uint256",
          "internalType": "uint256"
        },
        {
          "name": "approvalCount",
          "type": "uint256",
          "internalType": "uint256"
        }
      ],
      "stateMutability": "view"
    },
    {
      "type": "function",
      "name": "pause",
      "inputs": [],
      "outputs": [],
      "stateMutability": "nonpayable"
    },
    {
      "type": "function",
      "name": "paused",
      "inputs": [],
      "outputs": [
        {
          "name": "",
          "type": "bool",
          "internalType": "bool"
        }
      ],
      "stateMutability": "view"
    },
    {
      "type": "function",
      "name": "proxiableUUID",
      "inputs": [],
      "outputs": [
        {
          "name": "",
          "type": "bytes32",
          "internalType": "bytes32"
        }
      ],
      "stateMutability": "view"
    },
    {
      "type": "function",
      "name": "recoverErc20",
      "inputs": [
        {
          "name": "_token",
          "type": "address",
          "internalType": "address"
        },
        {
          "name": "_to",
          "type": "address",
          "internalType": "address"
        },
        {
          "name": "_amount",
          "type": "uint256",
          "internalType": "uint256"
        }
      ],
      "outputs": [],
      "stateMutability": "nonpayable"
    },
    {
      "type": "function",
      "name": "renounceRole",
      "inputs": [
        {
          "name": "role",
          "type": "bytes32",
          "internalType": "bytes32"
        },
        {
          "name": "callerConfirmation",
          "type": "address",
          "internalType": "address"
        }
      ],
      "outputs": [],
      "stateMutability": "nonpayable"
    },
    {
      "type": "function",
      "name": "requestMilestoneRevision",
      "inputs": [
        {
          "name": "_escrowId",
          "type": "uint256",
          "internalType": "uint256"
        },
        {
          "name": "_milestoneIndex",
          "type": "uint256",
          "internalType": "uint256"
        },
        {
          "name": "_reason",
          "type": "string",
          "internalType": "string"
        }
      ],
      "outputs": [],
      "stateMutability": "nonpayable"
    },
    {
      "type": "function",
      "name": "revokeRole",
      "inputs": [
        {
          "name": "role",
          "type": "bytes32",
          "internalType": "bytes32"
        },
        {
          "name": "account",
          "type": "address",
          "internalType": "address"
        }
      ],
      "outputs": [],
      "stateMutability": "nonpayable"
    },
    {
      "type": "function",
      "name": "startMilestone",
      "inputs": [
        {
          "name": "_escrowId",
          "type": "uint256",
          "internalType": "uint256"
        },
        {
          "name": "_milestoneIndex",
          "type": "uint256",
          "internalType": "uint256"
        }
      ],
      "outputs": [],
      "stateMutability": "nonpayable"
    },
    {
      "type": "function",
      "name": "submitMilestone",
      "inputs": [
        {
          "name": "_escrowId",
          "type": "uint256",
          "internalType": "uint256"
        },
        {
          "name": "_milestoneIndex",
          "type": "uint256",
          "internalType": "uint256"
        },
        {
          "name": "_submissionUrl",
          "type": "string",
          "internalType": "string"
        }
      ],
      "outputs": [],
      "stateMutability": "nonpayable"
    },
    {
      "type": "function",
      "name": "supportsInterface",
      "inputs": [
        {
          "name": "interfaceId",
          "type": "bytes4",
          "internalType": "bytes4"
        }
      ],
      "outputs": [
        {
          "name": "",
          "type": "bool",
          "internalType": "bool"
        }
      ],
      "stateMutability": "view"
    },
    {
      "type": "function",
      "name": "unpause",
      "inputs": [],
      "outputs": [],
      "stateMutability": "nonpayable"
    },
    {
      "type": "function",
      "name": "upgradeToAndCall",
      "inputs": [
        {
          "name": "newImplementation",
          "type": "address",
          "internalType": "address"
        },
        {
          "name": "data",
          "type": "bytes",
          "internalType": "bytes"
        }
      ],
      "outputs": [],
      "stateMutability": "payable"
    },
    {
      "type": "event",
      "name": "AutoReleaseConfigUpdated",
      "inputs": [
        {
          "name": "escrowId",
          "type": "uint256",
          "indexed": true,
          "internalType": "uint256"
        },
        {
          "name": "enabled",
          "type": "bool",
          "indexed": false,
          "internalType": "bool"
        },
        {
          "name": "window",
          "type": "uint256",
          "indexed": false,
          "internalType": "uint256"
        }
      ],
      "anonymous": false
    },
    {
      "type": "event",
      "name": "ContractUpgraded",
      "inputs": [
        {
          "name": "previousImplementation",
          "type": "address",
          "indexed": true,
          "internalType": "address"
        },
        {
          "name": "newImplementation",
          "type": "address",
          "indexed": true,
          "internalType": "address"
        },
        {
          "name": "version",
          "type": "uint256",
          "indexed": false,
          "internalType": "uint256"
        }
      ],
      "anonymous": false
    },
    {
      "type": "event",
      "name": "EmergencyStopActivated",
      "inputs": [
        {
          "name": "activatedBy",
          "type": "address",
          "indexed": true,
          "internalType": "address"
        },
        {
          "name": "timestamp",
          "type": "uint256",
          "indexed": false,
          "internalType": "uint256"
        }
      ],
      "anonymous": false
    },
    {
      "type": "event",
      "name": "EmergencyWithdrawal",
      "inputs": [
        {
          "name": "escrowId",
          "type": "uint256",
          "indexed": true,
          "internalType": "uint256"
        },
        {
          "name": "milestoneIndex",
          "type": "uint256",
          "indexed": true,
          "internalType": "uint256"
        },
        {
          "name": "recipient",
          "type": "address",
          "indexed": false,
          "internalType": "address"
        },
        {
          "name": "amount",
          "type": "uint256",
          "indexed": false,
          "internalType": "uint256"
        },
        {
          "name": "reason",
          "type": "string",
          "indexed": false,
          "internalType": "string"
        }
      ],
      "anonymous": false
    },
    {
      "type": "event",
      "name": "Initialized",
      "inputs": [
        {
          "name": "version",
          "type": "uint64",
          "indexed": false,
          "internalType": "uint64"
        }
      ],
      "anonymous": false
    },
    {
      "type": "event",
      "name": "MilestoneApproved",
      "inputs": [
        {
          "name": "escrowId",
          "type": "uint256",
          "indexed": true,
          "internalType": "uint256"
        },
        {
          "name": "milestoneIndex",
          "type": "uint256",
          "indexed": true,
          "internalType": "uint256"
        },
        {
          "name": "amount",
          "type": "uint256",
          "indexed": false,
          "internalType": "uint256"
        },
        {
          "name": "tip",
          "type": "uint256",
          "indexed": false,
          "internalType": "uint256"
        },
        {
          "name": "timestamp",
          "type": "uint256",
          "indexed": false,
          "internalType": "uint256"
        }
      ],
      "anonymous": false
    },
    {
      "type": "event",
      "name": "MilestoneAutoReleased",
      "inputs": [
        {
          "name": "escrowId",
          "type": "uint256",
          "indexed": true,
          "internalType": "uint256"
        },
        {
          "name": "milestoneIndex",
          "type": "uint256",
          "indexed": true,
          "internalType": "uint256"
        },
        {
          "name": "amount",
          "type": "uint256",
          "indexed": false,
          "internalType": "uint256"
        },
        {
          "name": "timestamp",
          "type": "uint256",
          "indexed": false,
          "internalType": "uint256"
        }
      ],
      "anonymous": false
    },
    {
      "type": "event",
      "name": "MilestoneCreated",
      "inputs": [
        {
          "name": "escrowId",
          "type": "uint256",
          "indexed": true,
          "internalType": "uint256"
        },
        {
          "name": "milestoneIndex",
          "type": "uint256",
          "indexed": true,
          "internalType": "uint256"
        },
        {
          "name": "title",
          "type": "string",
          "indexed": false,
          "internalType": "string"
        },
        {
          "name": "amount",
          "type": "uint256",
          "indexed": false,
          "internalType": "uint256"
        },
        {
          "name": "dueDate",
          "type": "uint256",
          "indexed": false,
          "internalType": "uint256"
        }
      ],
      "anonymous": false
    },
    {
      "type": "event",
      "name": "MilestoneDisputed",
      "inputs": [
        {
          "name": "escrowId",
          "type": "uint256",
          "indexed": true,
          "internalType": "uint256"
        },
        {
          "name": "milestoneIndex",
          "type": "uint256",
          "indexed": true,
          "internalType": "uint256"
        },
        {
          "name": "reason",
          "type": "string",
          "indexed": false,
          "internalType": "string"
        },
        {
          "name": "timestamp",
          "type": "uint256",
          "indexed": false,
          "internalType": "uint256"
        }
      ],
      "anonymous": false
    },
    {
      "type": "event",
      "name": "MilestoneForceResolved",
      "inputs": [
        {
          "name": "escrowId",
          "type": "uint256",
          "indexed": true,
          "internalType": "uint256"
        },
        {
          "name": "milestoneIndex",
          "type": "uint256",
          "indexed": true,
          "internalType": "uint256"
        },
        {
          "name": "resolutionType",
          "type": "string",
          "indexed": false,
          "internalType": "string"
        },
        {
          "name": "buyerAmount",
          "type": "uint256",
          "indexed": false,
          "internalType": "uint256"
        },
        {
          "name": "sellerAmount",
          "type": "uint256",
          "indexed": false,
          "internalType": "uint256"
        },
        {
          "name": "reason",
          "type": "string",
          "indexed": false,
          "internalType": "string"
        }
      ],
      "anonymous": false
    },
    {
      "type": "event",
      "name": "MilestonePaused",
      "inputs": [
        {
          "name": "escrowId",
          "type": "uint256",
          "indexed": true,
          "internalType": "uint256"
        },
        {
          "name": "milestoneIndex",
          "type": "uint256",
          "indexed": true,
          "internalType": "uint256"
        },
        {
          "name": "previousStatus",
          "type": "uint8",
          "indexed": false,
          "internalType": "enum MilestoneEscrow.MilestoneStatus"
        },
        {
          "name": "reason",
          "type": "string",
          "indexed": false,
          "internalType": "string"
        }
      ],
      "anonymous": false
    },
    {
      "type": "event",
      "name": "MilestoneStarted",
      "inputs": [
        {
          "name": "escrowId",
          "type": "uint256",
          "indexed": true,
          "internalType": "uint256"
        },
        {
          "name": "milestoneIndex",
          "type": "uint256",
          "indexed": true,
          "internalType": "uint256"
        },
        {
          "name": "timestamp",
          "type": "uint256",
          "indexed": false,
          "internalType": "uint256"
        }
      ],
      "anonymous": false
    },
    {
      "type": "event",
      "name": "MilestoneSubmitted",
      "inputs": [
        {
          "name": "escrowId",
          "type": "uint256",
          "indexed": true,
          "internalType": "uint256"
        },
        {
          "name": "milestoneIndex",
          "type": "uint256",
          "indexed": true,
          "internalType": "uint256"
        },
        {
          "name": "submissionUrl",
          "type": "string",
          "indexed": false,
          "internalType": "string"
        },
        {
          "name": "timestamp",
          "type": "uint256",
          "indexed": false,
          "internalType": "uint256"
        }
      ],
      "anonymous": false
    },
    {
      "type": "event",
      "name": "Paused",
      "inputs": [
        {
          "name": "account",
          "type": "address",
          "indexed": false,
          "internalType": "address"
        }
      ],
      "anonymous": false
    },
    {
      "type": "event",
      "name": "RoleAdminChanged",
      "inputs": [
        {
          "name": "role",
          "type": "bytes32",
          "indexed": true,
          "internalType": "bytes32"
        },
        {
          "name": "previousAdminRole",
          "type": "bytes32",
          "indexed": true,
          "internalType": "bytes32"
        },
        {
          "name": "newAdminRole",
          "type": "bytes32",
          "indexed": true,
          "internalType": "bytes32"
        }
      ],
      "anonymous": false
    },
    {
      "type": "event",
      "name": "RoleGranted",
      "inputs": [
        {
          "name": "role",
          "type": "bytes32",
          "indexed": true,
          "internalType": "bytes32"
        },
        {
          "name": "account",
          "type": "address",
          "indexed": true,
          "internalType": "address"
        },
        {
          "name": "sender",
          "type": "address",
          "indexed": true,
          "internalType": "address"
        }
      ],
      "anonymous": false
    },
    {
      "type": "event",
      "name": "RoleRevoked",
      "inputs": [
        {
          "name": "role",
          "type": "bytes32",
          "indexed": true,
          "internalType": "bytes32"
        },
        {
          "name": "account",
          "type": "address",
          "indexed": true,
          "internalType": "address"
        },
        {
          "name": "sender",
          "type": "address",
          "indexed": true,
          "internalType": "address"
        }
      ],
      "anonymous": false
    },
    {
      "type": "event",
      "name": "TokensRecovered",
      "inputs": [
        {
          "name": "token",
          "type": "address",
          "indexed": true,
          "internalType": "address"
        },
        {
          "name": "recipient",
          "type": "address",
          "indexed": true,
          "internalType": "address"
        },
        {
          "name": "amount",
          "type": "uint256",
          "indexed": false,
          "internalType": "uint256"
        }
      ],
      "anonymous": false
    },
    {
      "type": "event",
      "name": "Unpaused",
      "inputs": [
        {
          "name": "account",
          "type": "address",
          "indexed": false,
          "internalType": "address"
        }
      ],
      "anonymous": false
    },
    {
      "type": "event",
      "name": "Upgraded",
      "inputs": [
        {
          "name": "implementation",
          "type": "address",
          "indexed": true,
          "internalType": "address"
        }
      ],
      "anonymous": false
    },
    {
      "type": "error",
      "name": "AccessControlBadConfirmation",
      "inputs": []
    },
    {
      "type": "error",
      "name": "AccessControlUnauthorizedAccount",
      "inputs": [
        {
          "name": "account",
          "type": "address",
          "internalType": "address"
        },
        {
          "name": "neededRole",
          "type": "bytes32",
          "internalType": "bytes32"
        }
      ]
    },
    {
      "type": "error",
      "name": "AddressEmptyCode",
      "inputs": [
        {
          "name": "target",
          "type": "address",
          "internalType": "address"
        }
      ]
    },
    {
      "type": "error",
      "name": "AutoReleaseNotEnabled",
      "inputs": [
        {
          "name": "escrowId",
          "type": "uint256",
          "internalType": "uint256"
        }
      ]
    },
    {
      "type": "error",
      "name": "AutoReleasePeriodNotExpired",
      "inputs": [
        {
          "name": "currentTime",
          "type": "uint256",
          "internalType": "uint256"
        },
        {
          "name": "releaseTime",
          "type": "uint256",
          "internalType": "uint256"
        }
      ]
    },
    {
      "type": "error",
      "name": "ERC1967InvalidImplementation",
      "inputs": [
        {
          "name": "implementation",
          "type": "address",
          "internalType": "address"
        }
      ]
    },
    {
      "type": "error",
      "name": "ERC1967NonPayable",
      "inputs": []
    },
    {
      "type": "error",
      "name": "EmergencyOnly",
      "inputs": [
        {
          "name": "isEmergency",
          "type": "bool",
          "internalType": "bool"
        }
      ]
    },
    {
      "type": "error",
      "name": "EmptyReason",
      "inputs": []
    },
    {
      "type": "error",
      "name": "EmptySubmissionUrl",
      "inputs": []
    },
    {
      "type": "error",
      "name": "EmptyTitle",
      "inputs": [
        {
          "name": "milestoneIndex",
          "type": "uint256",
          "internalType": "uint256"
        }
      ]
    },
    {
      "type": "error",
      "name": "EnforcedPause",
      "inputs": []
    },
    {
      "type": "error",
      "name": "EscrowNotFound",
      "inputs": [
        {
          "name": "escrowId",
          "type": "uint256",
          "internalType": "uint256"
        }
      ]
    },
    {
      "type": "error",
      "name": "ExpectedPause",
      "inputs": []
    },
    {
      "type": "error",
      "name": "FailedCall",
      "inputs": []
    },
    {
      "type": "error",
      "name": "FundsAlreadyReleased",
      "inputs": [
        {
          "name": "milestoneIndex",
          "type": "uint256",
          "internalType": "uint256"
        }
      ]
    },
    {
      "type": "error",
      "name": "IncorrectPayment",
      "inputs": [
        {
          "name": "sent",
          "type": "uint256",
          "internalType": "uint256"
        },
        {
          "name": "required",
          "type": "uint256",
          "internalType": "uint256"
        }
      ]
    },
    {
      "type": "error",
      "name": "InsufficientApprovals",
      "inputs": [
        {
          "name": "current",
          "type": "uint256",
          "internalType": "uint256"
        },
        {
          "name": "required",
          "type": "uint256",
          "internalType": "uint256"
        }
      ]
    },
    {
      "type": "error",
      "name": "InvalidAddress",
      "inputs": [
        {
          "name": "provided",
          "type": "address",
          "internalType": "address"
        }
      ]
    },
    {
      "type": "error",
      "name": "InvalidAmount",
      "inputs": [
        {
          "name": "provided",
          "type": "uint256",
          "internalType": "uint256"
        },
        {
          "name": "minRequired",
          "type": "uint256",
          "internalType": "uint256"
        }
      ]
    },
    {
      "type": "error",
      "name": "InvalidArrayLengths",
      "inputs": [
        {
          "name": "firstLength",
          "type": "uint256",
          "internalType": "uint256"
        },
        {
          "name": "secondLength",
          "type": "uint256",
          "internalType": "uint256"
        }
      ]
    },
    {
      "type": "error",
      "name": "InvalidDueDate",
      "inputs": [
        {
          "name": "provided",
          "type": "uint256",
          "internalType": "uint256"
        },
        {
          "name": "currentTime",
          "type": "uint256",
          "internalType": "uint256"
        }
      ]
    },
    {
      "type": "error",
      "name": "InvalidEscrowId",
      "inputs": [
        {
          "name": "escrowId",
          "type": "uint256",
          "internalType": "uint256"
        }
      ]
    },
    {
      "type": "error",
      "name": "InvalidInitialization",
      "inputs": []
    },
    {
      "type": "error",
      "name": "InvalidMilestoneCount",
      "inputs": [
        {
          "name": "provided",
          "type": "uint256",
          "internalType": "uint256"
        },
        {
          "name": "maxAllowed",
          "type": "uint256",
          "internalType": "uint256"
        }
      ]
    },
    {
      "type": "error",
      "name": "InvalidMilestoneIndex",
      "inputs": [
        {
          "name": "provided",
          "type": "uint256",
          "internalType": "uint256"
        },
        {
          "name": "maxIndex",
          "type": "uint256",
          "internalType": "uint256"
        }
      ]
    },
    {
      "type": "error",
      "name": "InvalidMilestoneStatus",
      "inputs": [
        {
          "name": "current",
          "type": "uint8",
          "internalType": "enum MilestoneEscrow.MilestoneStatus"
        },
        {
          "name": "expected",
          "type": "uint8",
          "internalType": "enum MilestoneEscrow.MilestoneStatus"
        }
      ]
    },
    {
      "type": "error",
      "name": "InvalidPriority",
      "inputs": [
        {
          "name": "provided",
          "type": "uint256",
          "internalType": "uint256"
        },
        {
          "name": "maxPriority",
          "type": "uint256",
          "internalType": "uint256"
        }
      ]
    },
    {
      "type": "error",
      "name": "InvalidRecipient",
      "inputs": [
        {
          "name": "recipient",
          "type": "address",
          "internalType": "address"
        }
      ]
    },
    {
      "type": "error",
      "name": "InvalidResolutionType",
      "inputs": [
        {
          "name": "provided",
          "type": "string",
          "internalType": "string"
        }
      ]
    },
    {
      "type": "error",
      "name": "InvalidToken",
      "inputs": [
        {
          "name": "token",
          "type": "address",
          "internalType": "address"
        }
      ]
    },
    {
      "type": "error",
      "name": "MilestoneAlreadyApproved",
      "inputs": [
        {
          "name": "milestoneIndex",
          "type": "uint256",
          "internalType": "uint256"
        },
        {
          "name": "approver",
          "type": "address",
          "internalType": "address"
        }
      ]
    },
    {
      "type": "error",
      "name": "MilestoneAmountMismatch",
      "inputs": [
        {
          "name": "totalMilestones",
          "type": "uint256",
          "internalType": "uint256"
        },
        {
          "name": "escrowAmount",
          "type": "uint256",
          "internalType": "uint256"
        }
      ]
    },
    {
      "type": "error",
      "name": "MilestoneNotSubmitted",
      "inputs": [
        {
          "name": "milestoneIndex",
          "type": "uint256",
          "internalType": "uint256"
        },
        {
          "name": "currentStatus",
          "type": "uint8",
          "internalType": "enum MilestoneEscrow.MilestoneStatus"
        }
      ]
    },
    {
      "type": "error",
      "name": "MilestoneOverdue",
      "inputs": [
        {
          "name": "dueDate",
          "type": "uint256",
          "internalType": "uint256"
        },
        {
          "name": "currentTime",
          "type": "uint256",
          "internalType": "uint256"
        }
      ]
    },
    {
      "type": "error",
      "name": "NoMilestonesProvided",
      "inputs": []
    },
    {
      "type": "error",
      "name": "NotInitializing",
      "inputs": []
    },
    {
      "type": "error",
      "name": "PreviousMilestoneNotCompleted",
      "inputs": [
        {
          "name": "previousIndex",
          "type": "uint256",
          "internalType": "uint256"
        },
        {
          "name": "previousStatus",
          "type": "uint8",
          "internalType": "enum MilestoneEscrow.MilestoneStatus"
        }
      ]
    },
    {
      "type": "error",
      "name": "ReentrancyGuardReentrantCall",
      "inputs": []
    },
    {
      "type": "error",
      "name": "RevisionLimitExceeded",
      "inputs": [
        {
          "name": "current",
          "type": "uint256",
          "internalType": "uint256"
        },
        {
          "name": "maxAllowed",
          "type": "uint256",
          "internalType": "uint256"
        }
      ]
    },
    {
      "type": "error",
      "name": "TooManyMilestones",
      "inputs": [
        {
          "name": "provided",
          "type": "uint256",
          "internalType": "uint256"
        },
        {
          "name": "maxAllowed",
          "type": "uint256",
          "internalType": "uint256"
        }
      ]
    },
    {
      "type": "error",
      "name": "TransferFailed",
      "inputs": [
        {
          "name": "transferType",
          "type": "string",
          "internalType": "string"
        }
      ]
    },
    {
      "type": "error",
      "name": "UUPSUnauthorizedCallContext",
      "inputs": []
    },
    {
      "type": "error",
      "name": "UUPSUnsupportedProxiableUUID",
      "inputs": [
        {
          "name": "slot",
          "type": "bytes32",
          "internalType": "bytes32"
        }
      ]
    },
    {
      "type": "error",
      "name": "UnauthorizedCaller",
      "inputs": [
        {
          "name": "caller",
          "type": "address",
          "internalType": "address"
        },
        {
          "name": "expected",
          "type": "address",
          "internalType": "address"
        }
      ]
    },
    {
      "type": "error",
      "name": "UnauthorizedParty",
      "inputs": [
        {
          "name": "caller",
          "type": "address",
          "internalType": "address"
        }
      ]
    }
  ],
  "bytecode": {
    "object": "0x60a0806040523460c857306080527ff0c57e16840df040f15088dc2f81fe391c3923bec73e23a9662efc9c229c6a009081549060ff8260401c1660b957506001600160401b036002600160401b0319828216016075575b604051614d1a90816100ce82396080518181816126a801526127620152f35b6001600160401b031990911681179091556040519081527fc7f505b2f371ae2175ee4913f4499e1f2633a7b5936321eed1cdaeb6115181d290602090a13880806056565b63f92ee8a960e01b8152600490fd5b600080fdfe61010080604052600436101561001e575b50361561001c57600080fd5b005b60003560e01c90816301ffc9a714613add575080630390e07a146137fc5780630d8e6e2c14612b9f5780631451c9cd146137d057806316d6dcf31461358e5780631c376c63146133dc578063248a9ca3146133a05780632a95a989146133745780632b7e387e1461320d5780632f2ff15d146131c15780633220d53014612fba57806333df720014612f5f57806336568abe14612f185780633f4ba83a14612eb457806340a5833d14612cb057806342c549c014612bcf57806345f2868214612b9f578063485cc955146129b05780634f1ef2861461271257806352d1902d146126955780635b83831e1461220c5780635c975abb146121dc5780636fa361f61461206257806375b238fc146120275780638456cb5914611fc05780638ed9895c14611ead5780638f4a518b14611d5257806391d1485414611cf85780639cea078714611cbd578063a217fddf14611ca1578063ad1b75d114611c70578063ad3cb1cc14611c2a578063b19814f814611af3578063bdf16495146118a5578063c1782f48146116ee578063c4e59621146116bb578063cba419ee14611058578063d547741f1461100c578063d8858ef614610cf9578063e20362f714610caa578063e4fab72014610c81578063e549530514610c52578063e964befd14610a78578063ebf2c613146102aa578063ec31b9001461028c578063f72c0d8b146102515763ffa1ad74146102305738610010565b3461024c57600036600319011261024c57602060405160018152f35b600080fd5b3461024c57600036600319011261024c5760206040517f189ab7a9244df0848122154315af71fe140f3db0fe014031783b0946b8c9d2e38152f35b3461024c57600036600319011261024c576020600654604051908152f35b3461024c5760a036600319011261024c5760443560ff8116810361024c576084356001600160401b03811161024c576102e7903690600401613bda565b3360009081527fb5865ad506d0087b5b9864aee427988fc7aba8f4c8ec58b6dc2d0ddfb14bee8460205260409020549091907f16ceee8289685dd2a02b9c8ae81d2df373176ce53519e6284e2a2950d6546ffa9060ff1615610a5a575061034c6148ff565b6004356000526001602052610369604060002054602435106140d9565b600260ff821611610a155760249061038383511515614125565b600435600052600160205261039d82356040600020613c88565b5060008054604051635ccb761560e11b8152600480359082015294929392859182906001600160a01b03165afa9081156106f5576000936000926109e4575b5060058301549060ff821660068110156109ce5760040361099057600b84016001815461040c60ff821615614367565b60ff191617905560ff8116610519575050506005808201805460ff19169091179055600301805490916000918291829182916001600160a01b03165af1610451614268565b50156104e4575490604051916080835260116080840152703932b33ab73232b22fba37afb13abcb2b960791b60a084015260208301526000604083015260c060608301527f61dbd7c2d06d62f81204210f98c29aef52502a42a721d7200e4278ca1cd5a5ad60243592806104cc6004359460c0830190613c4d565b0390a35b6001600080516020614cc583398151915255005b60405162461bcd60e51b815260206004820152600d60248201526c1499599d5b990819985a5b1959609a1b6044820152606490fd5b9194939160ff166001036107175750506003908160ff1960058301541617600582015542600782015501549160fa830283810460fa14841517156107015761271061056691048094614002565b83819461062d575b50610595916000918291829182916001600160a01b03165af161058f614268565b50614477565b600435600052600360205260406000206105af8154614318565b9055604051916080835260126080840152713932b632b0b9b2b22fba37afb9b2b63632b960711b60a084015260006020840152604083015260c060608301527f61dbd7c2d06d62f81204210f98c29aef52502a42a721d7200e4278ca1cd5a5ad60243592806106256004359460c0830190613c4d565b0390a36104d0565b60005460405163011a412160e61b81529250602090839060049082906001600160a01b03165afa80156106f557859260009161069b575b506000809361059595610690838080808099819960018060a01b03165af161068a614268565b50614298565b95509350505061056e565b9250506020823d6020116106ed575b816106b760209383613b67565b8101031261024c57600080866105959561069083808080809a996106db829b61400f565b99509950505050505095509350610664565b3d91506106aa565b6040513d6000823e3d90fd5b634e487b7160e01b600052601160045260246000fd5b909391606480351161094b576003809260ff19161760058201554260078201550154906064358202828104606435148315171561070157606461075c91048093614002565b8094816108e6575b5050811580156107d6575b5050604051926080845260056080850152641cdc1b1a5d60da1b60a08501526020840152604083015260c060608301527f61dbd7c2d06d62f81204210f98c29aef52502a42a721d7200e4278ca1cd5a5ad60243592806106256004359460c0830190613c4d565b60fa83029083820460fa1417156107015761271090046107f68184614002565b9080610825575b5061081e916000918291829182916001600160a01b03165af161058f614268565b838061076f565b60005460405163011a412160e61b815291939190602090829060049082906001600160a01b03165afa9081156106f55760009161088e575b506000809381936108838380808061081e9b819960018060a01b03165af161068a614268565b9550935050506107fd565b90506020813d6020116108de575b816108a960209383613b67565b8101031261024c576000809381936108838380808061081e9b6108cc829a61400f565b99509b5050505050509350935061085d565b3d915061089c565b6000918291829182916001600160a01b03165af1610902614268565b501561090f578385610764565b60405162461bcd60e51b8152602060048201526014602482015273109d5e595c881c185e5b595b9d0819985a5b195960621b6044820152606490fd5b60405162461bcd60e51b815260206004820152601860248201527f496e76616c69642073706c69742070657263656e7461676500000000000000006044820152606490fd5b60405162461bcd60e51b8152602060048201526016602482015275135a5b195cdd1bdb99481b9bdd08191a5cdc1d5d195960521b6044820152606490fd5b634e487b7160e01b600052602160045260246000fd5b909350610a0491503d806000833e6109fc8183613b67565b810190614023565b5050505050505092909290856103dc565b60405162461bcd60e51b815260206004820152601760248201527f496e76616c6964207265736f6c7574696f6e20747970650000000000000000006044820152606490fd5b6044906040519063e2517d3f60e01b82523360048301526024820152fd5b3461024c57604036600319011261024c5760246001600160401b03600435823582811161024c573660238201121561024c57806004013592831161024c5760059036858560051b8301011161024c57610acf6148ff565b610ad76144bb565b8315610c1557600a8411610bdb5760005b848110610b03576001600080516020614cc583398151915255005b8581841b83010135908460005260016020818152610b2760406000205485106140d9565b8660005252610b3a826040600020613c88565b509160ff92838682015416936006851015610bc6576002600195149182610bb8575b82610baa575b82610b9b575b82610b8c575b5050610b7c575b5001610ae8565b610b86908661495b565b87610b75565b600b0154161590508980610b6e565b600c8101544210159250610b68565b600c81015415159250610b62565b600d81015482169250610b5c565b89634e487b7160e01b60005260216004526000fd5b60405162461bcd60e51b81526020600482015260138187015272546f6f206d616e79206d696c6573746f6e657360681b6044820152606490fd5b60405162461bcd60e51b81526020600482015260168187015275139bc81b5a5b195cdd1bdb995cc81c1c9bdd9a59195960521b6044820152606490fd5b3461024c57610c69610c6336613c72565b906143c0565b604080519215158352602083019190915290f35b0390f35b3461024c57600036600319011261024c576000546040516001600160a01b039091168152602090f35b3461024c57600036600319011261024c57610cc36144e6565b6301e133806006556040514281527f6bbdf35a15646cfc3b2558b396be9bb7e5d91be75244421546c247888cc66be060203392a2005b3461024c57610d0736613bf8565b610d129291926144bb565b81600052600160209080825260406000205480861015610fe2575083600052808252610d42856040600020613c88565b509060058201805460ff811660068110156109ce57600203610fad57610d6a86511515614125565b60008054604051635ccb761560e11b8152600481018a9052916001600160a01b03918390602490829085165afa9182156106f557600092610f88575b5081163303610f5f575060ff191682179055600a82018054610dc790614318565b9055835160098301916001600160401b038211610f4957610de88354613cba565b601f8111610f00575b5084601f8311600114610e725793610e5c95938380600095600c957f1f6b8fbda2e28daf7eb9b9beeea148e31aa8d052cb69b4e66cfb3bc6022281839b998893610e67575b501b9186199060031b1c19161790555b0155604051928392604084526040840190613c4d565b9042908301520390a3005b8a015192508e610e36565b601f9291921982169084600052866000209160005b818110610eeb575093837f1f6b8fbda2e28daf7eb9b9beeea148e31aa8d052cb69b4e66cfb3bc602228183999793610e5c999793600c9660009810610ed3575b5050811b019055610e46565b890151871960f88460031b161c191690558c80610ec7565b89830151845592850192918801918801610e87565b8360005285600020601f840160051c810191878510610f3f575b601f0160051c019082905b828110610f33575050610df1565b60008155018290610f25565b9091508190610f1a565b634e487b7160e01b600052604160045260246000fd5b60405163536dd9ef60e01b81523360048201526001600160a01b03919091166024820152604490fd5b610f9e9192503d806000833e6109fc8183613b67565b5050505050505050908a610da6565b60405162461bcd60e51b815260048101869052600d60248201526c139bdd081cdd589b5a5d1d1959609a1b6044820152606490fd5b8560001982019182116107015760449160405191631e153ebf60e21b835260048301526024820152fd5b3461024c57604036600319011261024c5761001c60043561102b613da6565b9080600052600080516020614c85833981519152602052611053600160406000200154614542565b61487c565b60a036600319011261024c576024356001600160401b03811161024c57611083903690600401613f23565b6044356001600160401b03811161024c576110a2903690600401613f23565b6064356001600160401b03811161024c576110c1903690600401613fa2565b916084356001600160401b03811161024c576110e1903690600401613fa2565b6110e96144bb565b815183518082148015906116b0575b80156116a5575b61168757505081511561167557815160148111611656575060008054604051635ccb761560e11b815260048035908201526001600160a01b03959290918290602490829089165afa9485156106f55760009160009661162d575b5081168015611614573303610f5f57506000805b84518210156115ae5761118082886143ac565b5115611585574261119183866143ac565b51111561155d576111a282866143ac565b5151156115445760043560005260016020526040600020805468010000000000000000811015610f49576111db91600182018155613c88565b509060043582556111ec83876143ac565b518051906001600160401b038211610f4957819061120d6001860154613cba565b601f81116114f1575b50602090601f831160011461147f57600092611474575b50508160011b916000199060031b1c19161760018301555b61124f83856143ac565b518051926001600160401b038411610f495784916112706002830154613cba565b601f811161141f575b50602090601f86116001146113a5579480600e93926113079760009261139a575b50508160011b916000199060031b1c19161760028201555b6112bc838c6143ac565b5160038201556112cc83896143ac565b5160048201556005810160ff19908181541690556001600d8301918254161790556001600f820155015561130083896143ac565b51906140cc565b9060043560005260016020526040600020549060001982019182116107015760019161133382886143ac565b517f7388b0a2d11e0575b753037e87c5c66b795cb79a842ab2cc7dbaae43ff84e7de61135f848c6143ac565b519161136b858a6143ac565b51611380604051926060808552840190613c4d565b936020830152604082015280600435930390a3019061116d565b015190508d8061129a565b94906002830160005260206000209560005b601f198416811061140457509161130796600192600e959483601f198116106113eb575b505050811b0160028201556112b2565b015160001960f88460031b161c191690558d80806113db565b828201518855600190970196889550602092830192016113b7565b90919250600283016000526020600020601f860160051c81016020871061146d575b9087949392915b601f830160051c8201811061145e575050611279565b60008155889550600101611448565b5080611441565b015190508a8061122d565b9250600185016000526020600020906000935b601f19841685106114d6576001945083601f198116106114bd575b505050811b016001830155611245565b015160001960f88460031b161c191690558a80806114ad565b81810151835560209485019460019093019290910190611492565b909150600185016000526020600020601f840160051c81016020851061153d575b90849392915b601f830160051c8201811061152e575050611216565b60008155859450600101611518565b5080611512565b6040516371df33b960e01b815260048101839052602490fd5b604461156983866143ac565b516040519063094793f560e41b82526004820152426024820152fd5b604461159183896143ac565b51604051906307c83fcf60e41b8252600482015260016024820152fd5b8490868082036115f657508034036115d85750516004356000526002602052604060002055600080f35b60449060405190630d35e92160e01b82523460048301526024820152fd5b604492506040519163562f195f60e01b835260048301526024820152fd5b60246040516305b3479760e11b81526004356004820152fd5b90955061164591503d806000833e6109fc8183613b67565b505050505050919050909487611159565b60449060405190634607b98760e01b8252600482015260146024820152fd5b604051635dfece3f60e01b8152600490fd5b604492506040519163e04400b160e01b835260048301526024820152fd5b5082518214156110ff565b5085518214156110f8565b3461024c576116c936613c72565b9060005260046020526040600020906000526020526020604060002054604051908152f35b3461024c57606036600319011261024c57611707613dd2565b61170f613da6565b604480359061171c6144e6565b6001600160a01b0384811693841561187157169361173b851515614327565b821561183c57604051602081019163a9059cbb60e01b8352866024830152848483015283825260808201928284106001600160401b03851117610f49576000809493819460405251925af161178e614268565b81611804575b50156117c8575060207f401f439d865a766757ec78675925bd67198d5e78805aa41691b34b5d6a6cbbe691604051908152a3005b60649074151bdad95b881c9958dbdd995c9e4819985a5b1959605a1b6040519162461bcd60e51b83526020600484015260156024840152820152fd5b8051801592508215611819575b505085611794565b819250906020918101031261024c5760200151801515810361024c578580611811565b60405162461bcd60e51b815260206004820152600e60248201526d125b9d985b1a5908185b5bdd5b9d60921b81840152606490fd5b60405162461bcd60e51b815260206004820152600d60248201526c24b73b30b634b2103a37b5b2b760991b81850152606490fd5b3461024c5760208060031936011261024c576004356000526001906001815260406000209160009160008454905b818110611a2957506118fd6118e785613f0c565b946118f56040519687613b67565b808652613f0c565b8483019590601f190136873760009060005b838110611952575050505060405192818401908285525180915260408401949160005b82811061193f5785870386f35b8351875295810195928101928401611932565b80611965600592849a989a999799613c88565b5060ff9283910154169160068310156109ce5760028a93149081611a10575b816119f7575b816119dd575b816119c4575b506119a8575b0196949695939561190f565b9280846119b86119be93896143ac565b52614318565b9261199c565b9050600b6119d28386613c88565b50015416158a611996565b9050600c6119eb8386613c88565b50015442101590611990565b9050600c611a058386613c88565b50015415159061198a565b809150600d611a1f8487613c88565b5001541690611984565b80611a3b600592889698979597613c88565b5060ff9283910154169160068310156109ce5760028893149081611ada575b81611ac1575b81611aa7575b81611a8e575b50611a7e575b019492949391936118d3565b92611a8890614318565b92611a72565b9050600b611a9c8388613c88565b500154161588611a6c565b9050600c611ab58388613c88565b50015442101590611a66565b9050600c611acf8388613c88565b500154151590611a60565b809150600d611ae98489613c88565b5001541690611a5a565b3461024c57602036600319011261024c57600080600060043560005260019260016020526040600020928354936000905b858210611b4857505060809450604051938452602084015260408301526060820152f35b9091611b548383613c88565b509060ff91826005809201541692600690818510156109ce578a94600303611b8b57505050611b8290614318565b925b0190611b24565b828192939550611b9f88889a96999a613c88565b5001541693828510156109ce578a8095148015611c04575b15611bce57505050611bc890614318565b93611b84565b90919350611bdf8786989498613c88565b50015416918210156109ce576004889203611b845794611bfe90614318565b94611b84565b5093508084611c138988613c88565b5001541693828510156109ce5760028b9514611bb7565b3461024c57600036600319011261024c57610c7d604051611c4a81613b4c565b60058152640352e302e360dc1b6020820152604051918291602083526020830190613c4d565b3461024c57602036600319011261024c576004356000526007602052602060ff604060002054166040519015158152f35b3461024c57600036600319011261024c57602060405160008152f35b3461024c57600036600319011261024c5760206040517f16ceee8289685dd2a02b9c8ae81d2df373176ce53519e6284e2a2950d6546ffa8152f35b3461024c57604036600319011261024c57611d11613da6565b600435600052600080516020614c8583398151915260205260406000209060018060a01b0316600052602052602060ff604060002054166040519015158152f35b3461024c57611d6036613c72565b611d686148ff565b611d706144bb565b81600052600160205260406000205480821015611e835750816000526001602052611d9f816040600020613c88565b5060ff60058201541660068110156109ce5760028103611e5c575060ff600d8201541615611e4357600c8101544210611dfe57600b015460ff16611de6576104d09161495b565b6024906040519063d3847f2760e01b82526004820152fd5b60405162461bcd60e51b815260206004820152601f60248201527f4175746f2d72656c6561736520706572696f64206e6f742065787069726564006044820152606490fd5b60405163db69d59760e01b815260048101849052602490fd5b604051632768dde160e11b815260048101849052604491611e81906024830190613d99565bfd5b6000198101919082116107015760449160405191631e153ebf60e21b835260048301526024820152fd5b3461024c57611ebb36613c72565b60405191611ec883613b30565b600083526000610220602094606086820152606060408201528260608201528260808201528260a08201528260c08201528260e082015260606101008201526060610120820152826101408201528261016082015282610180820152826101a0820152826101c0820152826101e08201528261020082015201528060005260018352604060002054821015611f8b57611f7691611f7091600052600184526040600020613c88565b50614163565b90610c7d604051928284938452830190613de8565b60405162461bcd60e51b815260048101849052600d60248201526c092dcecc2d8d2c840d2dcc8caf609b1b6044820152606490fd5b3461024c57600036600319011261024c57611fd96144e6565b611fe16144bb565b600080516020614ca5833981519152600160ff198254161790557f62e78cea01bee320cd4e420270b5ea74000d11b0c9f74754ebdbfc544b05a2586020604051338152a1005b3461024c57600036600319011261024c5760206040517fa49807205ce4d355092ef5a8a18f56e8913cf4a201fbe287825b095693c217758152f35b3461024c57608036600319011261024c57602435600435612081613dbc565b6064356001600160401b03811161024c576120a0903690600401613bda565b906120a96144e6565b6120b16148ff565b6120b961492f565b8260005260016020526120d260406000205485106140d9565b6001600160a01b0316906120e7821515614327565b6120f381511515614125565b826000526001602052600361210c856040600020613c88565b50600b810180549061212160ff831615614367565b600160ff19809316179055600580830191825416179055019160008080808654855af161214c614268565b5015612197576104cc7f2520e7479921d266108c866e0c725c6bd2187456c53556e96720b3c43a35497193549260405193849384526020840152606060408401526060830190613c4d565b60405162461bcd60e51b815260206004820152601b60248201527f456d657267656e6379207769746864726177616c206661696c656400000000006044820152606490fd5b3461024c57600036600319011261024c57602060ff600080516020614ca583398151915254166040519015158152f35b61221536613bf8565b9161221e6148ff565b6122266144bb565b8060005260016020526040600020548083101561266b5750806000526001602052612255826040600020613c88565b50600581019384549460ff861660068110156109ce5760028103612646575060ff600b8401541661262d576024939495600060018060a01b0381541660405196878092635ccb761560e11b82528a60048301525afa9485156106f557600090600096612606575b506001600160a01b0381163303610f5f575060ff191660031790554260078301558051906001600160401b038211610f49576122fb6009840154613cba565b601f81116125bf575b50602090601f831160011461254d57600393929160009183612542575b50508160011b9160001990851b1c19161760098201555b600b8101805460ff1916600117905534612521575b01805460fa810281810460fa14821517156107015761271061237b910491612376833492614002565b6140cc565b9080612414575b50906123c960008080806060967fef6b616c826945a49462c2c17dd010b0aa1f49845449e337bb67566634f7c2e39860018060a01b03165af16123c3614268565b506142da565b83600052600360205260406000206123e18154614318565b905583600052600260205254604051908152346020820152426040820152a36001600080516020614cc583398151915255005b60005460405163011a412160e61b815290602090829060049082906001600160a01b03165afa9081156106f5576000916124a1575b5060008080606096957fef6b616c826945a49462c2c17dd010b0aa1f49845449e337bb67566634f7c2e398612493838080806123c99b819b60018060a01b03165af161068a614268565b985095965050505050612382565b939290506020843d602011612519575b816124be60209383613b67565b8101031261024c576000808080937fef6b616c826945a49462c2c17dd010b0aa1f49845449e337bb67566634f7c2e398612493838080806123c99b61250460609f61400f565b9b509b50505050505098509596505050612449565b3d91506124b1565b8360005260046020526040600020856000526020523460406000205561234d565b015190508780612321565b906009840160005260206000209160005b601f19851681106125a7575091839160019360039695601f1981161061258f575b505050811b016009820155612338565b015160001983871b60f8161c1916905587808061257f565b9192602060018192868501518155019401920161255e565b600984016000526020600020601f840160051c8101602085106125ff575b601f830160051c820181106125f3575050612304565b600081556001016125dd565b50806125dd565b905061261e9195503d806000833e6109fc8183613b67565b505050505050509490886122bc565b60405163d3847f2760e01b815260048101869052602490fd5b604051632768dde160e11b815260048101879052604491611e81906024830190613d99565b8260001982019182116107015760449160405191631e153ebf60e21b835260048301526024820152fd5b3461024c57600036600319011261024c577f00000000000000000000000000000000000000000000000000000000000000006001600160a01b031630036127005760206040517f360894a13ba1a3210667c828492db98dca3e2076cc3735a920a3ca505d382bbc8152f35b60405163703e46dd60e11b8152600490fd5b604036600319011261024c57612726613dd2565b60249081356001600160401b03811161024c573660238201121561024c576127579036908481600401359101613ba3565b6001600160a01b03917f00000000000000000000000000000000000000000000000000000000000000008316308114908115612982575b50612700573360009081527fab71e3f32666744d246edff3f96e4bdafee2e9867098cdd118a979a7464786a860209081526040909120549093907f189ab7a9244df0848122154315af71fe140f3db0fe014031783b0946b8c9d2e39060ff1615612965575081169283604051600181527f81daf9335a6378204a43cc5467ad9282348d3864c1e3788e40b879f41b187aa5833092a36040516352d1902d60e01b81528181600481885afa60009181612936575b5061285e57604051634c9c8ce360e01b8152600481018690528690fd5b8490867f360894a13ba1a3210667c828492db98dca3e2076cc3735a920a3ca505d382bbc918281036129215750843b1561290b575080546001600160a01b03191682179055604051907fbc7cd75a20ee27fd9adebab32041f755214dbc6bffa90cc0225b39da2e5c2d3b600080a28351156128f15750600083819261001c95519101845af46128eb614268565b91614c01565b92505050346128fc57005b63b398979f60e01b8152600490fd5b604051634c9c8ce360e01b815260048101849052fd5b60405190632a87526960e21b82526004820152fd5b9091508281813d831161295e575b61294e8183613b67565b8101031261024c57519087612841565b503d612944565b856044916040519163e2517d3f60e01b8352336004840152820152fd5b9050837f360894a13ba1a3210667c828492db98dca3e2076cc3735a920a3ca505d382bbc541614158561278e565b3461024c57604036600319011261024c576129c9613dd2565b6129d1613da6565b907ff0c57e16840df040f15088dc2f81fe391c3923bec73e23a9662efc9c229c6a009182549160ff8360401c1615926001600160401b03811680159081612b97575b6001149081612b8d575b159081612b84575b50612b725767ffffffffffffffff198116600117855583612b53575b506001600160a01b03908116908115612b3a5782168015612b22575090612ade91612a6a614bc0565b612a72614bc0565b612a7a614bc0565b612a82614bc0565b6001600080516020614cc583398151915255612a9c614bc0565b6bffffffffffffffffffffffff60a01b60005416176000556203f480600655612ac481614575565b50612ace81614603565b50612ad8816146b3565b5061475d565b50612ae557005b68ff00000000000000001981541690557fc7f505b2f371ae2175ee4913f4499e1f2633a7b5936321eed1cdaeb6115181d2602060405160018152a1005b60249060405190634726455360e11b82526004820152fd5b604051634726455360e11b815260048101839052602490fd5b68ffffffffffffffffff19166801000000000000000117845584612a41565b60405163f92ee8a960e01b8152600490fd5b90501586612a25565b303b159150612a1d565b859150612a13565b3461024c57600036600319011261024c57610c7d612bbb613eeb565b604051918291602083526020830190613c4d565b3461024c5760208060031936011261024c5760043560005260019060018152604060002091825491612c0083613f0c565b92612c0e6040519485613b67565b8084528184018095600052826000206000915b838310612c895750505050604051928184019082855251809152604084019160408260051b86010195926000905b838210612c5c5786880387f35b90919293948380612c78839a603f198b82030186528951613de8565b999701959493919091019101612c4f565b94601185829997612c9c859a989a614163565b815201920192019190969496959395612c21565b3461024c57612cbe36613bf8565b612cc99291926144bb565b81600052600160205260406000205480841015612e8a5750816000526001602052612cf8836040600020613c88565b50600581019182549260ff841660068110156109ce5760028114908115612e7f575b5015612e3a57612d2c82511515614125565b60008054604051635ccb761560e11b815260048101889052916001600160a01b03918390602490829085165afa9182156106f557600090600093612e15575b5081163314918215612e08575b505015612dd457600c612dc99360009260047f1f6b8fbda2e28daf7eb9b9beeea148e31aa8d052cb69b4e66cfb3bc6022281839760ff19161790550155604051918291604083526040830190613c4d565b4260208301520390a3005b60405162461bcd60e51b815260206004820152600c60248201526b155b985d5d1a1bdc9a5e995960a21b6044820152606490fd5b9091501633148780612d78565b829350612e2d91503d806000833e6109fc8183613b67565b5050505050505092612d6b565b60405162461bcd60e51b815260206004820152601a60248201527f496e76616c69642073746174757320666f7220646973707574650000000000006044820152606490fd5b600191501487612d1a565b8360001982019182116107015760449160405191631e153ebf60e21b835260048301526024820152fd5b3461024c57600036600319011261024c57612ecd6144e6565b612ed561492f565b600080516020614ca583398151915260ff1981541690557f5db9ee0a495bf2e6ff9c91a7834c1ba4fdd244a5e8aa4e537bd38aeae4b073aa6020604051338152a1005b3461024c57604036600319011261024c57612f31613da6565b336001600160a01b03821603612f4d5761001c9060043561487c565b60405163334bd91960e11b8152600490fd5b3461024c57606036600319011261024c57612f78613dbc565b6004356000526005602052604060002060243560005260205260406000209060018060a01b0316600052602052602060ff604060002054166040519015158152f35b3461024c57612fc836613c72565b90612fd16144bb565b8060005260016020526040600020548083101561266b575080600052600160205260006130018360408320613c88565b508154604051635ccb761560e11b8152600481018590526024936001600160a01b039282908690829086165afa80156106f557829160009161319d575b50163314159081613189575b50613173576005019081549060ff8216600681101561315e57806131395750846130a6575b5060019060ff19161790557fbec83fa426ebb5b8e229a146ada844018abefae7bb04f0933afb92330512922c6020604051428152a3005b8360005260016020526040600020906000198601918683116131245760056130d08460ff93613c88565b5001541690600682101561311057600382036130ed57505061306f565b60449291611e819160405193630845a38b60e11b85526004850152830190613d99565b634e487b7160e01b60009081526021600452fd5b50634e487b7160e01b60009081526011600452fd5b600060449261315960405193631911397960e21b85526004850190613d99565b820152fd5b50634e487b7160e01b60009081526021600452fd5b50604051636c4ea64f60e01b8152336004820152fd5b9050600d82015460081c163314158561304a565b6131b291503d806000833e6109fc8183613b67565b5050505050505090508761303e565b3461024c57604036600319011261024c5761001c6004356131e0613da6565b9080600052600080516020614c85833981519152602052613208600160406000200154614542565b614807565b3461024c5761321b36613bf8565b6132269291926144e6565b81600052600160205261323f60406000205484106140d9565b61324b81511515614125565b816000526001602052613262836040600020613c88565b5090600582019081549260ff84169160068310156109ce576003831461332f57600583146132ea577f7f354ee62af6f82a20011d5cfa43052c5ce1ba6e4f483d2cc27c1f4bf8162b1794600d6132e5936132d496600460ff198095161790550190815416905560405193848094613d99565b604060208401526040830190613c4d565b0390a3005b60405162461bcd60e51b815260206004820152601b60248201527f4d696c6573746f6e6520616c72656164792063616e63656c6c656400000000006044820152606490fd5b60405162461bcd60e51b815260206004820152601a60248201527f4d696c6573746f6e6520616c726561647920617070726f7665640000000000006044820152606490fd5b3461024c57602036600319011261024c5760043560005260036020526020604060002054604051908152f35b3461024c57602036600319011261024c57600435600052600080516020614c858339815191526020526020600160406000200154604051908152f35b3461024c576133ea36613c72565b906000526001602052604060002090815481101561024c5761340b91613c88565b50805461341a60018301613cf4565b60a05261342960028301613cf4565b60e0526003820154916004810154600582015460ff1660068301546007840154956008850161345790613cf4565b61346360098701613cf4565b91600a870154608052600b87015460ff1698600c88015494600d89015496600e8a015498600f8b01549a601001549b60405160c0526102409060c051528060c0516020015260c0510160a051906134b991613c4d565b60c051810360c0516040015260e051906134d291613c4d565b9460c0516060015260c0516080015260c05160a0016134f091613d99565b60c05160c0015260c05160e0015260c051810360c051610100015261351491613c4d565b60c051810360c051610120015261352a91613c4d565b9560805160c0516101400152151560c051610160015260c051610180015260ff8116151560c0516101a00152600160a01b600190039060081c1660c0516101c0015260c0516101e0015260c051610200015260c051610220015260c051900360c051f35b3461024c57606036600319011261024c5760246004358135801515810361024c5760443590602460018060a01b0360008181541660405193848092635ccb761560e11b82528960048301525afa9182156106f5576000926137ab575b5081163303610f5f5750620151808210158061379e575b15613768578260005260076020526136298160406000209060ff801983541691151516179055565b600693600654830361375f575b600194859160016020526040600020916000975b613686575b6040805186151581526020810188905288917fa89c76b84edd568152034a33e076f1375ca3a2d6b7d9a4b89086016717493ff291a2005b829695949396548810156137555761369e8884613c88565b509760ff98896005809201541699838b101561374057899a9996979899159182156136fd575b50509085916136d5575b019761364a565b6136f887600d6136e58489613c88565b50019060ff801983541691151516179055565b6136ce565b915091929394955061370f8387613c88565b500154168281101561372b57889493929190600214858b6136c4565b83634e487b7160e01b60005260216004526000fd5b84634e487b7160e01b60005260216004526000fd5b839495965061364f565b82600655613636565b60405162461bcd60e51b815260206004820152600e60248201526d496e76616c69642077696e646f7760901b6044820152606490fd5b5062278d00821115613601565b6137c19192503d806000833e6109fc8183613b67565b505050505050505090866135ea565b3461024c57602036600319011261024c5760043560005260026020526020604060002054604051908152f35b3461024c5761380a36613bf8565b6138159291926144bb565b81600052600160209080825260406000205480861015610fe2575083600052808252613845856040600020613c88565b509060018060a01b03602460008281541660405192838092635ccb761560e11b82528b60048301525afa80156106f5578291600091613ab9575b50163314159081613aa5575b50613a8d5760058201805460ff811660068110156109ce57838103613a665750855115613a545760ff19166002179055426006830155835160088301916001600160401b038211610f49576138e08354613cba565b601f8111613a0b575b5084601f831160011461398057918080610e5c9795937f7f4d80269cdce8cfe4d74c1ac8ede5d2940be71300d92461a70468bfa0888cac999795600093613975575b501b916000199060031b1c19161790555b60ff600d8201541661395e575b50604051928392604084526040840190613c4d565b600c61396c600654426140cc565b91015586613949565b88015192508c61392b565b601f9291921982169084600052866000209160005b8181106139f65750918391610e5c9896947f7f4d80269cdce8cfe4d74c1ac8ede5d2940be71300d92461a70468bfa0888cac9a989694106139dd575b5050811b01905561393c565b87015160001960f88460031b161c191690558a806139d1565b89830151845592850192918801918801613995565b8360005285600020601f840160051c810191878510613a4a575b601f0160051c019082905b828110613a3e5750506138e9565b60008155018290613a30565b9091508190613a25565b604051632ba87f4b60e21b8152600490fd5b604051631911397960e21b81526044918590613a86906004840190613d99565b6024820152fd5b604051636c4ea64f60e01b8152336004820152602490fd5b9050600d83015460081c163314158761388b565b613ace91503d806000833e6109fc8183613b67565b5050505050505090508961387f565b3461024c57602036600319011261024c576004359063ffffffff60e01b821680920361024c57602091637965db0b60e01b8114908115613b1f575b5015158152f35b6301ffc9a760e01b14905083613b18565b61024081019081106001600160401b03821117610f4957604052565b604081019081106001600160401b03821117610f4957604052565b90601f801991011681019081106001600160401b03821117610f4957604052565b6001600160401b038111610f4957601f01601f191660200190565b929192613baf82613b88565b91613bbd6040519384613b67565b82948184528183011161024c578281602093846000960137010152565b9080601f8301121561024c57816020613bf593359101613ba3565b90565b606060031982011261024c576004359160243591604435906001600160401b03821161024c57613bf591600401613bda565b60005b838110613c3d5750506000910152565b8181015183820152602001613c2d565b90602091613c6681518092818552858086019101613c2a565b601f01601f1916010190565b604090600319011261024c576004359060243590565b8054821015613ca4576000526011602060002091020190600090565b634e487b7160e01b600052603260045260246000fd5b90600182811c92168015613cea575b6020831014613cd457565b634e487b7160e01b600052602260045260246000fd5b91607f1691613cc9565b90604051918260008254613d0781613cba565b90818452602094600191600181169081600014613d775750600114613d38575b505050613d3692500383613b67565b565b600090815285812095935091905b818310613d5f575050613d369350820101388080613d27565b85548884018501529485019487945091830191613d46565b92505050613d3694925060ff191682840152151560051b820101388080613d27565b9060068210156109ce5752565b602435906001600160a01b038216820361024c57565b604435906001600160a01b038216820361024c57565b600435906001600160a01b038216820361024c57565b90613e84613e70613e22613e1061024086518652602087015190806020880152860190613c4d565b60408601518582036040870152613c4d565b6060850151606085015260808501516080850152613e4860a086015160a0860190613d99565b60c085015160c085015260e085015160e0850152610100808601519085830390860152613c4d565b610120808501519084830390850152613c4d565b9161014080820151908301526101608082015115159083015261018080820151908301526101a0808201511515908301526101c060018060a01b038183015116908301526101e0808201519083015261020080820151908301526102208091015191015290565b60405190613ef882613b4c565b60058252640312e302e360dc1b6020830152565b6001600160401b038111610f495760051b60200190565b81601f8201121561024c57803591602091613f3d84613f0c565b93613f4b6040519586613b67565b808552838086019160051b8301019280841161024c57848301915b848310613f765750505050505090565b82356001600160401b03811161024c578691613f9784848094890101613bda565b815201920191613f66565b9080601f8301121561024c576020908235613fbc81613f0c565b93613fca6040519586613b67565b81855260208086019260051b82010192831161024c57602001905b828210613ff3575050505090565b81358152908301908301613fe5565b9190820391821161070157565b51906001600160a01b038216820361024c57565b90916101208284031261024c576140398261400f565b926140466020840161400f565b926040810151926060820151926080830151600881101561024c579260a08101519260c08201519260e083015192610100810151906001600160401b03821161024c570181601f8201121561024c5780516140a081613b88565b926140ae6040519485613b67565b8184526020828401011161024c57613bf59160208085019101613c2a565b9190820180921161070157565b156140e057565b60405162461bcd60e51b815260206004820152601760248201527f496e76616c6964206d696c6573746f6e6520696e6465780000000000000000006044820152606490fd5b1561412c57565b60405162461bcd60e51b815260206004820152600f60248201526e1499585cdbdb881c995c5d5a5c9959608a1b6044820152606490fd5b9060405161417081613b30565b80928054825261418260018201613cf4565b602083015261419360028201613cf4565b6040830152600381015460608301526004810154608083015260ff60058201541660068110156109ce576102209160109160a0850152600681015460c0850152600781015460e08501526141e960088201613cf4565b6101008501526141fb60098201613cf4565b610120850152600a810154610140850152600b81015460ff9081161515610160860152600c820154610180860152600d82015490811615156101a086015260081c6001600160a01b03166101c0850152600e8101546101e0850152600f8101546102008501520154910152565b3d15614293573d9061427982613b88565b916142876040519384613b67565b82523d6000602084013e565b606090565b1561429f57565b60405162461bcd60e51b8152602060048201526013602482015272119959481d1c985b9cd9995c8819985a5b1959606a1b6044820152606490fd5b156142e157565b60405162461bcd60e51b815260206004820152600f60248201526e151c985b9cd9995c8819985a5b1959608a1b6044820152606490fd5b60001981146107015760010190565b1561432e57565b60405162461bcd60e51b8152602060048201526011602482015270125b9d985b1a59081c9958da5c1a595b9d607a1b6044820152606490fd5b1561436e57565b60405162461bcd60e51b8152602060048201526016602482015275119d5b991cc8185b1c9958591e481c995b19585cd95960521b6044820152606490fd5b8051821015613ca45760209160051b010190565b91906000928352600160205260408320908154811015614471576143e391613c88565b5060ff600582015416600681101561445d5760021480159061444e575b8015614442575b8015614434575b61442f57600c0154428111614424575060019190565b613bf5904290614002565b508190565b5060ff600b8201541661440e565b50600c81015415614407565b5060ff600d8201541615614400565b634e487b7160e01b84526021600452602484fd5b50508190565b1561447e57565b60405162461bcd60e51b815260206004820152601560248201527414d95b1b195c881c185e5b595b9d0819985a5b1959605a1b6044820152606490fd5b60ff600080516020614ca583398151915254166144d457565b60405163d93c066560e01b8152600490fd5b3360009081527fb16e88c42fd4e48df2dd6a2eabd6bc9aec654ec170056b470819f8892cc6431c60205260409020547fa49807205ce4d355092ef5a8a18f56e8913cf4a201fbe287825b095693c217759060ff1615610a5a5750565b80600052600080516020614c8583398151915260205260406000203360005260205260ff6040600020541615610a5a5750565b6001600160a01b031660008181527fb7db2dd08fcb62d0c9e08c51941cae53c267786a0b75803fb7960902fc8ef97d6020526040812054909190600080516020614c858339815191529060ff166145fe578280526020526040822081835260205260408220600160ff198254161790553391600080516020614c658339815191528180a4600190565b505090565b6001600160a01b031660008181527fb16e88c42fd4e48df2dd6a2eabd6bc9aec654ec170056b470819f8892cc6431c60205260408120549091907fa49807205ce4d355092ef5a8a18f56e8913cf4a201fbe287825b095693c2177590600080516020614c858339815191529060ff166146ad578184526020526040832082845260205260408320600160ff19825416179055600080516020614c65833981519152339380a4600190565b50505090565b6001600160a01b031660008181527fab71e3f32666744d246edff3f96e4bdafee2e9867098cdd118a979a7464786a860205260408120549091907f189ab7a9244df0848122154315af71fe140f3db0fe014031783b0946b8c9d2e390600080516020614c858339815191529060ff166146ad578184526020526040832082845260205260408320600160ff19825416179055600080516020614c65833981519152339380a4600190565b6001600160a01b031660008181527fb5865ad506d0087b5b9864aee427988fc7aba8f4c8ec58b6dc2d0ddfb14bee8460205260408120549091907f16ceee8289685dd2a02b9c8ae81d2df373176ce53519e6284e2a2950d6546ffa90600080516020614c858339815191529060ff166146ad578184526020526040832082845260205260408320600160ff19825416179055600080516020614c65833981519152339380a4600190565b90600091808352600080516020614c8583398151915280602052604084209260018060a01b03169283855260205260ff604085205416156000146146ad578184526020526040832082845260205260408320600160ff19825416179055600080516020614c65833981519152339380a4600190565b90600091808352600080516020614c8583398151915280602052604084209260018060a01b03169283855260205260ff6040852054166000146146ad57818452602052604083208284526020526040832060ff1981541690557ff6391f5c32d9c69d2a47ea670b442974b53935d1edc7fd64eb21e047a839171b339380a4600190565b600080516020614cc5833981519152600281541461491d5760029055565b604051633ee5aeb560e01b8152600490fd5b60ff600080516020614ca583398151915254161561494957565b604051638dfc202b60e01b8152600490fd5b919060009280845260206001815260409061497884838820613c88565b5086548351635ccb761560e11b8152600481018690526001600160a01b0392909189908390602490829087165afa918215614bb6578992614b8e575b508060056003920160ff199083828254161790554260078301556001600b830191825416179055019182549160fa830283810460fa1484151715614b7a57612710614a0191048094614002565b9280614a67575b508980808089967fb22bff5f6359a1582c7f8e99b84639dae34bdc00db16cdf107245db45bb4e60c9b9c9d9e96614a4496165af16123c3614268565b8681526003845220614a568154614318565b9055549082519182524290820152a3565b600486848d541689519283809263011a412160e61b82525afa908115614b70578c91614ae8575b509a80808996867fb22bff5f6359a1582c7f8e99b84639dae34bdc00db16cdf107245db45bb4e60c9c9d9e9f96614ad684808080809d9b819c614a449e165af161068a614268565b96509650965050509a99989750614a08565b90508681813d8311614b69575b614aff8183613b67565b81010312614b65579a80808996867fb22bff5f6359a1582c7f8e99b84639dae34bdc00db16cdf107245db45bb4e60c9c9d9e9f96614ad684808080809d9b819c614b4b614a449f61400f565b9c50509b5050505050509650965096509c9b9a9950614a8e565b8b80fd5b503d614af5565b88513d8e823e3d90fd5b634e487b7160e01b8b52601160045260248bfd5b6003919250614ba6903d808c833e6109fc8183613b67565b50505050505050905091906149b4565b85513d8b823e3d90fd5b60ff7ff0c57e16840df040f15088dc2f81fe391c3923bec73e23a9662efc9c229c6a005460401c1615614bef57565b604051631afcd79f60e31b8152600490fd5b90614c285750805115614c1657602081519101fd5b60405163d6bda27560e01b8152600490fd5b81511580614c5b575b614c39575090565b604051639996b31560e01b81526001600160a01b039091166004820152602490fd5b50803b15614c3156fe2f8788117e7eff1d82e926ec794901d17c78024a50270940304540a733656f0d02dd7bc7dec4dceedda775e58dd541e08a116c6c53815c0bd028192f7b626800cd5ed15c6e187e77e9aee88184c21f4f2182ab5827cb3b7e07fbedcd63f033009b779b17422d0df92223018b32b4d1fa46e071723d6817e2486d003becc55f00a26469706673582212205635053619e117e08e55226b8d01fc1b05e3b2967006ecc4246e0a82028dfc0664736f6c63430008190033",
    "linkReferences": {}
  },
  "methodIdentifiers": {
    "ADMIN_ROLE()": "75b238fc",
    "ARBITRATOR_ROLE()": "9cea0787",
    "DEFAULT_ADMIN_ROLE()": "a217fddf",
    "UPGRADER_ROLE()": "f72c0d8b",
    "UPGRADE_INTERFACE_VERSION()": "ad3cb1cc",
    "VERSION()": "ffa1ad74",
    "VERSION_STRING()": "45f28682",
    "approveMilestone(uint256,uint256,string)": "5b83831e",
    "autoReleaseMilestone(uint256,uint256)": "8f4a518b",
    "batchAutoReleaseMilestones(uint256,uint256[])": "e964befd",
    "canAutoRelease(uint256,uint256)": "e5495305",
    "configureAutoRelease(uint256,bool,uint256)": "16d6dcf3",
    "createMilestones(uint256,string[],string[],uint256[],uint256[])": "cba419ee",
    "defaultAutoReleaseWindow()": "ec31b900",
    "disputeMilestone(uint256,uint256,string)": "40a5833d",
    "emergencyPauseMilestone(uint256,uint256,string)": "2b7e387e",
    "emergencyStopAutoReleases()": "e20362f7",
    "emergencyWithdrawMilestone(uint256,uint256,address,string)": "6fa361f6",
    "escrowAutoReleaseEnabled(uint256)": "ad1b75d1",
    "escrowCompletedMilestones(uint256)": "2a95a989",
    "escrowCore()": "e4fab720",
    "escrowMilestoneCount(uint256)": "1451c9cd",
    "forceResolveMilestone(uint256,uint256,uint8,uint256,string)": "ebf2c613",
    "getAutoReleaseEligibleMilestones(uint256)": "bdf16495",
    "getMilestone(uint256,uint256)": "8ed9895c",
    "getMilestoneProgress(uint256)": "b19814f8",
    "getMilestones(uint256)": "42c549c0",
    "getRoleAdmin(bytes32)": "248a9ca3",
    "getVersion()": "0d8e6e2c",
    "grantRole(bytes32,address)": "2f2ff15d",
    "hasRole(bytes32,address)": "91d14854",
    "initialize(address,address)": "485cc955",
    "milestoneApprovals(uint256,uint256,address)": "33df7200",
    "milestoneTips(uint256,uint256)": "c4e59621",
    "milestones(uint256,uint256)": "1c376c63",
    "pause()": "8456cb59",
    "paused()": "5c975abb",
    "proxiableUUID()": "52d1902d",
    "recoverErc20(address,address,uint256)": "c1782f48",
    "renounceRole(bytes32,address)": "36568abe",
    "requestMilestoneRevision(uint256,uint256,string)": "d8858ef6",
    "revokeRole(bytes32,address)": "d547741f",
    "startMilestone(uint256,uint256)": "3220d530",
    "submitMilestone(uint256,uint256,string)": "0390e07a",
    "supportsInterface(bytes4)": "01ffc9a7",
    "unpause()": "3f4ba83a",
    "upgradeToAndCall(address,bytes)": "4f1ef286"
  },
  "id": 65
}