{
  "abi": [
    {
      "type": "constructor",
      "inputs": [],
      "stateMutability": "nonpayable"
    },
    {
      "type": "function",
      "name": "DECAY_PERIOD",
      "inputs": [],
      "outputs": [
        {
          "name": "",
          "type": "uint256",
          "internalType": "uint256"
        }
      ],
      "stateMutability": "view"
    },
    {
      "type": "function",
      "name": "DECAY_RATE",
      "inputs": [],
      "outputs": [
        {
          "name": "",
          "type": "uint256",
          "internalType": "uint256"
        }
      ],
      "stateMutability": "view"
    },
    {
      "type": "function",
      "name": "MAX_TRUST_SCORE",
      "inputs": [],
      "outputs": [
        {
          "name": "",
          "type": "uint256",
          "internalType": "uint256"
        }
      ],
      "stateMutability": "view"
    },
    {
      "type": "function",
      "name": "MIN_REVIEWS_FOR_NFT",
      "inputs": [],
      "outputs": [
        {
          "name": "",
          "type": "uint256",
          "internalType": "uint256"
        }
      ],
      "stateMutability": "view"
    },
    {
      "type": "function",
      "name": "MIN_SCORE_FOR_NFT",
      "inputs": [],
      "outputs": [
        {
          "name": "",
          "type": "uint256",
          "internalType": "uint256"
        }
      ],
      "stateMutability": "view"
    },
    {
      "type": "function",
      "name": "approve",
      "inputs": [
        {
          "name": "to",
          "type": "address",
          "internalType": "address"
        },
        {
          "name": "tokenId",
          "type": "uint256",
          "internalType": "uint256"
        }
      ],
      "outputs": [],
      "stateMutability": "nonpayable"
    },
    {
      "type": "function",
      "name": "balanceOf",
      "inputs": [
        {
          "name": "owner",
          "type": "address",
          "internalType": "address"
        }
      ],
      "outputs": [
        {
          "name": "",
          "type": "uint256",
          "internalType": "uint256"
        }
      ],
      "stateMutability": "view"
    },
    {
      "type": "function",
      "name": "endorseSkill",
      "inputs": [
        {
          "name": "user",
          "type": "address",
          "internalType": "address"
        },
        {
          "name": "skillName",
          "type": "string",
          "internalType": "string"
        },
        {
          "name": "rating",
          "type": "uint256",
          "internalType": "uint256"
        }
      ],
      "outputs": [],
      "stateMutability": "nonpayable"
    },
    {
      "type": "function",
      "name": "getApproved",
      "inputs": [
        {
          "name": "tokenId",
          "type": "uint256",
          "internalType": "uint256"
        }
      ],
      "outputs": [
        {
          "name": "",
          "type": "address",
          "internalType": "address"
        }
      ],
      "stateMutability": "view"
    },
    {
      "type": "function",
      "name": "getReputationScore",
      "inputs": [
        {
          "name": "user",
          "type": "address",
          "internalType": "address"
        }
      ],
      "outputs": [
        {
          "name": "averageScore",
          "type": "uint256",
          "internalType": "uint256"
        },
        {
          "name": "reviewCount",
          "type": "uint256",
          "internalType": "uint256"
        },
        {
          "name": "endorsementCount",
          "type": "uint256",
          "internalType": "uint256"
        }
      ],
      "stateMutability": "view"
    },
    {
      "type": "function",
      "name": "getSkillEndorsements",
      "inputs": [
        {
          "name": "user",
          "type": "address",
          "internalType": "address"
        }
      ],
      "outputs": [
        {
          "name": "",
          "type": "tuple[]",
          "internalType": "struct ReputationRegistry.SkillEndorsement[]",
          "components": [
            {
              "name": "skillName",
              "type": "string",
              "internalType": "string"
            },
            {
              "name": "endorser",
              "type": "address",
              "internalType": "address"
            },
            {
              "name": "rating",
              "type": "uint256",
              "internalType": "uint256"
            },
            {
              "name": "timestamp",
              "type": "uint256",
              "internalType": "uint256"
            }
          ]
        }
      ],
      "stateMutability": "view"
    },
    {
      "type": "function",
      "name": "getTrustScore",
      "inputs": [
        {
          "name": "user",
          "type": "address",
          "internalType": "address"
        }
      ],
      "outputs": [
        {
          "name": "score",
          "type": "uint256",
          "internalType": "uint256"
        },
        {
          "name": "level",
          "type": "uint256",
          "internalType": "uint256"
        }
      ],
      "stateMutability": "view"
    },
    {
      "type": "function",
      "name": "hasReputationNft",
      "inputs": [
        {
          "name": "user",
          "type": "address",
          "internalType": "address"
        }
      ],
      "outputs": [
        {
          "name": "",
          "type": "bool",
          "internalType": "bool"
        }
      ],
      "stateMutability": "view"
    },
    {
      "type": "function",
      "name": "isApprovedForAll",
      "inputs": [
        {
          "name": "owner",
          "type": "address",
          "internalType": "address"
        },
        {
          "name": "operator",
          "type": "address",
          "internalType": "address"
        }
      ],
      "outputs": [
        {
          "name": "",
          "type": "bool",
          "internalType": "bool"
        }
      ],
      "stateMutability": "view"
    },
    {
      "type": "function",
      "name": "name",
      "inputs": [],
      "outputs": [
        {
          "name": "",
          "type": "string",
          "internalType": "string"
        }
      ],
      "stateMutability": "view"
    },
    {
      "type": "function",
      "name": "owner",
      "inputs": [],
      "outputs": [
        {
          "name": "",
          "type": "address",
          "internalType": "address"
        }
      ],
      "stateMutability": "view"
    },
    {
      "type": "function",
      "name": "ownerOf",
      "inputs": [
        {
          "name": "tokenId",
          "type": "uint256",
          "internalType": "uint256"
        }
      ],
      "outputs": [
        {
          "name": "",
          "type": "address",
          "internalType": "address"
        }
      ],
      "stateMutability": "view"
    },
    {
      "type": "function",
      "name": "renounceOwnership",
      "inputs": [],
      "outputs": [],
      "stateMutability": "nonpayable"
    },
    {
      "type": "function",
      "name": "reputationScores",
      "inputs": [
        {
          "name": "",
          "type": "address",
          "internalType": "address"
        }
      ],
      "outputs": [
        {
          "name": "totalScore",
          "type": "uint256",
          "internalType": "uint256"
        },
        {
          "name": "reviewCount",
          "type": "uint256",
          "internalType": "uint256"
        },
        {
          "name": "lastUpdateTime",
          "type": "uint256",
          "internalType": "uint256"
        },
        {
          "name": "endorsementCount",
          "type": "uint256",
          "internalType": "uint256"
        }
      ],
      "stateMutability": "view"
    },
    {
      "type": "function",
      "name": "reputationTokens",
      "inputs": [
        {
          "name": "",
          "type": "address",
          "internalType": "address"
        }
      ],
      "outputs": [
        {
          "name": "",
          "type": "uint256",
          "internalType": "uint256"
        }
      ],
      "stateMutability": "view"
    },
    {
      "type": "function",
      "name": "safeTransferFrom",
      "inputs": [
        {
          "name": "from",
          "type": "address",
          "internalType": "address"
        },
        {
          "name": "to",
          "type": "address",
          "internalType": "address"
        },
        {
          "name": "tokenId",
          "type": "uint256",
          "internalType": "uint256"
        }
      ],
      "outputs": [],
      "stateMutability": "nonpayable"
    },
    {
      "type": "function",
      "name": "safeTransferFrom",
      "inputs": [
        {
          "name": "from",
          "type": "address",
          "internalType": "address"
        },
        {
          "name": "to",
          "type": "address",
          "internalType": "address"
        },
        {
          "name": "tokenId",
          "type": "uint256",
          "internalType": "uint256"
        },
        {
          "name": "data",
          "type": "bytes",
          "internalType": "bytes"
        }
      ],
      "outputs": [],
      "stateMutability": "nonpayable"
    },
    {
      "type": "function",
      "name": "setApprovalForAll",
      "inputs": [
        {
          "name": "operator",
          "type": "address",
          "internalType": "address"
        },
        {
          "name": "approved",
          "type": "bool",
          "internalType": "bool"
        }
      ],
      "outputs": [],
      "stateMutability": "nonpayable"
    },
    {
      "type": "function",
      "name": "skillEndorsements",
      "inputs": [
        {
          "name": "",
          "type": "address",
          "internalType": "address"
        },
        {
          "name": "",
          "type": "uint256",
          "internalType": "uint256"
        }
      ],
      "outputs": [
        {
          "name": "skillName",
          "type": "string",
          "internalType": "string"
        },
        {
          "name": "endorser",
          "type": "address",
          "internalType": "address"
        },
        {
          "name": "rating",
          "type": "uint256",
          "internalType": "uint256"
        },
        {
          "name": "timestamp",
          "type": "uint256",
          "internalType": "uint256"
        }
      ],
      "stateMutability": "view"
    },
    {
      "type": "function",
      "name": "supportsInterface",
      "inputs": [
        {
          "name": "interfaceId",
          "type": "bytes4",
          "internalType": "bytes4"
        }
      ],
      "outputs": [
        {
          "name": "",
          "type": "bool",
          "internalType": "bool"
        }
      ],
      "stateMutability": "view"
    },
    {
      "type": "function",
      "name": "symbol",
      "inputs": [],
      "outputs": [
        {
          "name": "",
          "type": "string",
          "internalType": "string"
        }
      ],
      "stateMutability": "view"
    },
    {
      "type": "function",
      "name": "tokenURI",
      "inputs": [
        {
          "name": "tokenId",
          "type": "uint256",
          "internalType": "uint256"
        }
      ],
      "outputs": [
        {
          "name": "",
          "type": "string",
          "internalType": "string"
        }
      ],
      "stateMutability": "view"
    },
    {
      "type": "function",
      "name": "transferFrom",
      "inputs": [
        {
          "name": "from",
          "type": "address",
          "internalType": "address"
        },
        {
          "name": "to",
          "type": "address",
          "internalType": "address"
        },
        {
          "name": "tokenId",
          "type": "uint256",
          "internalType": "uint256"
        }
      ],
      "outputs": [],
      "stateMutability": "nonpayable"
    },
    {
      "type": "function",
      "name": "transferOwnership",
      "inputs": [
        {
          "name": "newOwner",
          "type": "address",
          "internalType": "address"
        }
      ],
      "outputs": [],
      "stateMutability": "nonpayable"
    },
    {
      "type": "function",
      "name": "trustScores",
      "inputs": [
        {
          "name": "",
          "type": "address",
          "internalType": "address"
        }
      ],
      "outputs": [
        {
          "name": "score",
          "type": "uint256",
          "internalType": "uint256"
        },
        {
          "name": "level",
          "type": "uint256",
          "internalType": "uint256"
        },
        {
          "name": "decayRate",
          "type": "uint256",
          "internalType": "uint256"
        },
        {
          "name": "lastCalculation",
          "type": "uint256",
          "internalType": "uint256"
        }
      ],
      "stateMutability": "view"
    },
    {
      "type": "function",
      "name": "updateReputation",
      "inputs": [
        {
          "name": "user",
          "type": "address",
          "internalType": "address"
        },
        {
          "name": "rating",
          "type": "uint256",
          "internalType": "uint256"
        },
        {
          "name": "isFreelancer",
          "type": "bool",
          "internalType": "bool"
        }
      ],
      "outputs": [],
      "stateMutability": "nonpayable"
    },
    {
      "type": "event",
      "name": "Approval",
      "inputs": [
        {
          "name": "owner",
          "type": "address",
          "indexed": true,
          "internalType": "address"
        },
        {
          "name": "approved",
          "type": "address",
          "indexed": true,
          "internalType": "address"
        },
        {
          "name": "tokenId",
          "type": "uint256",
          "indexed": true,
          "internalType": "uint256"
        }
      ],
      "anonymous": false
    },
    {
      "type": "event",
      "name": "ApprovalForAll",
      "inputs": [
        {
          "name": "owner",
          "type": "address",
          "indexed": true,
          "internalType": "address"
        },
        {
          "name": "operator",
          "type": "address",
          "indexed": true,
          "internalType": "address"
        },
        {
          "name": "approved",
          "type": "bool",
          "indexed": false,
          "internalType": "bool"
        }
      ],
      "anonymous": false
    },
    {
      "type": "event",
      "name": "BatchMetadataUpdate",
      "inputs": [
        {
          "name": "_fromTokenId",
          "type": "uint256",
          "indexed": false,
          "internalType": "uint256"
        },
        {
          "name": "_toTokenId",
          "type": "uint256",
          "indexed": false,
          "internalType": "uint256"
        }
      ],
      "anonymous": false
    },
    {
      "type": "event",
      "name": "MetadataUpdate",
      "inputs": [
        {
          "name": "_tokenId",
          "type": "uint256",
          "indexed": false,
          "internalType": "uint256"
        }
      ],
      "anonymous": false
    },
    {
      "type": "event",
      "name": "OwnershipTransferred",
      "inputs": [
        {
          "name": "previousOwner",
          "type": "address",
          "indexed": true,
          "internalType": "address"
        },
        {
          "name": "newOwner",
          "type": "address",
          "indexed": true,
          "internalType": "address"
        }
      ],
      "anonymous": false
    },
    {
      "type": "event",
      "name": "ReputationDecayed",
      "inputs": [
        {
          "name": "user",
          "type": "address",
          "indexed": true,
          "internalType": "address"
        },
        {
          "name": "oldScore",
          "type": "uint256",
          "indexed": false,
          "internalType": "uint256"
        },
        {
          "name": "newScore",
          "type": "uint256",
          "indexed": false,
          "internalType": "uint256"
        }
      ],
      "anonymous": false
    },
    {
      "type": "event",
      "name": "ReputationNFTMinted",
      "inputs": [
        {
          "name": "user",
          "type": "address",
          "indexed": true,
          "internalType": "address"
        },
        {
          "name": "tokenId",
          "type": "uint256",
          "indexed": false,
          "internalType": "uint256"
        }
      ],
      "anonymous": false
    },
    {
      "type": "event",
      "name": "ReputationUpdated",
      "inputs": [
        {
          "name": "user",
          "type": "address",
          "indexed": true,
          "internalType": "address"
        },
        {
          "name": "newScore",
          "type": "uint256",
          "indexed": false,
          "internalType": "uint256"
        },
        {
          "name": "reviewCount",
          "type": "uint256",
          "indexed": false,
          "internalType": "uint256"
        }
      ],
      "anonymous": false
    },
    {
      "type": "event",
      "name": "SkillEndorsed",
      "inputs": [
        {
          "name": "user",
          "type": "address",
          "indexed": true,
          "internalType": "address"
        },
        {
          "name": "endorser",
          "type": "address",
          "indexed": true,
          "internalType": "address"
        },
        {
          "name": "skill",
          "type": "string",
          "indexed": false,
          "internalType": "string"
        },
        {
          "name": "rating",
          "type": "uint256",
          "indexed": false,
          "internalType": "uint256"
        }
      ],
      "anonymous": false
    },
    {
      "type": "event",
      "name": "Transfer",
      "inputs": [
        {
          "name": "from",
          "type": "address",
          "indexed": true,
          "internalType": "address"
        },
        {
          "name": "to",
          "type": "address",
          "indexed": true,
          "internalType": "address"
        },
        {
          "name": "tokenId",
          "type": "uint256",
          "indexed": true,
          "internalType": "uint256"
        }
      ],
      "anonymous": false
    },
    {
      "type": "event",
      "name": "TrustScoreUpdated",
      "inputs": [
        {
          "name": "user",
          "type": "address",
          "indexed": true,
          "internalType": "address"
        },
        {
          "name": "newScore",
          "type": "uint256",
          "indexed": false,
          "internalType": "uint256"
        },
        {
          "name": "level",
          "type": "uint256",
          "indexed": false,
          "internalType": "uint256"
        }
      ],
      "anonymous": false
    },
    {
      "type": "error",
      "name": "AlreadyHasNFT",
      "inputs": [
        {
          "name": "user",
          "type": "address",
          "internalType": "address"
        },
        {
          "name": "existingTokenId",
          "type": "uint256",
          "internalType": "uint256"
        }
      ]
    },
    {
      "type": "error",
      "name": "DecayPeriodNotElapsed",
      "inputs": [
        {
          "name": "currentTime",
          "type": "uint256",
          "internalType": "uint256"
        },
        {
          "name": "nextDecayTime",
          "type": "uint256",
          "internalType": "uint256"
        }
      ]
    },
    {
      "type": "error",
      "name": "ERC721IncorrectOwner",
      "inputs": [
        {
          "name": "sender",
          "type": "address",
          "internalType": "address"
        },
        {
          "name": "tokenId",
          "type": "uint256",
          "internalType": "uint256"
        },
        {
          "name": "owner",
          "type": "address",
          "internalType": "address"
        }
      ]
    },
    {
      "type": "error",
      "name": "ERC721InsufficientApproval",
      "inputs": [
        {
          "name": "operator",
          "type": "address",
          "internalType": "address"
        },
        {
          "name": "tokenId",
          "type": "uint256",
          "internalType": "uint256"
        }
      ]
    },
    {
      "type": "error",
      "name": "ERC721InvalidApprover",
      "inputs": [
        {
          "name": "approver",
          "type": "address",
          "internalType": "address"
        }
      ]
    },
    {
      "type": "error",
      "name": "ERC721InvalidOperator",
      "inputs": [
        {
          "name": "operator",
          "type": "address",
          "internalType": "address"
        }
      ]
    },
    {
      "type": "error",
      "name": "ERC721InvalidOwner",
      "inputs": [
        {
          "name": "owner",
          "type": "address",
          "internalType": "address"
        }
      ]
    },
    {
      "type": "error",
      "name": "ERC721InvalidReceiver",
      "inputs": [
        {
          "name": "receiver",
          "type": "address",
          "internalType": "address"
        }
      ]
    },
    {
      "type": "error",
      "name": "ERC721InvalidSender",
      "inputs": [
        {
          "name": "sender",
          "type": "address",
          "internalType": "address"
        }
      ]
    },
    {
      "type": "error",
      "name": "ERC721NonexistentToken",
      "inputs": [
        {
          "name": "tokenId",
          "type": "uint256",
          "internalType": "uint256"
        }
      ]
    },
    {
      "type": "error",
      "name": "InsufficientReviews",
      "inputs": [
        {
          "name": "current",
          "type": "uint256",
          "internalType": "uint256"
        },
        {
          "name": "required",
          "type": "uint256",
          "internalType": "uint256"
        }
      ]
    },
    {
      "type": "error",
      "name": "InvalidAddress",
      "inputs": [
        {
          "name": "provided",
          "type": "address",
          "internalType": "address"
        }
      ]
    },
    {
      "type": "error",
      "name": "InvalidRating",
      "inputs": [
        {
          "name": "received",
          "type": "uint256",
          "internalType": "uint256"
        },
        {
          "name": "minExpected",
          "type": "uint256",
          "internalType": "uint256"
        },
        {
          "name": "maxExpected",
          "type": "uint256",
          "internalType": "uint256"
        }
      ]
    },
    {
      "type": "error",
      "name": "InvalidSkillName",
      "inputs": []
    },
    {
      "type": "error",
      "name": "NoReviewsFound",
      "inputs": [
        {
          "name": "user",
          "type": "address",
          "internalType": "address"
        }
      ]
    },
    {
      "type": "error",
      "name": "OwnableInvalidOwner",
      "inputs": [
        {
          "name": "owner",
          "type": "address",
          "internalType": "address"
        }
      ]
    },
    {
      "type": "error",
      "name": "OwnableUnauthorizedAccount",
      "inputs": [
        {
          "name": "account",
          "type": "address",
          "internalType": "address"
        }
      ]
    },
    {
      "type": "error",
      "name": "ScoreTooLow",
      "inputs": [
        {
          "name": "current",
          "type": "uint256",
          "internalType": "uint256"
        },
        {
          "name": "required",
          "type": "uint256",
          "internalType": "uint256"
        }
      ]
    },
    {
      "type": "error",
      "name": "SelfEndorsement",
      "inputs": [
        {
          "name": "attemptedEndorser",
          "type": "address",
          "internalType": "address"
        },
        {
          "name": "targetUser",
          "type": "address",
          "internalType": "address"
        }
      ]
    }
  ],
  "bytecode": {
    "object": "0x608034610351576001600160401b039060408181018381118382101761033b578152600e82526020916d14995c1d5d185d1a5bdb8813919560921b838201528151938285018581108282111761033b578352600385526205245560ec1b84860152815181811161033b576000948554916001948584811c94168015610331575b8385101461031d578190601f948581116102cf575b508390858311600114610270578992610265575b5050600019600383901b1c191690851b1786555b86519283116102515783548481811c91168015610247575b82821014610233578281116101f0575b508091831160011461018e575084958293949592610183575b5050600019600383901b1c191690821b1790555b331561016b5760078054336001600160a01b03198216811790925591519290916001600160a01b0316907f8be0079c531659141344cd1fd0a4f28419497f9722a3daafe3b4186f6b6457e09080a36120e690816103578239f35b51631e4fbdf760e01b81526004810191909152602490fd5b0151905038806100fd565b90601f198316968487528287209287905b8982106101d95750508385969798106101c0575b505050811b019055610111565b015160001960f88460031b161c191690553880806101b3565b80878596829496860151815501950193019061019f565b8487528187208380860160051c82019284871061022a575b0160051c019085905b82811061021f5750506100e4565b888155018590610211565b92508192610208565b634e487b7160e01b87526022600452602487fd5b90607f16906100d4565b634e487b7160e01b86526041600452602486fd5b0151905038806100a8565b898052848a208894509190601f1984168b5b878282106102b957505084116102a0575b505050811b0186556100bc565b015160001960f88460031b161c19169055388080610293565b8385015186558b97909501949384019301610282565b9091508880528389208580850160051c820192868610610314575b918991869594930160051c01915b828110610306575050610094565b8b81558594508991016102f8565b925081926102ea565b634e487b7160e01b88526022600452602488fd5b93607f169361007f565b634e487b7160e01b600052604160045260246000fd5b600080fdfe608080604052600436101561001357600080fd5b60003560e01c90816301ffc9a71461193d5750806306fdde0314611892578063081812fc14611854578063095ea7b31461176d57806312df0fc4146117105780631de40e49146116f45780631e9d4904146116d65780631ec05d861461169c57806323b872dd146116855780632b0824601461130457806342842e0e146112d65780635e09eea11461120b5780636352211e146111db57806370a0823114611182578063715018a61461112557806374c8d3771461110857806375a67d5c1461109a57806377ee7b601461107d5780638da5cb5b1461105457806395d89b4114610f71578063a22cb46514610ecc578063a8e007b714610eb0578063aa8bf35a14610d65578063b88d4fde14610cf7578063c87b56dd14610c9e578063d58e5c8514610c62578063d64fb40714610bd3578063e985e9c514610b7d578063ec604e4614610268578063f2fde38b146101da5763fe0438b21461017457600080fd5b346101d55760203660031901126101d5576001600160a01b03610195611a0a565b16600090815260096020908152604091829020805460018201546002830154600490930154855192835293820152928301526060820152608090f35b0390f35b600080fd5b346101d55760203660031901126101d5576101f3611a0a565b6101fb611e65565b6001600160a01b0390811690811561024f57600754826bffffffffffffffffffffffff60a01b821617600755167f8be0079c531659141344cd1fd0a4f28419497f9722a3daafe3b4186f6b6457e0600080a3005b604051631e4fbdf760e01b815260006004820152602490fd5b346101d55760603660031901126101d557610281611a0a565b60443560243581151582036101d557610298611e65565b600181108015610b73575b610b4d576001600160a01b03831615610b2c576001600160a01b0383166000908152600960205260409020908215610b0d5760d281029080820460d2149015171561087d576102f7610319915b8354611ddd565b8083556103076001840154611dce565b90816001850155426002850155611df7565b9180610b02575b610af8575b6001600160a01b0383166000908152600a60205260409020600381015462278d009081810180821161087d574211610a6c575b5050610365838254611ddd565b60011c8082556103e8809111610a64575b5080549160648304926001840180941161087d57600a93838560018096019280845511610a5c575b6003429101555460405191825260208201527f15dd57e0cde9af9083c846eb39c9da382e907c0036818e4a163ecd167e5f32766040848060a01b03881692a2015460408051848152602081018390526001600160a01b038616917f5b88a2e3fc1a53234357ab78c104df11c33ccfa79886793654565ad70b8afb6e91a210159081610a4f575b5080610a2f575b61043157005b60085461043d81611dce565b60085560405161044c81611a87565b6000808252828152600260205260409020546001600160a01b0316801515908390826109f8575b6001600160a01b0386166000818152600360209081526040808320805460010190558583526002909152812080546001600160a01b031916831790559091907fddf252ad1be2c89b69c2b068fc378daa952ba7f163c4a11628f55a4df523b3ef9080a46109df57823b6108a9575b5060018060a01b038216600052600960205261050860406000206001815491015490611df7565b9160405161051581611aa3565b601081526f181899199a1a9b1b9c1cb0b131b232b360811b6020820152604051936060850185811067ffffffffffffffff8211176107aa57604052602a8552602085019160403684378551156108935760308353855160011015610893576078602187015360005b601481106107c05750506105c9946105f79261059a603393611ff0565b9060405197889371697066733a2f2f72657075746174696f6e2f60701b602086015251809260328601906119c2565b8201602f60f81b60328201526105e882518093602087850191016119c2565b01036013810186520184611abf565b8160005260066020526040600020835167ffffffffffffffff81116107aa576106208254611b50565b601f8111610762575b506020601f82116001146106d557908060209493927fe3c1e67a28dbde69e5a710c034aacf3c4950b8d0fc8b9c99c98d4c85134af1e496976000926106ca575b50508160011b916000199060031b1c19161790555b7ff8e1a15aba9398e019f0b49df1a4fde98ee17ae345cb5f6b5e2c27f5033e8ce782604051868152a16001600160a01b03166000818152600c83526040908190208590555193845292a2005b015190508780610669565b601f198216958360005260206000209660005b81811061074a575096600192849260209796957fe3c1e67a28dbde69e5a710c034aacf3c4950b8d0fc8b9c99c98d4c85134af1e4999a10610731575b505050811b01905561067e565b015160001960f88460031b161c19169055878080610724565b838301518955600190980197602093840193016106e8565b826000526020600020601f830160051c810191602084106107a0575b601f0160051c01905b8181106107945750610629565b60008155600101610787565b909150819061077e565b634e487b7160e01b600052604160045260246000fd5b600c810180821161087d576020811015610893576001600160f81b03196107f86001600160a01b038816831a60041c600f1685611fdf565b5116828060011b046002148315171561087d578260011b60020160021161087d5760001a61082c8360011b6002018a611fdf565b536001600160f81b031990610850906001600160a01b038816901a600f1684611fdf565b5116908060011b60030160031161087d5760019160001a61087682841b6003018a611fdf565b530161057d565b634e487b7160e01b600052601160045260246000fd5b634e487b7160e01b600052603260045260246000fd5b604051602081806108e3630a85bd0160e11b95868352336004840152600060248401528760448401526080606484015260848301906119e5565b038160006001600160a01b0389165af16000918161099a575b5061096457833d1561095c573d9061091382611ae1565b916109216040519384611abf565b82523d6000602084013e5b8151918261095557604051633250574960e11b81526001600160a01b0383166004820152602490fd5b6020915001fd5b60609061092c565b6001600160e01b0319160361097957826104e1565b604051633250574960e11b81526001600160a01b0383166004820152602490fd5b9091506020813d6020116109d7575b816109b660209383611abf565b810103126101d557516001600160e01b0319811681036101d55790856108fc565b3d91506109a9565b6040516339e3563760e11b815260006004820152602490fd5b600082815260046020526040902080546001600160a01b031916905580600052600360205260406000206000198154019055610473565b506001600160a01b0381166000908152600c60205260409020541561042b565b6103209150101582610424565b85825561039e565b815584610376565b610a769042611dea565b048154908160058102046005148215171561087d57610a9a60649160058402611e17565b0480821115610af057610aad9082611dea565b80835560405191825260208201527f6f01342a57a245a77a3189f561e580b7ca4a2f9ef9795adbedfed33c35acd8b2604060018060a01b03871692a28480610358565b506000610aad565b6103e89150610325565b506103e88211610320565b60c881029080820460c8149015171561087d576102f7610319916102f0565b604051634726455360e11b81526001600160a01b0384166004820152602490fd5b60649060405190635fa7e9b960e01b825260048201526001602482015260056044820152fd5b50600581116102a3565b346101d55760403660031901126101d557610b96611a0a565b610b9e611a20565b9060018060a01b03809116600052600560205260406000209116600052602052602060ff604060002054166040519015158152f35b346101d55760403660031901126101d557610bec611a0a565b6024359060018060a01b03809116600052600b602052604060002080548310156101d557610c4e92610c1d91611b34565b50610c2781611b8a565b916001820154169060036002820154910154906040519485946080865260808601906119e5565b926020850152604084015260608301520390f35b346101d55760203660031901126101d5576001600160a01b03610c83611a0a565b16600052600c60205260206040600020541515604051908152f35b346101d55760203660031901126101d557600435610cbb81611e2a565b5060005260066020526101d1610cd46040600020611b8a565b6000604051610ce281611a87565b526040519182916020835260208301906119e5565b346101d55760803660031901126101d557610d10611a0a565b610d18611a20565b906044356064359267ffffffffffffffff84116101d557366023850112156101d557610d51610d63943690602481600401359101611afd565b92610d5d838383611c2f565b33611e91565b005b346101d5576020806003193601126101d5576001600160a01b039081610d89611a0a565b16600052600b81526040600020805467ffffffffffffffff81116107aa579160405192610dbb828260051b0185611abf565b8084528184018093600052826000206000915b838310610e615750505050604051928184019082855251809152604084019160408260051b86010193926000965b838810610e095786860387f35b90919293948380600192603f198a8203018652885190610e3260808351908084528301906119e5565b918684820151168483015260408101516040830152606080910151910152970193019701969093929193610dfc565b600485600192604099979951610e7681611a6b565b610e7f86611b8a565b81528b8587015416838201526002860154604082015260038601546060820152815201920192019190959395610dce565b346101d55760003660031901126101d5576020604051600a8152f35b346101d55760403660031901126101d557610ee5611a0a565b602435908115158092036101d5576001600160a01b0316908115610f5857336000526005602052604060002082600052602052604060002060ff1981541660ff83161790556040519081527f17307eab39ab6107e8899845ad3d59bd9653f200f220920489ca2b5937696c3160203392a3005b604051630b61174360e31b815260048101839052602490fd5b346101d55760003660031901126101d557604051600060018260015492610f9784611b50565b9283835260209485600182169182600014611034575050600114610fd7575b50610fc392500383611abf565b6101d16040519282849384528301906119e5565b84915060016000527fb10e2d527612073b26eecdfd717e6a320cf44b4afac2b0732d9fcbe2b7fa0cf6906000915b85831061101c575050610fc3935082010185610fb6565b80548389018501528794508693909201918101611005565b60ff191685820152610fc395151560051b8501019250879150610fb69050565b346101d55760003660031901126101d5576007546040516001600160a01b039091168152602090f35b346101d55760003660031901126101d55760206040516103208152f35b346101d55760203660031901126101d5576001600160a01b036110bb611a0a565b1660005260096020526060604060002060018101548015156000146110fe5760046110e7828454611df7565b925b01549060405192835260208301526040820152f35b60046000926110e9565b346101d55760003660031901126101d55760206040516103e88152f35b346101d55760003660031901126101d55761113e611e65565b600780546001600160a01b031981169091556000906001600160a01b03167f8be0079c531659141344cd1fd0a4f28419497f9722a3daafe3b4186f6b6457e08280a3005b346101d55760203660031901126101d5576001600160a01b036111a3611a0a565b1680156111c25760005260036020526020604060002054604051908152f35b6040516322718ad960e21b815260006004820152602490fd5b346101d55760203660031901126101d55760206111f9600435611e2a565b6040516001600160a01b039091168152f35b346101d55760203660031901126101d557611224611a0a565b6001600160a01b03166000908152600a60205260409020805460039091015462278d009081810180821161087d57421161128b575b505060648104906001820180921161087d57604091600a8111611283575b82519182526020820152f35b50600a611277565b6112959042611dea565b04600582028281046005148315171561087d576064916112b491611e17565b04808211156112cd576112c691611dea565b8180611259565b505060006112c6565b346101d557610d636112e736611a36565b90604051926112f584611a87565b60008452610d5d838383611c2f565b346101d55760603660031901126101d55761131d611a0a565b67ffffffffffffffff602480358281116101d557366023820112156101d55761134f9036908381600401359101611afd565b91336001600160a01b0385161461165f576001604435108015611653575b61162c576001600160a01b0384161561160d578251156115fb576040519061139482611a6b565b838252336020830152604435604083015242606083015260018060a01b038516600052600b6020526040600020805490680100000000000000008210156115e657906113e591600182018155611b34565b9390936115d25782519081519283116115be57506114038454611b50565b601f811161157a575b50602090601f831160011461150c57918060039492606094600092611501575b50508160011b9160001990861b1c19161784555b6001840160018060a01b036020830151166bffffffffffffffffffffffff60a01b82541617905560408101516002850155015191015560018060a01b0382166000526009602052600460406000203360005260038101602052604435604060002055016114ad8154611dce565b90557f5d25ed247830ebea7bfbe3a6b42f706fa88db0f63a480149535312f2fd0c63ab6114e5604051926040845260408401906119e5565b604435602084015233936001600160a01b0316929081900390a3005b01519050888061142c565b908460005260206000209160005b601f19851681106115625750926003949260019260609583601f1981161061154a575b505050811b018455611440565b015160001983881b60f8161c1916905588808061153d565b9192602060018192868501518155019401920161151a565b846000526020600020601f840160051c8101602085106115b7575b601f830160051c820181106115ab57505061140c565b60008155600101611595565b5080611595565b634e487b7160e01b60009081526041600452fd5b634e487b7160e01b60005260006004526000fd5b84634e487b7160e01b60005260416004526000fd5b604051632b3efb0f60e21b8152600490fd5b50604051634726455360e11b81526001600160a01b0384166004820152fd5b604051635fa7e9b960e01b8152604480356004830152600182850152600590820152606490fd5b5060056044351161136d565b6040516306d6c39b60e11b81523360048201526001600160a01b03851681840152604490fd5b346101d557610d6361169636611a36565b91611c2f565b346101d55760203660031901126101d5576001600160a01b036116bd611a0a565b16600052600c6020526020604060002054604051908152f35b346101d55760003660031901126101d557602060405162278d008152f35b346101d55760003660031901126101d557602060405160058152f35b346101d55760203660031901126101d5576001600160a01b03611731611a0a565b166000908152600a6020908152604091829020805460018201546002830154600390930154855192835293820152928301526060820152608090f35b346101d55760403660031901126101d557611786611a0a565b60243561179281611e2a565b33151580611841575b80611814575b6117fc576001600160a01b039283169282918491167f8c5be1e5ebec7d5bd14f71427d1e84f3dd0314c0f7b2291e5b200ac8c7c3b925600080a4600090815260046020526040902080546001600160a01b0319169091179055005b60405163a9fbf51f60e01b8152336004820152602490fd5b5060018060a01b038116600052600560205260406000203360005260205260ff60406000205416156117a1565b506001600160a01b03811633141561179b565b346101d55760203660031901126101d55760043561187181611e2a565b506000526004602052602060018060a01b0360406000205416604051908152f35b346101d55760003660031901126101d5576040516000805490826118b583611b50565b91828252602093600190856001821691826000146110345750506001146118e35750610fc392500383611abf565b6000808052859250907f290decd9548b62a8d60345a988386fc84ba6bc95484008f6362f93160ef3e5635b858310611925575050610fc3935082010185610fb6565b8054838901850152879450869390920191810161190e565b346101d55760203660031901126101d5576004359063ffffffff60e01b82168092036101d557602091632483248360e11b811490811561197f575b5015158152f35b6380ac58cd60e01b8114915081156119b1575b81156119a0575b5083611978565b6301ffc9a760e01b14905083611999565b635b5e139f60e01b81149150611992565b60005b8381106119d55750506000910152565b81810151838201526020016119c5565b906020916119fe815180928185528580860191016119c2565b601f01601f1916010190565b600435906001600160a01b03821682036101d557565b602435906001600160a01b03821682036101d557565b60609060031901126101d5576001600160a01b039060043582811681036101d5579160243590811681036101d5579060443590565b6080810190811067ffffffffffffffff8211176107aa57604052565b6020810190811067ffffffffffffffff8211176107aa57604052565b6040810190811067ffffffffffffffff8211176107aa57604052565b90601f8019910116810190811067ffffffffffffffff8211176107aa57604052565b67ffffffffffffffff81116107aa57601f01601f191660200190565b929192611b0982611ae1565b91611b176040519384611abf565b8294818452818301116101d5578281602093846000960137010152565b80548210156108935760005260206000209060021b0190600090565b90600182811c92168015611b80575b6020831014611b6a57565b634e487b7160e01b600052602260045260246000fd5b91607f1691611b5f565b90604051918260008254611b9d81611b50565b90818452602094600191600181169081600014611c0d5750600114611bce575b505050611bcc92500383611abf565b565b600090815285812095935091905b818310611bf5575050611bcc9350820101388080611bbd565b85548884018501529485019487945091830191611bdc565b92505050611bcc94925060ff191682840152151560051b820101388080611bbd565b6001600160a01b039182169290918315611db557600092828452826020956002875260409684888820541696879133151580611d1f575b509060027fddf252ad1be2c89b69c2b068fc378daa952ba7f163c4a11628f55a4df523b3ef9284611cec575b858352600381528b8320805460010190558683525289812080546001600160a01b0319168517905580a41692838303611ccb5750505050565b6064945051926364283d7b60e01b8452600484015260248301526044820152fd5b600087815260046020526040902080546001600160a01b0319169055848352600381528b83208054600019019055611c92565b91939450915080611d74575b15611d3b57859291879138611c66565b878688611d58576024915190637e27328960e01b82526004820152fd5b604491519063177e802f60e01b82523360048301526024820152fd5b503387148015611d99575b80611d2b5750858252600481523385898420541614611d2b565b5086825260058152878220338352815260ff8883205416611d7f565b604051633250574960e11b815260006004820152602490fd5b600019811461087d5760010190565b9190820180921161087d57565b9190820391821161087d57565b8115611e01570490565b634e487b7160e01b600052601260045260246000fd5b8181029291811591840414171561087d57565b6000818152600260205260409020546001600160a01b0316908115611e4d575090565b60249060405190637e27328960e01b82526004820152fd5b6007546001600160a01b03163303611e7957565b60405163118cdaa760e01b8152336004820152602490fd5b90939192833b611ea3575b5050505050565b604051630a85bd0160e11b8082526001600160a01b039384166004830152958316602482015260448101919091526080606482015294921692602092918590611ef09060848301906119e5565b039483816000978189895af1869181611f9b575b50611f65575050503d600014611f5c573d611f1e81611ae1565b90611f2c6040519283611abf565b81528093823d92013e5b82519283611f5757604051633250574960e11b815260048101849052602490fd5b019050fd5b60609250611f36565b919450915063ffffffff60e01b1603611f8357503880808080611e9c565b60249060405190633250574960e11b82526004820152fd5b9091508481813d8311611fd8575b611fb38183611abf565b81010312611fd457516001600160e01b031981168103611fd4579038611f04565b8680fd5b503d611fa9565b908151811015610893570160200190565b80156120925780816000925b61207c575061200a82611ae1565b916120186040519384611abf565b80835281601f1961202883611ae1565b013660208601375b61203957505090565b600019810190811161087d578091600a916030838306810180911161087d5760f81b6001600160f81b03191660001a906120739086611fdf565b53049081612030565b9091612089600a91611dce565b92910480611ffc565b5060405161209f81611aa3565b60018152600360fc1b60208201529056fea26469706673582212200335f697b9727fec0f63e16fa87db80194b6df3bd9cf4377d530aa848b3b921064736f6c63430008190033",
    "linkReferences": {}
  },
  "methodIdentifiers": {
    "DECAY_PERIOD()": "1e9d4904",
    "DECAY_RATE()": "1de40e49",
    "MAX_TRUST_SCORE()": "74c8d377",
    "MIN_REVIEWS_FOR_NFT()": "a8e007b7",
    "MIN_SCORE_FOR_NFT()": "77ee7b60",
    "approve(address,uint256)": "095ea7b3",
    "balanceOf(address)": "70a08231",
    "endorseSkill(address,string,uint256)": "2b082460",
    "getApproved(uint256)": "081812fc",
    "getReputationScore(address)": "75a67d5c",
    "getSkillEndorsements(address)": "aa8bf35a",
    "getTrustScore(address)": "5e09eea1",
    "hasReputationNft(address)": "d58e5c85",
    "isApprovedForAll(address,address)": "e985e9c5",
    "name()": "06fdde03",
    "owner()": "8da5cb5b",
    "ownerOf(uint256)": "6352211e",
    "renounceOwnership()": "715018a6",
    "reputationScores(address)": "fe0438b2",
    "reputationTokens(address)": "1ec05d86",
    "safeTransferFrom(address,address,uint256)": "42842e0e",
    "safeTransferFrom(address,address,uint256,bytes)": "b88d4fde",
    "setApprovalForAll(address,bool)": "a22cb465",
    "skillEndorsements(address,uint256)": "d64fb407",
    "supportsInterface(bytes4)": "01ffc9a7",
    "symbol()": "95d89b41",
    "tokenURI(uint256)": "c87b56dd",
    "transferFrom(address,address,uint256)": "23b872dd",
    "transferOwnership(address)": "f2fde38b",
    "trustScores(address)": "12df0fc4",
    "updateReputation(address,uint256,bool)": "ec604e46"
  },
  "id": 66
}