{
  "abi": [
    {
      "type": "constructor",
      "inputs": [
        {
          "name": "admin",
          "type": "address",
          "internalType": "address"
        },
        {
          "name": "priceWeiPro",
          "type": "uint256",
          "internalType": "uint256"
        },
        {
          "name": "priceWeiEnterprise",
          "type": "uint256",
          "internalType": "uint256"
        }
      ],
      "stateMutability": "nonpayable"
    },
    {
      "type": "function",
      "name": "ADMIN_ROLE",
      "inputs": [],
      "outputs": [
        {
          "name": "",
          "type": "bytes32",
          "internalType": "bytes32"
        }
      ],
      "stateMutability": "view"
    },
    {
      "type": "function",
      "name": "DEFAULT_ADMIN_ROLE",
      "inputs": [],
      "outputs": [
        {
          "name": "",
          "type": "bytes32",
          "internalType": "bytes32"
        }
      ],
      "stateMutability": "view"
    },
    {
      "type": "function",
      "name": "PERIOD",
      "inputs": [],
      "outputs": [
        {
          "name": "",
          "type": "uint256",
          "internalType": "uint256"
        }
      ],
      "stateMutability": "view"
    },
    {
      "type": "function",
      "name": "createPlan",
      "inputs": [
        {
          "name": "planKey",
          "type": "uint8",
          "internalType": "uint8"
        },
        {
          "name": "name",
          "type": "string",
          "internalType": "string"
        },
        {
          "name": "displayName",
          "type": "string",
          "internalType": "string"
        },
        {
          "name": "description",
          "type": "string",
          "internalType": "string"
        },
        {
          "name": "priceWei",
          "type": "uint256",
          "internalType": "uint256"
        },
        {
          "name": "maxMembers",
          "type": "uint256",
          "internalType": "uint256"
        },
        {
          "name": "features",
          "type": "string[]",
          "internalType": "string[]"
        },
        {
          "name": "isActive",
          "type": "bool",
          "internalType": "bool"
        },
        {
          "name": "sortOrder",
          "type": "uint256",
          "internalType": "uint256"
        },
        {
          "name": "isTeamPlan",
          "type": "bool",
          "internalType": "bool"
        },
        {
          "name": "feeTierBasisPoints",
          "type": "uint256",
          "internalType": "uint256"
        }
      ],
      "outputs": [],
      "stateMutability": "nonpayable"
    },
    {
      "type": "function",
      "name": "deletePlan",
      "inputs": [
        {
          "name": "planKey",
          "type": "uint8",
          "internalType": "uint8"
        }
      ],
      "outputs": [],
      "stateMutability": "nonpayable"
    },
    {
      "type": "function",
      "name": "earningRecords",
      "inputs": [
        {
          "name": "",
          "type": "uint256",
          "internalType": "uint256"
        }
      ],
      "outputs": [
        {
          "name": "payer",
          "type": "address",
          "internalType": "address"
        },
        {
          "name": "team",
          "type": "address",
          "internalType": "address"
        },
        {
          "name": "planKey",
          "type": "uint8",
          "internalType": "uint8"
        },
        {
          "name": "amount",
          "type": "uint256",
          "internalType": "uint256"
        },
        {
          "name": "token",
          "type": "address",
          "internalType": "address"
        },
        {
          "name": "timestamp",
          "type": "uint256",
          "internalType": "uint256"
        }
      ],
      "stateMutability": "view"
    },
    {
      "type": "function",
      "name": "getActiveSubscriptionPlan",
      "inputs": [
        {
          "name": "team",
          "type": "address",
          "internalType": "address"
        }
      ],
      "outputs": [
        {
          "name": "",
          "type": "uint8",
          "internalType": "uint8"
        }
      ],
      "stateMutability": "view"
    },
    {
      "type": "function",
      "name": "getAllActivePlans",
      "inputs": [],
      "outputs": [
        {
          "name": "",
          "type": "tuple[]",
          "internalType": "struct SubscriptionManager.Plan[]",
          "components": [
            {
              "name": "planKey",
              "type": "uint8",
              "internalType": "uint8"
            },
            {
              "name": "name",
              "type": "string",
              "internalType": "string"
            },
            {
              "name": "displayName",
              "type": "string",
              "internalType": "string"
            },
            {
              "name": "description",
              "type": "string",
              "internalType": "string"
            },
            {
              "name": "priceWei",
              "type": "uint256",
              "internalType": "uint256"
            },
            {
              "name": "maxMembers",
              "type": "uint256",
              "internalType": "uint256"
            },
            {
              "name": "features",
              "type": "string[]",
              "internalType": "string[]"
            },
            {
              "name": "isActive",
              "type": "bool",
              "internalType": "bool"
            },
            {
              "name": "sortOrder",
              "type": "uint256",
              "internalType": "uint256"
            },
            {
              "name": "isTeamPlan",
              "type": "bool",
              "internalType": "bool"
            },
            {
              "name": "feeTierBasisPoints",
              "type": "uint256",
              "internalType": "uint256"
            }
          ]
        }
      ],
      "stateMutability": "view"
    },
    {
      "type": "function",
      "name": "getAllPlanKeys",
      "inputs": [],
      "outputs": [
        {
          "name": "",
          "type": "uint8[]",
          "internalType": "uint8[]"
        }
      ],
      "stateMutability": "view"
    },
    {
      "type": "function",
      "name": "getAllPlans",
      "inputs": [],
      "outputs": [
        {
          "name": "",
          "type": "tuple[]",
          "internalType": "struct SubscriptionManager.Plan[]",
          "components": [
            {
              "name": "planKey",
              "type": "uint8",
              "internalType": "uint8"
            },
            {
              "name": "name",
              "type": "string",
              "internalType": "string"
            },
            {
              "name": "displayName",
              "type": "string",
              "internalType": "string"
            },
            {
              "name": "description",
              "type": "string",
              "internalType": "string"
            },
            {
              "name": "priceWei",
              "type": "uint256",
              "internalType": "uint256"
            },
            {
              "name": "maxMembers",
              "type": "uint256",
              "internalType": "uint256"
            },
            {
              "name": "features",
              "type": "string[]",
              "internalType": "string[]"
            },
            {
              "name": "isActive",
              "type": "bool",
              "internalType": "bool"
            },
            {
              "name": "sortOrder",
              "type": "uint256",
              "internalType": "uint256"
            },
            {
              "name": "isTeamPlan",
              "type": "bool",
              "internalType": "bool"
            },
            {
              "name": "feeTierBasisPoints",
              "type": "uint256",
              "internalType": "uint256"
            }
          ]
        }
      ],
      "stateMutability": "view"
    },
    {
      "type": "function",
      "name": "getAvailableEarnings",
      "inputs": [],
      "outputs": [
        {
          "name": "",
          "type": "uint256",
          "internalType": "uint256"
        }
      ],
      "stateMutability": "view"
    },
    {
      "type": "function",
      "name": "getAvailableTokenEarnings",
      "inputs": [
        {
          "name": "token",
          "type": "address",
          "internalType": "address"
        }
      ],
      "outputs": [
        {
          "name": "",
          "type": "uint256",
          "internalType": "uint256"
        }
      ],
      "stateMutability": "view"
    },
    {
      "type": "function",
      "name": "getEarningRecord",
      "inputs": [
        {
          "name": "index",
          "type": "uint256",
          "internalType": "uint256"
        }
      ],
      "outputs": [
        {
          "name": "",
          "type": "tuple",
          "internalType": "struct SubscriptionManager.EarningRecord",
          "components": [
            {
              "name": "payer",
              "type": "address",
              "internalType": "address"
            },
            {
              "name": "team",
              "type": "address",
              "internalType": "address"
            },
            {
              "name": "planKey",
              "type": "uint8",
              "internalType": "uint8"
            },
            {
              "name": "amount",
              "type": "uint256",
              "internalType": "uint256"
            },
            {
              "name": "token",
              "type": "address",
              "internalType": "address"
            },
            {
              "name": "timestamp",
              "type": "uint256",
              "internalType": "uint256"
            }
          ]
        }
      ],
      "stateMutability": "view"
    },
    {
      "type": "function",
      "name": "getEarningRecords",
      "inputs": [
        {
          "name": "startIndex",
          "type": "uint256",
          "internalType": "uint256"
        },
        {
          "name": "endIndex",
          "type": "uint256",
          "internalType": "uint256"
        }
      ],
      "outputs": [
        {
          "name": "",
          "type": "tuple[]",
          "internalType": "struct SubscriptionManager.EarningRecord[]",
          "components": [
            {
              "name": "payer",
              "type": "address",
              "internalType": "address"
            },
            {
              "name": "team",
              "type": "address",
              "internalType": "address"
            },
            {
              "name": "planKey",
              "type": "uint8",
              "internalType": "uint8"
            },
            {
              "name": "amount",
              "type": "uint256",
              "internalType": "uint256"
            },
            {
              "name": "token",
              "type": "address",
              "internalType": "address"
            },
            {
              "name": "timestamp",
              "type": "uint256",
              "internalType": "uint256"
            }
          ]
        }
      ],
      "stateMutability": "view"
    },
    {
      "type": "function",
      "name": "getEarningRecordsCount",
      "inputs": [],
      "outputs": [
        {
          "name": "",
          "type": "uint256",
          "internalType": "uint256"
        }
      ],
      "stateMutability": "view"
    },
    {
      "type": "function",
      "name": "getEarningsSummary",
      "inputs": [],
      "outputs": [
        {
          "name": "totalNativeEarnings",
          "type": "uint256",
          "internalType": "uint256"
        },
        {
          "name": "totalNativeWithdrawn",
          "type": "uint256",
          "internalType": "uint256"
        },
        {
          "name": "availableNativeEarnings",
          "type": "uint256",
          "internalType": "uint256"
        },
        {
          "name": "recordsCount",
          "type": "uint256",
          "internalType": "uint256"
        }
      ],
      "stateMutability": "view"
    },
    {
      "type": "function",
      "name": "getPlan",
      "inputs": [
        {
          "name": "planKey",
          "type": "uint8",
          "internalType": "uint8"
        }
      ],
      "outputs": [
        {
          "name": "",
          "type": "tuple",
          "internalType": "struct SubscriptionManager.Plan",
          "components": [
            {
              "name": "planKey",
              "type": "uint8",
              "internalType": "uint8"
            },
            {
              "name": "name",
              "type": "string",
              "internalType": "string"
            },
            {
              "name": "displayName",
              "type": "string",
              "internalType": "string"
            },
            {
              "name": "description",
              "type": "string",
              "internalType": "string"
            },
            {
              "name": "priceWei",
              "type": "uint256",
              "internalType": "uint256"
            },
            {
              "name": "maxMembers",
              "type": "uint256",
              "internalType": "uint256"
            },
            {
              "name": "features",
              "type": "string[]",
              "internalType": "string[]"
            },
            {
              "name": "isActive",
              "type": "bool",
              "internalType": "bool"
            },
            {
              "name": "sortOrder",
              "type": "uint256",
              "internalType": "uint256"
            },
            {
              "name": "isTeamPlan",
              "type": "bool",
              "internalType": "bool"
            },
            {
              "name": "feeTierBasisPoints",
              "type": "uint256",
              "internalType": "uint256"
            }
          ]
        }
      ],
      "stateMutability": "view"
    },
    {
      "type": "function",
      "name": "getPlanFeatures",
      "inputs": [
        {
          "name": "planKey",
          "type": "uint8",
          "internalType": "uint8"
        }
      ],
      "outputs": [
        {
          "name": "",
          "type": "string[]",
          "internalType": "string[]"
        }
      ],
      "stateMutability": "view"
    },
    {
      "type": "function",
      "name": "getPlanFeeTier",
      "inputs": [
        {
          "name": "planKey",
          "type": "uint8",
          "internalType": "uint8"
        }
      ],
      "outputs": [
        {
          "name": "",
          "type": "uint256",
          "internalType": "uint256"
        }
      ],
      "stateMutability": "view"
    },
    {
      "type": "function",
      "name": "getRoleAdmin",
      "inputs": [
        {
          "name": "role",
          "type": "bytes32",
          "internalType": "bytes32"
        }
      ],
      "outputs": [
        {
          "name": "",
          "type": "bytes32",
          "internalType": "bytes32"
        }
      ],
      "stateMutability": "view"
    },
    {
      "type": "function",
      "name": "getUserFeeTier",
      "inputs": [
        {
          "name": "team",
          "type": "address",
          "internalType": "address"
        }
      ],
      "outputs": [
        {
          "name": "",
          "type": "uint256",
          "internalType": "uint256"
        }
      ],
      "stateMutability": "view"
    },
    {
      "type": "function",
      "name": "grantRole",
      "inputs": [
        {
          "name": "role",
          "type": "bytes32",
          "internalType": "bytes32"
        },
        {
          "name": "account",
          "type": "address",
          "internalType": "address"
        }
      ],
      "outputs": [],
      "stateMutability": "nonpayable"
    },
    {
      "type": "function",
      "name": "hasRole",
      "inputs": [
        {
          "name": "role",
          "type": "bytes32",
          "internalType": "bytes32"
        },
        {
          "name": "account",
          "type": "address",
          "internalType": "address"
        }
      ],
      "outputs": [
        {
          "name": "",
          "type": "bool",
          "internalType": "bool"
        }
      ],
      "stateMutability": "view"
    },
    {
      "type": "function",
      "name": "paidUntil",
      "inputs": [
        {
          "name": "team",
          "type": "address",
          "internalType": "address"
        }
      ],
      "outputs": [
        {
          "name": "",
          "type": "uint256",
          "internalType": "uint256"
        }
      ],
      "stateMutability": "view"
    },
    {
      "type": "function",
      "name": "paySubscription",
      "inputs": [
        {
          "name": "team",
          "type": "address",
          "internalType": "address"
        },
        {
          "name": "planKey",
          "type": "uint8",
          "internalType": "uint8"
        }
      ],
      "outputs": [],
      "stateMutability": "payable"
    },
    {
      "type": "function",
      "name": "paySubscriptionWithToken",
      "inputs": [
        {
          "name": "team",
          "type": "address",
          "internalType": "address"
        },
        {
          "name": "planKey",
          "type": "uint8",
          "internalType": "uint8"
        },
        {
          "name": "token",
          "type": "address",
          "internalType": "address"
        },
        {
          "name": "amount",
          "type": "uint256",
          "internalType": "uint256"
        }
      ],
      "outputs": [],
      "stateMutability": "nonpayable"
    },
    {
      "type": "function",
      "name": "planExists",
      "inputs": [
        {
          "name": "",
          "type": "uint8",
          "internalType": "uint8"
        }
      ],
      "outputs": [
        {
          "name": "",
          "type": "bool",
          "internalType": "bool"
        }
      ],
      "stateMutability": "view"
    },
    {
      "type": "function",
      "name": "planExistsCheck",
      "inputs": [
        {
          "name": "planKey",
          "type": "uint8",
          "internalType": "uint8"
        }
      ],
      "outputs": [
        {
          "name": "",
          "type": "bool",
          "internalType": "bool"
        }
      ],
      "stateMutability": "view"
    },
    {
      "type": "function",
      "name": "planKeys",
      "inputs": [
        {
          "name": "",
          "type": "uint256",
          "internalType": "uint256"
        }
      ],
      "outputs": [
        {
          "name": "",
          "type": "uint8",
          "internalType": "uint8"
        }
      ],
      "stateMutability": "view"
    },
    {
      "type": "function",
      "name": "planPriceWei",
      "inputs": [
        {
          "name": "",
          "type": "uint8",
          "internalType": "uint8"
        }
      ],
      "outputs": [
        {
          "name": "",
          "type": "uint256",
          "internalType": "uint256"
        }
      ],
      "stateMutability": "view"
    },
    {
      "type": "function",
      "name": "plans",
      "inputs": [
        {
          "name": "",
          "type": "uint8",
          "internalType": "uint8"
        }
      ],
      "outputs": [
        {
          "name": "planKey",
          "type": "uint8",
          "internalType": "uint8"
        },
        {
          "name": "name",
          "type": "string",
          "internalType": "string"
        },
        {
          "name": "displayName",
          "type": "string",
          "internalType": "string"
        },
        {
          "name": "description",
          "type": "string",
          "internalType": "string"
        },
        {
          "name": "priceWei",
          "type": "uint256",
          "internalType": "uint256"
        },
        {
          "name": "maxMembers",
          "type": "uint256",
          "internalType": "uint256"
        },
        {
          "name": "isActive",
          "type": "bool",
          "internalType": "bool"
        },
        {
          "name": "sortOrder",
          "type": "uint256",
          "internalType": "uint256"
        },
        {
          "name": "isTeamPlan",
          "type": "bool",
          "internalType": "bool"
        },
        {
          "name": "feeTierBasisPoints",
          "type": "uint256",
          "internalType": "uint256"
        }
      ],
      "stateMutability": "view"
    },
    {
      "type": "function",
      "name": "renounceRole",
      "inputs": [
        {
          "name": "role",
          "type": "bytes32",
          "internalType": "bytes32"
        },
        {
          "name": "callerConfirmation",
          "type": "address",
          "internalType": "address"
        }
      ],
      "outputs": [],
      "stateMutability": "nonpayable"
    },
    {
      "type": "function",
      "name": "revokeRole",
      "inputs": [
        {
          "name": "role",
          "type": "bytes32",
          "internalType": "bytes32"
        },
        {
          "name": "account",
          "type": "address",
          "internalType": "address"
        }
      ],
      "outputs": [],
      "stateMutability": "nonpayable"
    },
    {
      "type": "function",
      "name": "setPlanPrice",
      "inputs": [
        {
          "name": "planKey",
          "type": "uint8",
          "internalType": "uint8"
        },
        {
          "name": "newPriceWei",
          "type": "uint256",
          "internalType": "uint256"
        }
      ],
      "outputs": [],
      "stateMutability": "nonpayable"
    },
    {
      "type": "function",
      "name": "setSupportedToken",
      "inputs": [
        {
          "name": "token",
          "type": "address",
          "internalType": "address"
        },
        {
          "name": "supported",
          "type": "bool",
          "internalType": "bool"
        }
      ],
      "outputs": [],
      "stateMutability": "nonpayable"
    },
    {
      "type": "function",
      "name": "supportedTokens",
      "inputs": [
        {
          "name": "",
          "type": "address",
          "internalType": "address"
        }
      ],
      "outputs": [
        {
          "name": "",
          "type": "bool",
          "internalType": "bool"
        }
      ],
      "stateMutability": "view"
    },
    {
      "type": "function",
      "name": "supportsInterface",
      "inputs": [
        {
          "name": "id",
          "type": "bytes4",
          "internalType": "bytes4"
        }
      ],
      "outputs": [
        {
          "name": "",
          "type": "bool",
          "internalType": "bool"
        }
      ],
      "stateMutability": "view"
    },
    {
      "type": "function",
      "name": "tokenEarnings",
      "inputs": [
        {
          "name": "",
          "type": "address",
          "internalType": "address"
        }
      ],
      "outputs": [
        {
          "name": "",
          "type": "uint256",
          "internalType": "uint256"
        }
      ],
      "stateMutability": "view"
    },
    {
      "type": "function",
      "name": "tokenWithdrawn",
      "inputs": [
        {
          "name": "",
          "type": "address",
          "internalType": "address"
        }
      ],
      "outputs": [
        {
          "name": "",
          "type": "uint256",
          "internalType": "uint256"
        }
      ],
      "stateMutability": "view"
    },
    {
      "type": "function",
      "name": "totalEarnings",
      "inputs": [],
      "outputs": [
        {
          "name": "",
          "type": "uint256",
          "internalType": "uint256"
        }
      ],
      "stateMutability": "view"
    },
    {
      "type": "function",
      "name": "totalWithdrawn",
      "inputs": [],
      "outputs": [
        {
          "name": "",
          "type": "uint256",
          "internalType": "uint256"
        }
      ],
      "stateMutability": "view"
    },
    {
      "type": "function",
      "name": "updatePlan",
      "inputs": [
        {
          "name": "planKey",
          "type": "uint8",
          "internalType": "uint8"
        },
        {
          "name": "name",
          "type": "string",
          "internalType": "string"
        },
        {
          "name": "displayName",
          "type": "string",
          "internalType": "string"
        },
        {
          "name": "description",
          "type": "string",
          "internalType": "string"
        },
        {
          "name": "priceWei",
          "type": "uint256",
          "internalType": "uint256"
        },
        {
          "name": "maxMembers",
          "type": "uint256",
          "internalType": "uint256"
        },
        {
          "name": "features",
          "type": "string[]",
          "internalType": "string[]"
        },
        {
          "name": "isActive",
          "type": "bool",
          "internalType": "bool"
        },
        {
          "name": "sortOrder",
          "type": "uint256",
          "internalType": "uint256"
        },
        {
          "name": "isTeamPlan",
          "type": "bool",
          "internalType": "bool"
        },
        {
          "name": "feeTierBasisPoints",
          "type": "uint256",
          "internalType": "uint256"
        }
      ],
      "outputs": [],
      "stateMutability": "nonpayable"
    },
    {
      "type": "function",
      "name": "withdrawEarnings",
      "inputs": [
        {
          "name": "to",
          "type": "address",
          "internalType": "address payable"
        },
        {
          "name": "amount",
          "type": "uint256",
          "internalType": "uint256"
        }
      ],
      "outputs": [],
      "stateMutability": "nonpayable"
    },
    {
      "type": "function",
      "name": "withdrawTokenEarnings",
      "inputs": [
        {
          "name": "token",
          "type": "address",
          "internalType": "address"
        },
        {
          "name": "to",
          "type": "address",
          "internalType": "address"
        },
        {
          "name": "amount",
          "type": "uint256",
          "internalType": "uint256"
        }
      ],
      "outputs": [],
      "stateMutability": "nonpayable"
    },
    {
      "type": "event",
      "name": "EarningsWithdrawn",
      "inputs": [
        {
          "name": "to",
          "type": "address",
          "indexed": true,
          "internalType": "address"
        },
        {
          "name": "amount",
          "type": "uint256",
          "indexed": false,
          "internalType": "uint256"
        },
        {
          "name": "token",
          "type": "address",
          "indexed": true,
          "internalType": "address"
        }
      ],
      "anonymous": false
    },
    {
      "type": "event",
      "name": "PlanCreated",
      "inputs": [
        {
          "name": "planKey",
          "type": "uint8",
          "indexed": true,
          "internalType": "uint8"
        },
        {
          "name": "name",
          "type": "string",
          "indexed": false,
          "internalType": "string"
        },
        {
          "name": "priceWei",
          "type": "uint256",
          "indexed": false,
          "internalType": "uint256"
        }
      ],
      "anonymous": false
    },
    {
      "type": "event",
      "name": "PlanDeleted",
      "inputs": [
        {
          "name": "planKey",
          "type": "uint8",
          "indexed": true,
          "internalType": "uint8"
        }
      ],
      "anonymous": false
    },
    {
      "type": "event",
      "name": "PlanUpdated",
      "inputs": [
        {
          "name": "planKey",
          "type": "uint8",
          "indexed": true,
          "internalType": "uint8"
        },
        {
          "name": "name",
          "type": "string",
          "indexed": false,
          "internalType": "string"
        },
        {
          "name": "priceWei",
          "type": "uint256",
          "indexed": false,
          "internalType": "uint256"
        }
      ],
      "anonymous": false
    },
    {
      "type": "event",
      "name": "RoleAdminChanged",
      "inputs": [
        {
          "name": "role",
          "type": "bytes32",
          "indexed": true,
          "internalType": "bytes32"
        },
        {
          "name": "previousAdminRole",
          "type": "bytes32",
          "indexed": true,
          "internalType": "bytes32"
        },
        {
          "name": "newAdminRole",
          "type": "bytes32",
          "indexed": true,
          "internalType": "bytes32"
        }
      ],
      "anonymous": false
    },
    {
      "type": "event",
      "name": "RoleGranted",
      "inputs": [
        {
          "name": "role",
          "type": "bytes32",
          "indexed": true,
          "internalType": "bytes32"
        },
        {
          "name": "account",
          "type": "address",
          "indexed": true,
          "internalType": "address"
        },
        {
          "name": "sender",
          "type": "address",
          "indexed": true,
          "internalType": "address"
        }
      ],
      "anonymous": false
    },
    {
      "type": "event",
      "name": "RoleRevoked",
      "inputs": [
        {
          "name": "role",
          "type": "bytes32",
          "indexed": true,
          "internalType": "bytes32"
        },
        {
          "name": "account",
          "type": "address",
          "indexed": true,
          "internalType": "address"
        },
        {
          "name": "sender",
          "type": "address",
          "indexed": true,
          "internalType": "address"
        }
      ],
      "anonymous": false
    },
    {
      "type": "event",
      "name": "SubscriptionPaid",
      "inputs": [
        {
          "name": "team",
          "type": "address",
          "indexed": true,
          "internalType": "address"
        },
        {
          "name": "planKey",
          "type": "uint8",
          "indexed": true,
          "internalType": "uint8"
        },
        {
          "name": "paidUntil",
          "type": "uint256",
          "indexed": false,
          "internalType": "uint256"
        }
      ],
      "anonymous": false
    },
    {
      "type": "event",
      "name": "TokenSupportUpdated",
      "inputs": [
        {
          "name": "token",
          "type": "address",
          "indexed": true,
          "internalType": "address"
        },
        {
          "name": "supported",
          "type": "bool",
          "indexed": false,
          "internalType": "bool"
        }
      ],
      "anonymous": false
    },
    {
      "type": "error",
      "name": "AccessControlBadConfirmation",
      "inputs": []
    },
    {
      "type": "error",
      "name": "AccessControlUnauthorizedAccount",
      "inputs": [
        {
          "name": "account",
          "type": "address",
          "internalType": "address"
        },
        {
          "name": "neededRole",
          "type": "bytes32",
          "internalType": "bytes32"
        }
      ]
    },
    {
      "type": "error",
      "name": "CannotDeleteFreePlan",
      "inputs": []
    },
    {
      "type": "error",
      "name": "EmptyName",
      "inputs": [
        {
          "name": "field",
          "type": "string",
          "internalType": "string"
        }
      ]
    },
    {
      "type": "error",
      "name": "IncorrectPaymentAmount",
      "inputs": [
        {
          "name": "received",
          "type": "uint256",
          "internalType": "uint256"
        },
        {
          "name": "expected",
          "type": "uint256",
          "internalType": "uint256"
        }
      ]
    },
    {
      "type": "error",
      "name": "IndexOutOfBounds",
      "inputs": [
        {
          "name": "index",
          "type": "uint256",
          "internalType": "uint256"
        },
        {
          "name": "length",
          "type": "uint256",
          "internalType": "uint256"
        }
      ]
    },
    {
      "type": "error",
      "name": "InsufficientEarnings",
      "inputs": [
        {
          "name": "requested",
          "type": "uint256",
          "internalType": "uint256"
        },
        {
          "name": "available",
          "type": "uint256",
          "internalType": "uint256"
        }
      ]
    },
    {
      "type": "error",
      "name": "InvalidAddress",
      "inputs": [
        {
          "name": "provided",
          "type": "address",
          "internalType": "address"
        }
      ]
    },
    {
      "type": "error",
      "name": "InvalidRange",
      "inputs": [
        {
          "name": "startIndex",
          "type": "uint256",
          "internalType": "uint256"
        },
        {
          "name": "endIndex",
          "type": "uint256",
          "internalType": "uint256"
        }
      ]
    },
    {
      "type": "error",
      "name": "InvalidWithdrawalAmount",
      "inputs": []
    },
    {
      "type": "error",
      "name": "PlanAlreadyExists",
      "inputs": [
        {
          "name": "planKey",
          "type": "uint8",
          "internalType": "uint8"
        }
      ]
    },
    {
      "type": "error",
      "name": "PlanNotFound",
      "inputs": [
        {
          "name": "planKey",
          "type": "uint8",
          "internalType": "uint8"
        }
      ]
    },
    {
      "type": "error",
      "name": "ReentrancyGuardReentrantCall",
      "inputs": []
    },
    {
      "type": "error",
      "name": "TokenNotSupported",
      "inputs": [
        {
          "name": "token",
          "type": "address",
          "internalType": "address"
        }
      ]
    },
    {
      "type": "error",
      "name": "TransferFailed",
      "inputs": []
    },
    {
      "type": "error",
      "name": "WithdrawalFailed",
      "inputs": []
    }
  ],
  "bytecode": {
    "object": "0x6080346128c457601f61628138819003918201601f19168301916001600160401b038311848410176116e7578084926060946040528339810103126128c4578051906001600160a01b03821682036128c45761007260406020830151920151926001805561006c81612927565b506129a5565b5060046020527fabd6e7cb50984ff9c2f3e18a2660c3353dadf4e3291deeb275dae2cd1e44fe0581905560026000527f91da3fd0782e51c6b3986e9e672fd566868e71f3dbc2d6c2cd6fbb3e361af2a78290556100cd6128e9565b6002815260005b604081106128b357506100e5612908565b601781527f426173696320657363726f772070726f74656374696f6e000000000000000000602082015261011882612a87565b5261012281612a87565b5061012b612908565b601181527010dbdb5b5d5b9a5d1e481cdd5c1c1bdc9d607a1b602082015261015282612a94565b5261015c81612a94565b506101656128c9565b9060008252610172612908565b60048152636672656560e01b60208201526020830152610190612908565b60048152634672656560e01b602082015260408301526101ae612908565b601b81527f5065726665637420666f722067657474696e67207374617274656400000000006020820152606083015260006080830152600360a083015260c0820152600160e08201526001610100820152600061012082015260fa61014082015260008052600560205260406000209060ff81511660ff19835416178255602081015180519060018060401b0382116116e75761024e6001850154612ad4565b601f811161287e575b50602090601f831160011461280c5761028992916000918361176b575b50508160011b916000199060031b1c19161790565b60018301555b60408101518051906001600160401b0382116116e7576102b26002850154612ad4565b601f81116127d7575b50602090601f8311600114612765576102ec92916000918361176b5750508160011b916000199060031b1c19161790565b60028301555b60608101518051906001600160401b0382116116e7576103156003850154612ad4565b601f8111612730575b50602090601f83116001146126be5761034f92916000918361176b5750508160011b916000199060031b1c19161790565b60038301555b6080810151600483015560a0810151600583015560c08101518051906801000000000000000082116116e7576006840154826006860155808310612646575b5060200190600684016000526020600020916000905b8282106125365750505050610140816103da60e0600a9401511515600786019060ff801983541691151516179055565b61010081015160088501556104056101208201511515600986019060ff801983541691151516179055565b0151910155600654680100000000000000008110156116e75760018101806006558110156116d157600581901c60008051602061626183398151915201805460ff60039390931b60f8169290921b1990911690556000805260076020527f6d5257204ebe7d88fd91ae87941cb2dd9d8062b64ae5a2bd2d28ec40b9fbf6df805460ff191660011790556040516001600160401b0360808201908111908211176116e757608081016040526003815260005b6060811061252557506104c7612908565b601b81527f5072696f726974792064697370757465207265736f6c7574696f6e000000000060208201526104fa82612a87565b5261050481612a87565b5061050d612908565b601881527f416476616e63656420657363726f772066656174757265730000000000000000602082015261054082612a94565b5261054a81612a94565b50610553612908565b601081526f141c9a5bdc9a5d1e481cdd5c1c1bdc9d60821b602082015261057982612aa4565b5261058381612aa4565b5061058c6128c9565b9060018252610599612908565b600381526270726f60e81b602082015260208301526105b6612908565b600381526250726f60e81b602082015260408301526105d3612908565b6011815270466f722067726f77696e67207465616d7360781b60208201526060830152826080830152601960a083015260c0820152600160e08201526002610100820152600061012082015260c86101408201526001600052600560205260406000209060ff81511660ff19835416178255602081015180519060018060401b0382116116e7576106676001850154612ad4565b601f81116124f0575b50602090601f831160011461247e576106a192916000918361176b5750508160011b916000199060031b1c19161790565b60018301555b60408101518051906001600160401b0382116116e7576106ca6002850154612ad4565b601f8111612449575b50602090601f83116001146123d75761070492916000918361176b5750508160011b916000199060031b1c19161790565b60028301555b60608101518051906001600160401b0382116116e75761072d6003850154612ad4565b601f81116123a2575b50602090601f83116001146123305761076792916000918361176b5750508160011b916000199060031b1c19161790565b60038301555b6080810151600483015560a0810151600583015560c08101518051906801000000000000000082116116e75760068401548260068601558083106122b8575b5060200190600684016000526020600020916000905b8282106121a85750505050610140816107f260e0600a9401511515600786019060ff801983541691151516179055565b610100810151600885015561081d6101208201511515600986019060ff801983541691151516179055565b0151910155600654680100000000000000008110156116e75760018101806006558110156116d157600581901c60008051602061626183398151915201805460ff60039390931b60f81692831b191660019283901b179055600081905260076020527fb39221ace053465ec3453ce2b36430bd138b997ecea25c1043da0c366812b828805460ff191690911790556108b3612a45565b6108bb612908565b601b81527f4150492061636365737320666f7220696e746567726174696f6e73000000000060208201526108ee82612a87565b526108f881612a87565b50610901612908565b601481527f32342f37207072656d69756d20737570706f7274000000000000000000000000602082015261093482612a94565b5261093e81612a94565b50610947612908565b601b81527f5072696f726974792064697370757465207265736f6c7574696f6e0000000000602082015261097a82612aa4565b5261098481612aa4565b5061098d612908565b601e81527f437573746f6d20736d61727420636f6e7472616374206665617475726573000060208201526109c082612ab4565b526109ca81612ab4565b506109d36128c9565b90600282526109e0612908565b600a815269656e746572707269736560b01b60208201526020830152610a04612908565b600a815269456e746572707269736560b01b60208201526040830152610a28612908565b601781527f466f72206c61726765206f7267616e697a6174696f6e730000000000000000006020820152606083015283608083015260001960a083015260c0820152600160e08201526003610100820152600061012082015260966101408201526002600052600560205260406000209060ff81511660ff19835416178255602081015180519060018060401b0382116116e757610ac96001850154612ad4565b601f8111612173575b50602090601f831160011461210157610b0392916000918361176b5750508160011b916000199060031b1c19161790565b60018301555b60408101518051906001600160401b0382116116e757610b2c6002850154612ad4565b601f81116120cc575b50602090601f831160011461205a57610b6692916000918361176b5750508160011b916000199060031b1c19161790565b60028301555b60608101518051906001600160401b0382116116e757610b8f6003850154612ad4565b601f8111612025575b50602090601f8311600114611fb357610bc992916000918361176b5750508160011b916000199060031b1c19161790565b60038301555b6080810151600483015560a0810151600583015560c08101518051906801000000000000000082116116e7576006840154826006860155808310611f3b575b5060200190600684016000526020600020916000905b828210611e2b575050505061014081610c5460e0600a9401511515600786019060ff801983541691151516179055565b6101008101516008850155610c7f6101208201511515600986019060ff801983541691151516179055565b0151910155600654680100000000000000008110156116e75760018101806006558110156116d157600581901c60008051602061626183398151915201805460ff60039390931b60f81692831b191660029283901b17905560005260076020527fb7c774451310d1be4108bc180d1b52823cb0ee0274a6c0081bcaf94f115fb96d805460ff19166001179055610d13612a45565b610d1b612908565b601881527f53686172656420657363726f77206d616e6167656d656e7400000000000000006020820152610d4e82612a87565b52610d5881612a87565b50610d61612908565b601781527f5465616d2064697370757465207265736f6c7574696f6e0000000000000000006020820152610d9482612a94565b52610d9e81612a94565b50610da7612908565b601481527f436f6e736f6c6964617465642062696c6c696e670000000000000000000000006020820152610dda82612aa4565b52610de481612aa4565b50610ded612908565b601681527f5465616d20616374697669747920747261636b696e67000000000000000000006020820152610e2082612ab4565b52610e2a81612ab4565b5081600381020460031482151715611a8757610e446128c9565b9060038252610e51612908565b60088152677465616d5f70726f60c01b60208201526020830152610e73612908565b60088152675465616d2050726f60c01b60208201526040830152610e956128e9565b602181527f50726f20666561747572657320666f7220796f757220656e74697265207465616020820152606d60f81b60408201526060830152600383026080830152601960a083015260c0820152600160e08201526004610100820152600161012082015260c86101408201526003600052600560205260406000209060ff81511660ff19835416178255602081015180519060018060401b0382116116e757610f426001850154612ad4565b601f8111611df6575b50602090601f8311600114611d8457610f7c92916000918361176b5750508160011b916000199060031b1c19161790565b60018301555b60408101518051906001600160401b0382116116e757610fa56002850154612ad4565b601f8111611d4f575b50602090601f8311600114611cdd57610fdf92916000918361176b5750508160011b916000199060031b1c19161790565b60028301555b60608101518051906001600160401b0382116116e7576110086003850154612ad4565b601f8111611ca8575b50602090601f8311600114611c365761104292916000918361176b5750508160011b916000199060031b1c19161790565b60038301555b6080810151600483015560a0810151600583015560c08101518051906801000000000000000082116116e7576006840154826006860155808310611bbe575b5060200190600684016000526020600020916000905b828210611aae5750505050610140816110cd60e0600a9401511515600786019060ff801983541691151516179055565b61010081015160088501556110f86101208201511515600986019060ff801983541691151516179055565b015191015560065490680100000000000000008210156116e75760018201806006558210156116d157600582901c60008051602061626183398151915201805460ff600394851b60f81690811b199091169084901b17905560008290527f3be6fd20d5acfde5b873b48692cd31f4d3c7e8ee8a813af4696af8859e5ca6c6805460ff191660011790556004602052027f2e174c10e159ea99b867ce3205125c24a42d128804e4070ed6fcc8cc98166aa0556040516001600160401b0360c08201908111908211176116e75760c081016040526005815260005b60a08110611a9d57506111e2612908565b601681527f556e6c696d69746564207465616d206d656d6265727300000000000000000000602082015261121582612a87565b5261121f81612a87565b50611228612908565b600f81526e5465616d204150492061636365737360881b602082015261124d82612a94565b5261125781612a94565b50611260612908565b601381527f57686974652d6c6162656c206f7074696f6e7300000000000000000000000000602082015261129382612aa4565b5261129d81612aa4565b506112a6612908565b601681527f446564696361746564207465616d20737570706f72740000000000000000000060208201526112d982612ab4565b526112e381612ab4565b506112ec612908565b601a81527f437573746f6d20636f6e7472616374206465706c6f796d656e74000000000000602082015261131f82612ac4565b5261132981612ac4565b5081600381020460031482151715611a87576113436128c9565b9060048252611350612908565b600f81526e7465616d5f656e746572707269736560881b60208201526020830152611379612908565b600f81526e5465616d20456e746572707269736560881b602082015260408301526113a26128e9565b602381527f456e746572707269736520666561747572657320666f72206c61726765207465602082015262616d7360e81b6040820152606083015260038302608083015260001960a083015260c0820152600160e08201526005610100820152600161012082015260966101408201526004600052600560205260406000209060ff81511660ff19835416178255602081015192835160018060401b0381116116e7576114526001850154612ad4565b601f8111611a52575b506020601f82116001146119e357819061148e9394959660009261176b5750508160011b916000199060031b1c19161790565b60018401555b604082015180519093906001600160401b0381116116e7576114b96002830154612ad4565b601f81116119ae575b506020601f821160011461193f5781906114f59394959660009261176b5750508160011b916000199060031b1c19161790565b60028201555b606083015180519093906001600160401b0381116116e7576115206003840154612ad4565b601f811161190a575b506020601f821160011461189b57819061155c9394959660009261176b5750508160011b916000199060031b1c19161790565b60038301555b6080810151600483015560a0810151600583015560c08101518051906801000000000000000082116116e7576006840154826006860155808310611823575b5060200190600684016000526020600020916000905b8282106116fd578686600a610140886115e560e08201511515600786019060ff801983541691151516179055565b61010081015160088501556116106101208201511515600986019060ff801983541691151516179055565b015191015560065490680100000000000000008210156116e75760018201806006558210156116d157600582901c60008051602061626183398151915201805460ff600394851b60f81690811b1990911660049182901b1790915560008190527fb805995a7ec585a251200611a61d179cfd7fb105e1ab17dc415a7336783786f7805460ff19166001179055602052027f1a1e6821cde7d0159c0d293177871e09677b4e42307c7db3ba94f8648a5a050f5560405161371b9081612b268239f35b634e487b7160e01b600052603260045260246000fd5b634e487b7160e01b600052604160045260246000fd5b80518051906001600160401b0382116116e75761171a8654612ad4565b601f81116117e6575b50602090601f8311600114611776579261175c8360019594602094879660009261176b5750508160011b916000199060031b1c19161790565b87555b019401910190926115b7565b015190503880610274565b908660005260206000209160005b601f19851681106117ce575083602093600196938796938794601f198116106117b5575b505050811b01875561175f565b015160001960f88460031b161c191690553880806117a8565b91926020600181928685015181550194019201611784565b61181390876000526020600020601f850160051c81019160208610611819575b601f0160051c0190612b0e565b38611723565b9091508190611806565b600685016000526020600020908382015b81830181106118445750506115a1565b8061185160019254612ad4565b8061185e575b5001611834565b601f811183146118745750600081555b38611857565b600090828252611892601f60208420920160051c8201858301612b0e565b8183555561186e565b6003840160005260206000209060005b601f19841681106118f2575060019394959683601f198116106118d9575b505050811b016003830155611562565b015160001960f88460031b161c191690553880806118c9565b9091602060018192858b0151815501930191016118ab565b61193990600385016000526020600020601f840160051c8101916020851061181957601f0160051c0190612b0e565b38611529565b6002830160005260206000209060005b601f1984168110611996575060019394959683601f1981161061197d575b505050811b0160028201556114fb565b015160001960f88460031b161c1916905538808061196d565b9091602060018192858b01518155019301910161194f565b6119dd90600284016000526020600020601f840160051c8101916020851061181957601f0160051c0190612b0e565b386114c2565b6001850160005260206000209060005b601f1984168110611a3a575060019394959683601f19811610611a21575b505050811b016001840155611494565b015160001960f88460031b161c19169055388080611a11565b9091602060018192858b0151815501930191016119f3565b611a8190600186016000526020600020601f840160051c8101916020851061181957601f0160051c0190612b0e565b3861145b565b634e487b7160e01b600052601160045260246000fd5b8060606020809385010152016111d1565b80518051906001600160401b0382116116e757611acb8654612ad4565b601f8111611b8c575b50602090601f8311600114611b1c5792611b0d8360019594602094879660009261176b5750508160011b916000199060031b1c19161790565b87555b0194019101909261109d565b908660005260206000209160005b601f1985168110611b74575083602093600196938796938794601f19811610611b5b575b505050811b018755611b10565b015160001960f88460031b161c19169055388080611b4e565b91926020600181928685015181550194019201611b2a565b611bb890876000526020600020601f850160051c8101916020861061181957601f0160051c0190612b0e565b38611ad4565b600685016000526020600020908382015b8183018110611bdf575050611087565b80611bec60019254612ad4565b80611bf9575b5001611bcf565b601f81118314611c0f5750600081555b38611bf2565b600090828252611c2d601f60208420920160051c8201858301612b0e565b81835555611c09565b9190600385016000526020600020906000935b601f1984168510611c8d576001945083601f19811610611c74575b505050811b016003830155611048565b015160001960f88460031b161c19169055388080611c64565b81810151835560209485019460019093019290910190611c49565b611cd790600386016000526020600020601f850160051c8101916020861061181957601f0160051c0190612b0e565b38611011565b9190600285016000526020600020906000935b601f1984168510611d34576001945083601f19811610611d1b575b505050811b016002830155610fe5565b015160001960f88460031b161c19169055388080611d0b565b81810151835560209485019460019093019290910190611cf0565b611d7e90600286016000526020600020601f850160051c8101916020861061181957601f0160051c0190612b0e565b38610fae565b9190600185016000526020600020906000935b601f1984168510611ddb576001945083601f19811610611dc2575b505050811b016001830155610f82565b015160001960f88460031b161c19169055388080611db2565b81810151835560209485019460019093019290910190611d97565b611e2590600186016000526020600020601f850160051c8101916020861061181957601f0160051c0190612b0e565b38610f4b565b80518051906001600160401b0382116116e757611e488654612ad4565b601f8111611f09575b50602090601f8311600114611e995792611e8a8360019594602094879660009261176b5750508160011b916000199060031b1c19161790565b87555b01940191019092610c24565b908660005260206000209160005b601f1985168110611ef1575083602093600196938796938794601f19811610611ed8575b505050811b018755611e8d565b015160001960f88460031b161c19169055388080611ecb565b91926020600181928685015181550194019201611ea7565b611f3590876000526020600020601f850160051c8101916020861061181957601f0160051c0190612b0e565b38611e51565b600685016000526020600020908382015b8183018110611f5c575050610c0e565b80611f6960019254612ad4565b80611f76575b5001611f4c565b601f81118314611f8c5750600081555b38611f6f565b600090828252611faa601f60208420920160051c8201858301612b0e565b81835555611f86565b9190600385016000526020600020906000935b601f198416851061200a576001945083601f19811610611ff1575b505050811b016003830155610bcf565b015160001960f88460031b161c19169055388080611fe1565b81810151835560209485019460019093019290910190611fc6565b61205490600386016000526020600020601f850160051c8101916020861061181957601f0160051c0190612b0e565b38610b98565b9190600285016000526020600020906000935b601f19841685106120b1576001945083601f19811610612098575b505050811b016002830155610b6c565b015160001960f88460031b161c19169055388080612088565b8181015183556020948501946001909301929091019061206d565b6120fb90600286016000526020600020601f850160051c8101916020861061181957601f0160051c0190612b0e565b38610b35565b9190600185016000526020600020906000935b601f1984168510612158576001945083601f1981161061213f575b505050811b016001830155610b09565b015160001960f88460031b161c1916905538808061212f565b81810151835560209485019460019093019290910190612114565b6121a290600186016000526020600020601f850160051c8101916020861061181957601f0160051c0190612b0e565b38610ad2565b80518051906001600160401b0382116116e7576121c58654612ad4565b601f8111612286575b50602090601f831160011461221657926122078360019594602094879660009261176b5750508160011b916000199060031b1c19161790565b87555b019401910190926107c2565b908660005260206000209160005b601f198516811061226e575083602093600196938796938794601f19811610612255575b505050811b01875561220a565b015160001960f88460031b161c19169055388080612248565b91926020600181928685015181550194019201612224565b6122b290876000526020600020601f850160051c8101916020861061181957601f0160051c0190612b0e565b386121ce565b600685016000526020600020908382015b81830181106122d95750506107ac565b806122e660019254612ad4565b806122f3575b50016122c9565b601f811183146123095750600081555b386122ec565b600090828252612327601f60208420920160051c8201858301612b0e565b81835555612303565b9190600385016000526020600020906000935b601f1984168510612387576001945083601f1981161061236e575b505050811b01600383015561076d565b015160001960f88460031b161c1916905538808061235e565b81810151835560209485019460019093019290910190612343565b6123d190600386016000526020600020601f850160051c8101916020861061181957601f0160051c0190612b0e565b38610736565b9190600285016000526020600020906000935b601f198416851061242e576001945083601f19811610612415575b505050811b01600283015561070a565b015160001960f88460031b161c19169055388080612405565b818101518355602094850194600190930192909101906123ea565b61247890600286016000526020600020601f850160051c8101916020861061181957601f0160051c0190612b0e565b386106d3565b9190600185016000526020600020906000935b601f19841685106124d5576001945083601f198116106124bc575b505050811b0160018301556106a7565b015160001960f88460031b161c191690553880806124ac565b81810151835560209485019460019093019290910190612491565b61251f90600186016000526020600020601f850160051c8101916020861061181957601f0160051c0190612b0e565b38610670565b8060606020809385010152016104b6565b80518051906001600160401b0382116116e7576125538654612ad4565b601f8111612614575b50602090601f83116001146125a457926125958360019594602094879660009261176b5750508160011b916000199060031b1c19161790565b87555b019401910190926103aa565b908660005260206000209160005b601f19851681106125fc575083602093600196938796938794601f198116106125e3575b505050811b018755612598565b015160001960f88460031b161c191690553880806125d6565b919260206001819286850151815501940192016125b2565b61264090876000526020600020601f850160051c8101916020861061181957601f0160051c0190612b0e565b3861255c565b600685016000526020600020908382015b8183018110612667575050610394565b8061267460019254612ad4565b80612681575b5001612657565b601f811183146126975750600081555b3861267a565b6000908282526126b5601f60208420920160051c8201858301612b0e565b81835555612691565b9190600385016000526020600020906000935b601f1984168510612715576001945083601f198116106126fc575b505050811b016003830155610355565b015160001960f88460031b161c191690553880806126ec565b818101518355602094850194600190930192909101906126d1565b61275f90600386016000526020600020601f850160051c8101916020861061181957601f0160051c0190612b0e565b3861031e565b9190600285016000526020600020906000935b601f19841685106127bc576001945083601f198116106127a3575b505050811b0160028301556102f2565b015160001960f88460031b161c19169055388080612793565b81810151835560209485019460019093019290910190612778565b61280690600286016000526020600020601f850160051c8101916020861061181957601f0160051c0190612b0e565b386102bb565b9190600185016000526020600020906000935b601f1984168510612863576001945083601f1981161061284a575b505050811b01600183015561028f565b015160001960f88460031b161c1916905538808061283a565b8181015183556020948501946001909301929091019061281f565b6128ad90600186016000526020600020601f850160051c8101916020861061181957601f0160051c0190612b0e565b38610257565b8060606020809385010152016100d4565b600080fd5b6040519061016082016001600160401b038111838210176116e757604052565b60405190606082016001600160401b038111838210176116e757604052565b60408051919082016001600160401b038111838210176116e757604052565b6001600160a01b031660008181527fad3228b676f7d3cd4284a5443f17f1962b36e491b30a40b2405849e597ba5fb5602052604081205490919060ff166129a157818052816020526040822081835260205260408220600160ff1982541617905533916000805160206162418339815191528180a4600190565b5090565b6001600160a01b031660008181527f7d7ffb7a348e1c6a02869081a26547b49160dd3df72d1d75a570eb9b698292ec60205260408120549091907fa49807205ce4d355092ef5a8a18f56e8913cf4a201fbe287825b095693c217759060ff16612a4057808352826020526040832082845260205260408320600160ff19825416179055600080516020616241833981519152339380a4600190565b505090565b6040519060a082016001600160401b038111838210176116e757604052600482528160005b60808110612a76575050565b806060602080938501015201612a6a565b8051156116d15760200190565b8051600110156116d15760400190565b8051600210156116d15760600190565b8051600310156116d15760800190565b8051600410156116d15760a00190565b90600182811c92168015612b04575b6020831014612aee57565b634e487b7160e01b600052602260045260246000fd5b91607f1691612ae3565b818110612b19575050565b60008155600101612b0e56fe608080604052600436101561001357600080fd5b60003560e01c90816301ffc9a714612b01575080630216ef4114612ae35780630763e0ab14612a7f5780631f86011f14612a08578063248a9ca3146129d957806325a7f819146128885780632df3eba41461286a5780632ebfc24a146128485780632f2ff15d1461280957806336568abe146127c25780633ccf52ae146127945780634b3197131461277657806350fe26191461155b57806351359c971461273857806357031bbd146121c757806360a31a88146120e257806368c4ac26146120a35780637037d5731461206857806375b238fc1461202d5780637e9f49e314611e3b5780638535dd1514611ded578063857715fe14611bab57806388b66e2914611b775780638a793c0d14611a1057806391d14854146119c357806392cff5fe146119895780639564cd241461181957806398de396a14611704578063a12b212114611608578063a217fddf146115ec578063b4d1d795146115ce578063b56f4ded14611594578063b997fe941461155b578063bdc3645a14611521578063bee1324b14610f33578063c5dfd6e314610eee578063c8514d5814610e74578063c9211c8214610d52578063d547741f14610d11578063d9e6e28714610ce6578063e798646614610c3e578063e8b032b614610a8f578063ebaef385146108dc5763f51ff61d1461020357600080fd5b346108d75761021136612d1f565b9599979661022395919594929461350f565b60ff8916600052600760205260ff604060002054166108bc5789511561088d57875115610859576040519761025789612c69565b60ff8a1689528a60208a01526040890152606088015289608088015260a087015260c0860152151560e0850152610100840152151561012083015261014082015260ff8216600052600560205260406000209060ff81511660ff1983541617825560208101518051906001600160401b038211610528576102db6001850154612e44565b601f8111610824575b50602090601f83116001146107b2576103169291600091836105ac575b50508160011b916000199060031b1c19161790565b60018301555b60408101518051906001600160401b0382116105285761033f6002850154612e44565b601f811161077d575b50602090601f831160011461070b576103799291600091836105ac5750508160011b916000199060031b1c19161790565b60028301555b60608101518051906001600160401b038211610528576103a26003850154612e44565b601f81116106d6575b50602090601f8311600114610664576103dc9291600091836105ac5750508160011b916000199060031b1c19161790565b60038301555b6080810151600483015560a081015160058301556006820160c0820151602081519161040e838561322d565b01916000526020600020916000905b82821061053e57505050506101408161044d60e0600a9401511515600786019060ff801983541691151516179055565b61010081015160088501556104786101208201511515600986019060ff801983541691151516179055565b015191015560065491600160401b8310156105285760ff826104e161051b946104c88760017fae558decf2e9c74b6790144120387f8f42428d14d8bd9b23c4f0dd0014ae22749901600655612f63565b90919060ff8084549260031b9316831b921b1916179055565b8181166000526007602052604060002060018319825416179055600460205285604060002055604051938493604085526040850190612f23565b95602084015216930390a2005b634e487b7160e01b600052604160045260246000fd5b80518051906001600160401b0382116105285761055b8654612e44565b601f8111610627575b50602090601f83116001146105b7579261059d836001959460209487966000926105ac5750508160011b916000199060031b1c19161790565b87555b0194019101909261041d565b015190503880610301565b908660005260206000209160005b601f198516811061060f575083602093600196938796938794601f198116106105f6575b505050811b0187556105a0565b015160001960f88460031b161c191690553880806105e9565b919260206001819286850151815501940192016105c5565b61065490876000526020600020601f850160051c8101916020861061065a575b601f0160051c01906131cd565b38610564565b9091508190610647565b9190600385016000526020600020906000935b601f19841685106106bb576001945083601f198116106106a2575b505050811b0160038301556103e2565b015160001960f88460031b161c19169055388080610692565b81810151835560209485019460019093019290910190610677565b61070590600386016000526020600020601f850160051c8101916020861061065a57601f0160051c01906131cd565b386103ab565b9190600285016000526020600020906000935b601f1984168510610762576001945083601f19811610610749575b505050811b01600283015561037f565b015160001960f88460031b161c19169055388080610739565b8181015183556020948501946001909301929091019061071e565b6107ac90600286016000526020600020601f850160051c8101916020861061065a57601f0160051c01906131cd565b38610348565b9190600185016000526020600020906000935b601f1984168510610809576001945083601f198116106107f0575b505050811b01600183015561031c565b015160001960f88460031b161c191690553880806107e0565b818101518355602094850194600190930192909101906107c5565b61085390600186016000526020600020601f850160051c8101916020861061065a57601f0160051c01906131cd565b386102e4565b6040516352899c2360e11b815260206004820152600b60248201526a646973706c61794e616d6560a81b6044820152606490fd5b6040516352899c2360e11b815260206004808301919091526024820152636e616d6560e01b6044820152606490fd5b60405163029d995360e11b815260ff8a166004820152602490fd5b600080fd5b346108d75760003660031901126108d757600680546000805b828110610a465750610906906133b9565b916000805b838110610924576040518061092087826130a4565b0390f35b61092d81612f63565b60ff809254600392831b1c1660005260059160209280845260079082826040600020015416610964575b505050505060010161090b565b928280600a93889996610a3b989661097d60019b612f63565b905490871b1c166000528087526109cd604060002095604051986109a08a612c69565b858854168a526109b18d8901612e7e565b908a01526109c160028801612e7e565b60408a01528601612e7e565b60608801526004850154608088015284015460a08701526109ef8b8501613409565b60c087015283015416151560e0850152600882015461010085015260098201541615156101208401520154610140820152610a2a828961334f565b52610a35818861334f565b50613500565b919086808080610957565b610a4f81612f63565b9060ff918291549060031b1c16600052600560205260076040600020015416610a7b575b6001016108f5565b90610a87600191613500565b919050610a73565b346108d75760603660031901126108d757610aa8612c38565b610ab0612c22565b9060443590610abd61350f565b610ac56136a2565b6001600160a01b03908116928315610c255716908115610c0c578015610bfa57826000526020600b8152610b08604060002054600c83526040600020549061318c565b808311610bdc575083600052600c81526040600020610b28838254613276565b905560405163a9059cbb60e01b815283600482015282602482015281816044816000895af1908115610bd057600091610ba3575b5015610b91577fc3853e6fee2a6777802bd492f98d51304bfc90876e592d928f8a361dd9a7444791604051908152a360018055005b6040516312171d8360e31b8152600490fd5b610bc39150823d8411610bc9575b610bbb8183612c85565b810190613337565b85610b5c565b503d610bb1565b6040513d6000823e3d90fd5b82604491604051916391637b3b60e01b835260048301526024820152fd5b604051639abc749160e01b8152600490fd5b604051634726455360e11b815260048101839052602490fd5b604051634726455360e11b815260048101859052602490fd5b346108d75760403660031901126108d757610c57612c38565b60243590811515908183036108d757610c6e61350f565b6001600160a01b0316918215610ccd577fbbe72b7d9dcb594ee398a4a617885aba53d833e2aad601c813ce9df99fdeb49b91610cc460209285600052600a845260406000209060ff801983541691151516179055565b604051908152a2005b604051634726455360e11b815260048101849052602490fd5b346108d75760203660031901126108d7576020610d09610d04612c38565b61345e565b604051908152f35b346108d75760403660031901126108d757610d50600435610d30612c22565b90806000526000602052610d4b600160406000200154613589565b61362d565b005b346108d75760403660031901126108d7576004356001600160a01b038116908190036108d75760243590610d8461350f565b610d8c6136a2565b8015610e5c578115610bfa57600854610da8600954809261318c565b808411610e3e575082610dba91613276565b600955600080808085855af13d15610e39573d610dd681612ca6565b90610de46040519283612c85565b8152600060203d92013e5b15610e27577fc3853e6fee2a6777802bd492f98d51304bfc90876e592d928f8a361dd9a744476020600093604051908152a360018055005b6040516327fcd9d160e01b8152600490fd5b610def565b83604491604051916391637b3b60e01b835260048301526024820152fd5b60249060405190634726455360e11b82526004820152fd5b346108d75760203660031901126108d75760ff610e8f612c02565b1680600052600760205260ff6040600020541615610ed6576000526005602052610920610ec26006604060002001613409565b604051918291602083526020830190612fa0565b60249060405190632897b96960e01b82526004820152fd5b346108d75760203660031901126108d7576001600160a01b03610f0f612c38565b16600052600b6020526020610d09604060002054600c83526040600020549061318c565b346108d75760003660031901126108d757604051806006549081835260208093019181848460066000527ff652222313e28459528d920b65115c16c04f3efc82aaedc97be59f3f377c0d3f6000905b85601f83011061139757946110a095549184828210611384575b82821061136e575b828210611358575b828210611342575b82821061132d575b828210611317575b828210611301575b8282106112eb575b8282106112d5575b8282106112bf575b8282106112a9575b828210611293575b82821061127d575b828210611267575b828210611251575b82821061123b575b828210611225575b82821061120f575b8282106111f9575b8282106111e3575b8282106111cd575b8282106111b7575b8282106111a1575b82821061118b575b828210611175575b82821061115f575b828210611149575b828210611133575b82821061111d575b828210611107575b8282106110f1575b50106110e3575b5090509392930383612c85565b604051928392818401908285525180915260408401929160005b8281106110c957505050500390f35b835160ff16855286955093810193928101926001016110ba565b60f81c815201859087611093565b6001919460ff8560f01c1681520193018461108c565b6001919460ff8560e81c16815201930184611084565b6001919460ff8560e01c1681520193018461107c565b6001919460ff8560d81c16815201930184611074565b6001919460ff8560d01c1681520193018461106c565b6001919460ff8560c81c16815201930184611064565b6001919460ff8560c01c1681520193018461105c565b6001919460ff8560b81c16815201930184611054565b6001919460ff8560b01c1681520193018461104c565b6001919460ff8560a81c16815201930184611044565b6001919460ff8560a01c1681520193018461103c565b6001919460ff8560981c16815201930184611034565b6001919460ff8560901c1681520193018461102c565b6001919460ff8560881c16815201930184611024565b6001919460ff8560801c1681520193018461101c565b6001919460ff8560781c16815201930184611014565b6001919460ff8560701c1681520193018461100c565b6001919460ff8560681c16815201930184611004565b6001919460ff8560601c16815201930184610ffc565b6001919460ff8560581c16815201930184610ff4565b6001919460ff8560501c16815201930184610fec565b6001919460ff8560481c16815201930184610fe4565b6001919460ff8560401c16815201930184610fdc565b6001919460ff8560381c16815201930184610fd4565b6001919460ff8560301c16815201930184610fcc565b6001919460ff8560281c16815201930184610fc4565b6001919460ff85831c16815201930184610fbc565b6001919460ff8560181c16815201930184610fb4565b6001919460ff8560101c16815201930184610fac565b6001919460ff8560081c16815201930184610fa4565b6001919460ff8516815201930184610f9c565b9350916001610400829693865460ff8082168352808260081c1686840152808260101c16604084015280828482826060828260181c168185015282828d82826080921c1681880152828260a095828260281c16878b015260c099838360301c168b820152838360381c1660e0820152838360401c16610100820152838360481c16610120820152838360501c16610140820152610160848460581c169101521c166101808d0152828260681c166101a08d0152828260701c166101c08d0152828260781c166101e08d01521c166102008a0152828260881c166102208a0152828260901c166102408a0152828260981c166102608a01521c16610280870152828260a81c166102a0870152828260b01c166102c0870152828260b81c166102e08701521c16610300840152808260c81c16610320840152808260d01c16610340840152808260d81c16610360840152808260e01c16610380840152808260e81c166103a08401528160f01c166103c083015260f81c6103e082015201940192018593919492610f82565b346108d75760203660031901126108d7576001600160a01b03611542612c38565b16600052600b6020526020604060002054604051908152f35b346108d75760203660031901126108d75760ff611576612c02565b166000526007602052602060ff604060002054166040519015158152f35b346108d75760203660031901126108d7576001600160a01b036115b5612c38565b16600052600c6020526020604060002054604051908152f35b346108d75760003660031901126108d757602060405162278d008152f35b346108d75760003660031901126108d757602060405160008152f35b346108d7576020806003193601126108d75760ff611624612c02565b61162c613363565b5016806000526007825260ff6040600020541615610ed65760005260058152604060002090600a6040519261166084612c69565b60ff815416845261167360018201612e7e565b8385015261168360028201612e7e565b604085015261169460038201612e7e565b606085015260048101546080850152600581015460a08501526116b960068201613409565b60c085015260ff600782015416151560e0850152600881015461010085015260ff60098201541615156101208501520154610140830152610920604051928284938452830190612ffd565b346108d75760003660031901126108d75760068054611722816133b9565b9160005b82811061173b576040518061092086826130a4565b80600a611749600193612f63565b60ff929192809354600392831b1c166000526005926020938085526117a76040600020936040519661177a88612c69565b84865416885261178b8a8701612e7e565b9088015261179b60028601612e7e565b60408801528401612e7e565b60608601526004830154608086015282015460a08501526117c9878301613409565b60c085015280600783015416151560e0850152600882015461010085015260098201541615156101208401520154610140820152611807828761334f565b52611812818661334f565b5001611726565b60403660031901126108d75761182d612c38565b60ff611837612c12565b16908160005260209060048252604060002054801580611975575b61195c5780340361193e57506001600160a01b031660008181526002835260409020549091904281111561193657905b62278d008201809211611920577f93f5683cd2a0b9749f9b7565b21809261c2a5db4d337b4bbea8dbdf4684756f9918360005260028252806040600020556003825260406000208560ff198254161790556118df34600854613276565b6008556119176040516118f181612c4e565b3381528584820152866040820152346060820152600060808201524260a0820152613283565b604051908152a3005b634e487b7160e01b600052601160045260246000fd5b504290611882565b604490604051906311ebdab360e21b82523460048301526024820152fd5b604051632897b96960e01b815260048101859052602490fd5b506007835260ff6040600020541615611852565b346108d75760203660031901126108d7576001600160a01b036119aa612c38565b1660005260026020526020604060002054604051908152f35b346108d75760403660031901126108d7576119dc612c22565b600435600052600060205260406000209060018060a01b0316600052602052602060ff604060002054166040519015158152f35b346108d75760403660031901126108d757600435602435808211611b5857600d5480821015611b3a575081611a449161318c565b90600191600181018091116119205791611a5d83612d08565b92611a6b6040519485612c85565b808452611a7781612d08565b60209390601f190160005b818110611b1e57505060005b828110611ae057505050604051918083018184528451809152816040850195019160005b828110611abf5785870386f35b909192938260c088611ad3849a8951612b6c565b0197950193929101611ab2565b9283611aff611af9611af484999786613276565b612bb1565b5061313a565b611b09828761334f565b52611b14818661334f565b5001949294611a8e565b8590611b2b979597613108565b82828801015201959395611a82565b60449250604051916363a056dd60e01b835260048301526024820152fd5b604051632457cde760e01b815260048101929092526024820152604490fd5b346108d75760203660031901126108d75760ff611b92612c02565b1660005260046020526020604060002054604051908152f35b346108d75760803660031901126108d757611bc4612c38565b611bcc612c12565b6044356001600160a01b0381811692918390036108d7576064359083600052602092600a845260ff6040600020541615611dd45760ff16948560005260048452604060002054801580611dc0575b611da757808403611d89575016928360005260028352604060002054428111600014611d8157915b62278d00830180931161192057600091606485928785526002845285604086205560038452604085208960ff19825416179055828552600b845260408520611c8b828254613276565b9055611cc1604051611c9c81612c4e565b33815289868201528a60408201528260608201528460808201524260a0820152613283565b60405194859384926323b872dd60e01b845233600485015230602485015260448401525af1908115610bd057600091611d64575b5015611d2757907f93f5683cd2a0b9749f9b7565b21809261c2a5db4d337b4bbea8dbdf4684756f991604051908152a3005b60405162461bcd60e51b8152600481018390526015602482015274151bdad95b881d1c985b9cd9995c8819985a5b1959605a1b6044820152606490fd5b611d7b9150833d8511610bc957610bbb8183612c85565b85611cf5565b504291611c42565b83604491604051916311ebdab360e21b835260048301526024820152fd5b604051632897b96960e01b815260048101889052602490fd5b506007855260ff6040600020541615611c1a565b6040516306439c6b60e01b815260048101869052602490fd5b346108d75760203660031901126108d75760ff611e08612c02565b1680600052600760205260ff6040600020541615610ed65760005260056020526020600a60406000200154604051908152f35b346108d7576020806003193601126108d757611e55612c02565b611e5d61350f565b60ff80911691826000526007815260ff60406000205416156120145782156120025760005b6006805480831015611ff85790849186611e9b85612f63565b949054600395861b1c1614611eb557505050600101611e82565b9394919390926000199180830191908211611920576104c884611eda611ee794612f63565b905490891b1c1691612f63565b82548015611fe2570192611efa84612f63565b81939154921b1b19169055555b81600052600581526040600020600081556001611f26600183016131e4565b611f32600283016131e4565b611f3e600383016131e4565b6000600483015560006005830155600682018054906000815581611fbd575b856007866000600a888285820155826008820155826009820155015582600052600481526000604081205552604060002060ff1981541690557f15f24668df6fb1c359e7625bd2ae2cc0b2d87604bb5c96adce721a4fc2ea1809600080a2005b60005283600020908101905b81811015611f5d5780611fdc84926131e4565b01611fc9565b634e487b7160e01b600052603160045260246000fd5b5050509050611f07565b60405163fba0b9d560e01b8152600490fd5b604051632897b96960e01b815260048101849052602490fd5b346108d75760003660031901126108d75760206040517fa49807205ce4d355092ef5a8a18f56e8913cf4a201fbe287825b095693c217758152f35b346108d75760203660031901126108d7576004356006548110156108d75760ff612093602092612f63565b9190546040519260031b1c168152f35b346108d75760203660031901126108d7576001600160a01b036120c4612c38565b16600052600a602052602060ff604060002054166040519015158152f35b346108d75760203660031901126108d75760ff6120fd612c02565b166000526005602052604060002060ff81541661211c60018301612e7e565b9161212960028201612e7e565b61213560038301612e7e565b91600481015492600582015460ff6007840154169061219e600885015493612190600a60ff600989015416970154976121826040519c8d809d6020610140928392815201528d0190612f23565b908b820360408d0152612f23565b9089820360608b0152612f23565b95608088015260a0870152151560c086015260e085015215156101008401526101208301520390f35b346108d7576121d536612d1f565b9690949193929599976121e661350f565b60ff8916600052600760205260ff604060002054161561271d5789511561088d578051156108595760ff8916600052600560205260016040600020018a516001600160401b0381116105285761223c8254612e44565b601f81116126eb575b506020601f821160011461268457908061227592600091612679575b508160011b916000199060031b1c19161790565b90555b60ff891660005260056020526002604060002001908051906001600160401b038211610528576122a88354612e44565b601f8111612647575b50602090601f83116001146125db576122e29291600091836125305750508160011b916000199060031b1c19161790565b90555b60ff881660005260056020526003604060002001908051906001600160401b038211610528576123158354612e44565b601f81116125a9575b50602090601f831160011461253b5791806123549260069695946000926125305750508160011b916000199060031b1c19161790565b90555b60ff881660005260056020526040600020908a6004830155600582015501906020815191612385838561322d565b01916000526020600020916000905b828210612420578a6000805160206136c683398151915261051b8c60ff8d8d600a8e6123fe8f8f87871660005260056020526123e4604060002094600786019060ff801983541691151516179055565b6008840155600983019060ff801983541691151516179055565b0155600460205285604060002055604051938493604085526040850190612f23565b80518051906001600160401b0382116105285761243d8654612e44565b601f81116124fe575b50602090601f831160011461248e579261247f836001959460209487966000926105ac5750508160011b916000199060031b1c19161790565b87555b01940191019092612394565b908660005260206000209160005b601f19851681106124e6575083602093600196938796938794601f198116106124cd575b505050811b018755612482565b015160001960f88460031b161c191690553880806124c0565b9192602060018192868501518155019401920161249c565b61252a90876000526020600020601f850160051c8101916020861061065a57601f0160051c01906131cd565b8d612446565b015190508e80610301565b908360005260206000209160005b601f198516811061259157509183916001936006979695601f19811610612578575b505050811b019055612357565b015160001960f88460031b161c191690558d808061256b565b91926020600181928685015181550194019201612549565b6125d590846000526020600020601f850160051c8101916020861061065a57601f0160051c01906131cd565b8c61231e565b9190836000526020600020906000935b601f198416851061262c576001945083601f19811610612613575b505050811b0190556122e5565b015160001960f88460031b161c191690558d8080612606565b818101518355602094850194600190930192909101906125eb565b61267390846000526020600020601f850160051c8101916020861061065a57601f0160051c01906131cd565b8d6122b1565b90508d01518f612261565b6000838152602081209092918e5b601f19841685106126d3576001945083601f198116106126ba575b505050811b019055612278565b015160001960f88460031b161c191690558e808e6126ad565b8101518255602093840193600190920191018e612692565b61271790836000526020600020601f840160051c8101916020851061065a57601f0160051c01906131cd565b8d612245565b604051632897b96960e01b815260ff8a166004820152602490fd5b346108d75760003660031901126108d757608060085460095461275b818361318c565b600d5491604051938452602084015260408301526060820152f35b346108d75760003660031901126108d7576020600954604051908152f35b346108d75760203660031901126108d75760206127b76127b2612c38565b613199565b60ff60405191168152f35b346108d75760403660031901126108d7576127db612c22565b336001600160a01b038216036127f757610d509060043561362d565b60405163334bd91960e11b8152600490fd5b346108d75760403660031901126108d757610d50600435612828612c22565b90806000526000602052612843600160406000200154613589565b6135af565b346108d75760003660031901126108d7576020610d096008546009549061318c565b346108d75760003660031901126108d7576020600854604051908152f35b346108d75760403660031901126108d7576128a1612c02565b60ff602435916128af61350f565b168060005260206007815260ff60406000205416156129c057816000526004815282604060002055600581526040600020928060048501556001809401916040519260408452600095815461290381612e44565b928360408801526060916001811690816000146129885750600114612940575b876000805160206136c683398151915288808c8a8a8301520390a2005b6000908152848120949850935b8385106129755750505050820160600193816000805160206136c68339815191528488612923565b805487860183015293880193820161294d565b9150506000805160206136c683398151915297985060609250869593915060ff191682860152151560051b8401019594819388612923565b604051632897b96960e01b815260048101839052602490fd5b346108d75760203660031901126108d75760043560005260006020526020600160406000200154604051908152f35b346108d75760203660031901126108d757600435600d548110156108d757612a3160c091612bb1565b5060018060a01b038082541691600181015460ff600283015491600485600386015416940154946040519687528116602087015260a01c1660408501526060840152608083015260a0820152f35b346108d75760203660031901126108d757600435612a9b613108565b50600d5480821015612ac45760c0612ab5611af984612bb1565b612ac26040518092612b6c565bf35b6040516363a056dd60e01b815260048101929092526024820152604490fd5b346108d75760003660031901126108d7576020600d54604051908152f35b346108d75760203660031901126108d7576004359063ffffffff60e01b82168092036108d757602091637965db0b60e01b8114908115612b5b575b8115612b4a575b5015158152f35b6301ffc9a760e01b14905083612b43565b6301ffc9a760e01b81149150612b3c565b60a08091600180831b0380825116855280602083015116602086015260ff60408301511660408601526060820151606086015260808201511660808501520151910152565b600d54811015612bec57600590600d600052027fd7b6990105719101dabeb77144f2a3385c8033acd3af97e9423a695e81ad1eb50190600090565b634e487b7160e01b600052603260045260246000fd5b6004359060ff821682036108d757565b6024359060ff821682036108d757565b602435906001600160a01b03821682036108d757565b600435906001600160a01b03821682036108d757565b60c081019081106001600160401b0382111761052857604052565b61016081019081106001600160401b0382111761052857604052565b90601f801991011681019081106001600160401b0382111761052857604052565b6001600160401b03811161052857601f01601f191660200190565b81601f820112156108d757803590612cd882612ca6565b92612ce66040519485612c85565b828452602083830101116108d757816000926020809301838601378301015290565b6001600160401b0381116105285760051b60200190565b6101606003198201126108d75760043560ff811681036108d757916024916001600160401b039083358281116108d75781612d5c91600401612cc1565b936044358381116108d75782612d7491600401612cc1565b936064358481116108d75783612d8c91600401612cc1565b936084359360a4359360c435928084116108d757826023850112156108d7578360040135612db981612d08565b94612dc76040519687612c85565b8186526020946024602088019360051b830101948186116108d75760248301935b868510612e1f5750505050505050509060e43580151581036108d7579061010435906101243580151581036108d757906101443590565b84358681116108d7578891612e3985858594890101612cc1565b815201940193612de8565b90600182811c92168015612e74575b6020831014612e5e57565b634e487b7160e01b600052602260045260246000fd5b91607f1691612e53565b90604051918260008254612e9181612e44565b90818452602094600191600181169081600014612f015750600114612ec2575b505050612ec092500383612c85565b565b600090815285812095935091905b818310612ee9575050612ec09350820101388080612eb1565b85548884018501529485019487945091830191612ed0565b92505050612ec094925060ff191682840152151560051b820101388080612eb1565b919082519283825260005b848110612f4f575050826000602080949584010152601f8019910116010190565b602081830181015184830182015201612f2e565b90600654821015612bec576006600052601f8260051c7ff652222313e28459528d920b65115c16c04f3efc82aaedc97be59f3f377c0d3f01921690565b90808251908181526020809101926020808460051b8301019501936000915b848310612fcf5750505050505090565b9091929394958480612fed600193601f198682030187528a51612f23565b9801930193019194939290612fbf565b9061307261304c61303a61302861016060ff8751168652602087015190806020880152860190612f23565b60408601518582036040870152612f23565b60608501518482036060860152612f23565b6080840151608084015260a084015160a084015260c084015183820360c0850152612fa0565b9160e0810151151560e08301526101008082015190830152610120808201511515908301526101408091015191015290565b6020808201906020835283518092526040830192602060408460051b8301019501936000915b8483106130da5750505050505090565b90919293949584806130f8600193603f198682030187528a51612ffd565b98019301930191949392906130ca565b6040519061311582612c4e565b8160a06000918281528260208201528260408201528260608201528260808201520152565b9060405161314781612c4e565b60a060048294600180841b0380825416855260ff60018301548281166020880152851c1660408601526002820154606086015260038201541660808501520154910152565b9190820391821161192057565b6001600160a01b031660009081526002602052604090205442106131bc57600090565b600360205260ff6040600020541690565b8181106131d8575050565b600081556001016131cd565b6131ee8154612e44565b90816131f8575050565b81601f6000931160011461320a575055565b908083918252613229601f60208420940160051c8401600185016131cd565b5555565b90600160401b81116105285781549181815582821061324b57505050565b600052602060002091820191015b818110613264575050565b806132706001926131e4565b01613259565b9190820180921161192057565b600d54600160401b811015610528578060016132a29201600d55612bb1565b9190916133215760a0600491600180831b03808251166bffffffffffffffffffffffff841b9081875416178655600186018260208501511681549060ff871b6040870151881b16916affffffffffffffffffffff60a81b1617179055606083015160028701556003860191608084015116908254161790550151910155565b634e487b7160e01b600052600060045260246000fd5b908160209103126108d7575180151581036108d75790565b8051821015612bec5760209160051b010190565b6040519061337082612c69565b8161014060009182815260606020820152606060408201526060808201528260808201528260a0820152606060c08201528260e082015282610100820152826101208201520152565b906133c382612d08565b6133d06040519182612c85565b82815280926133e1601f1991612d08565b019060005b8281106133f257505050565b6020906133fd613363565b828285010152016133e6565b90815461341581612d08565b926134236040519485612c85565b818452600090815260208082208186015b848410613442575050505050565b600183819261345085612e7e565b815201920193019290613434565b6001600160a01b03166000818152600260209081526040808320549194939092914210806134e2575b6134c557508080526007845260ff8282205416156134af576005600a93948280525220015490565b6024915190632897b96960e01b82526004820152fd5b600a939460059183526003815260ff848420541683525220015490565b506003855260ff838320541682526007855260ff8383205416613487565b60001981146119205760010190565b3360009081527f7d7ffb7a348e1c6a02869081a26547b49160dd3df72d1d75a570eb9b698292ec60205260409020547fa49807205ce4d355092ef5a8a18f56e8913cf4a201fbe287825b095693c217759060ff161561356b5750565b6044906040519063e2517d3f60e01b82523360048301526024820152fd5b80600052600060205260406000203360005260205260ff604060002054161561356b5750565b9060009180835282602052604083209160018060a01b03169182845260205260ff6040842054161560001461362857808352826020526040832082845260205260408320600160ff198254161790557f2f8788117e7eff1d82e926ec794901d17c78024a50270940304540a733656f0d339380a4600190565b505090565b9060009180835282602052604083209160018060a01b03169182845260205260ff6040842054166000146136285780835282602052604083208284526020526040832060ff1981541690557ff6391f5c32d9c69d2a47ea670b442974b53935d1edc7fd64eb21e047a839171b339380a4600190565b6002600154146136b3576002600155565b604051633ee5aeb560e01b8152600490fdfe462483258991e6a7145fba99be1b83b3c23d949f15d84e155f9bc47d7a4353dea26469706673582212208f638d62ec9f7a52e07f878760200abf485326baaa4f9593041f09568a342de364736f6c634300081900332f8788117e7eff1d82e926ec794901d17c78024a50270940304540a733656f0df652222313e28459528d920b65115c16c04f3efc82aaedc97be59f3f377c0d3f",
    "linkReferences": {}
  },
  "methodIdentifiers": {
    "ADMIN_ROLE()": "75b238fc",
    "DEFAULT_ADMIN_ROLE()": "a217fddf",
    "PERIOD()": "b4d1d795",
    "createPlan(uint8,string,string,string,uint256,uint256,string[],bool,uint256,bool,uint256)": "f51ff61d",
    "deletePlan(uint8)": "7e9f49e3",
    "earningRecords(uint256)": "1f86011f",
    "getActiveSubscriptionPlan(address)": "3ccf52ae",
    "getAllActivePlans()": "ebaef385",
    "getAllPlanKeys()": "bee1324b",
    "getAllPlans()": "98de396a",
    "getAvailableEarnings()": "2ebfc24a",
    "getAvailableTokenEarnings(address)": "c5dfd6e3",
    "getEarningRecord(uint256)": "0763e0ab",
    "getEarningRecords(uint256,uint256)": "8a793c0d",
    "getEarningRecordsCount()": "0216ef41",
    "getEarningsSummary()": "51359c97",
    "getPlan(uint8)": "a12b2121",
    "getPlanFeatures(uint8)": "c8514d58",
    "getPlanFeeTier(uint8)": "8535dd15",
    "getRoleAdmin(bytes32)": "248a9ca3",
    "getUserFeeTier(address)": "d9e6e287",
    "grantRole(bytes32,address)": "2f2ff15d",
    "hasRole(bytes32,address)": "91d14854",
    "paidUntil(address)": "92cff5fe",
    "paySubscription(address,uint8)": "9564cd24",
    "paySubscriptionWithToken(address,uint8,address,uint256)": "857715fe",
    "planExists(uint8)": "b997fe94",
    "planExistsCheck(uint8)": "50fe2619",
    "planKeys(uint256)": "7037d573",
    "planPriceWei(uint8)": "88b66e29",
    "plans(uint8)": "60a31a88",
    "renounceRole(bytes32,address)": "36568abe",
    "revokeRole(bytes32,address)": "d547741f",
    "setPlanPrice(uint8,uint256)": "25a7f819",
    "setSupportedToken(address,bool)": "e7986466",
    "supportedTokens(address)": "68c4ac26",
    "supportsInterface(bytes4)": "01ffc9a7",
    "tokenEarnings(address)": "bdc3645a",
    "tokenWithdrawn(address)": "b56f4ded",
    "totalEarnings()": "2df3eba4",
    "totalWithdrawn()": "4b319713",
    "updatePlan(uint8,string,string,string,uint256,uint256,string[],bool,uint256,bool,uint256)": "57031bbd",
    "withdrawEarnings(address,uint256)": "c9211c82",
    "withdrawTokenEarnings(address,address,uint256)": "e8b032b6"
  },
  "id": 67
}